{
	"LockableNFT.sol": {
		"LockableNFT": {
			"abi": [
				{
					"inputs": [
						{
							"internalType": "uint256",
							"name": "initialMintPrice",
							"type": "uint256"
						}
					],
					"stateMutability": "nonpayable",
					"type": "constructor"
				},
				{
					"inputs": [
						{
							"internalType": "address",
							"name": "sender",
							"type": "address"
						},
						{
							"internalType": "uint256",
							"name": "tokenId",
							"type": "uint256"
						},
						{
							"internalType": "address",
							"name": "owner",
							"type": "address"
						}
					],
					"name": "ERC721IncorrectOwner",
					"type": "error"
				},
				{
					"inputs": [
						{
							"internalType": "address",
							"name": "operator",
							"type": "address"
						},
						{
							"internalType": "uint256",
							"name": "tokenId",
							"type": "uint256"
						}
					],
					"name": "ERC721InsufficientApproval",
					"type": "error"
				},
				{
					"inputs": [
						{
							"internalType": "address",
							"name": "approver",
							"type": "address"
						}
					],
					"name": "ERC721InvalidApprover",
					"type": "error"
				},
				{
					"inputs": [
						{
							"internalType": "address",
							"name": "operator",
							"type": "address"
						}
					],
					"name": "ERC721InvalidOperator",
					"type": "error"
				},
				{
					"inputs": [
						{
							"internalType": "address",
							"name": "owner",
							"type": "address"
						}
					],
					"name": "ERC721InvalidOwner",
					"type": "error"
				},
				{
					"inputs": [
						{
							"internalType": "address",
							"name": "receiver",
							"type": "address"
						}
					],
					"name": "ERC721InvalidReceiver",
					"type": "error"
				},
				{
					"inputs": [
						{
							"internalType": "address",
							"name": "sender",
							"type": "address"
						}
					],
					"name": "ERC721InvalidSender",
					"type": "error"
				},
				{
					"inputs": [
						{
							"internalType": "uint256",
							"name": "tokenId",
							"type": "uint256"
						}
					],
					"name": "ERC721NonexistentToken",
					"type": "error"
				},
				{
					"inputs": [
						{
							"internalType": "address",
							"name": "owner",
							"type": "address"
						}
					],
					"name": "OwnableInvalidOwner",
					"type": "error"
				},
				{
					"inputs": [
						{
							"internalType": "address",
							"name": "account",
							"type": "address"
						}
					],
					"name": "OwnableUnauthorizedAccount",
					"type": "error"
				},
				{
					"anonymous": false,
					"inputs": [
						{
							"indexed": true,
							"internalType": "address",
							"name": "owner",
							"type": "address"
						},
						{
							"indexed": true,
							"internalType": "address",
							"name": "approved",
							"type": "address"
						},
						{
							"indexed": true,
							"internalType": "uint256",
							"name": "tokenId",
							"type": "uint256"
						}
					],
					"name": "Approval",
					"type": "event"
				},
				{
					"anonymous": false,
					"inputs": [
						{
							"indexed": true,
							"internalType": "address",
							"name": "owner",
							"type": "address"
						},
						{
							"indexed": true,
							"internalType": "address",
							"name": "operator",
							"type": "address"
						},
						{
							"indexed": false,
							"internalType": "bool",
							"name": "approved",
							"type": "bool"
						}
					],
					"name": "ApprovalForAll",
					"type": "event"
				},
				{
					"anonymous": false,
					"inputs": [
						{
							"indexed": true,
							"internalType": "address",
							"name": "owner",
							"type": "address"
						},
						{
							"indexed": true,
							"internalType": "uint256",
							"name": "tokenId",
							"type": "uint256"
						},
						{
							"indexed": false,
							"internalType": "uint256",
							"name": "valueReleased",
							"type": "uint256"
						}
					],
					"name": "Burned",
					"type": "event"
				},
				{
					"anonymous": false,
					"inputs": [
						{
							"indexed": false,
							"internalType": "uint256",
							"name": "newPrice",
							"type": "uint256"
						}
					],
					"name": "MintPriceUpdated",
					"type": "event"
				},
				{
					"anonymous": false,
					"inputs": [
						{
							"indexed": true,
							"internalType": "address",
							"name": "owner",
							"type": "address"
						},
						{
							"indexed": true,
							"internalType": "uint256",
							"name": "tokenId",
							"type": "uint256"
						},
						{
							"indexed": false,
							"internalType": "uint256",
							"name": "valueLocked",
							"type": "uint256"
						}
					],
					"name": "Minted",
					"type": "event"
				},
				{
					"anonymous": false,
					"inputs": [
						{
							"indexed": true,
							"internalType": "address",
							"name": "previousOwner",
							"type": "address"
						},
						{
							"indexed": true,
							"internalType": "address",
							"name": "newOwner",
							"type": "address"
						}
					],
					"name": "OwnershipTransferred",
					"type": "event"
				},
				{
					"anonymous": false,
					"inputs": [
						{
							"indexed": true,
							"internalType": "address",
							"name": "from",
							"type": "address"
						},
						{
							"indexed": true,
							"internalType": "address",
							"name": "to",
							"type": "address"
						},
						{
							"indexed": true,
							"internalType": "uint256",
							"name": "tokenId",
							"type": "uint256"
						}
					],
					"name": "Transfer",
					"type": "event"
				},
				{
					"inputs": [],
					"name": "MINT_PRICE",
					"outputs": [
						{
							"internalType": "uint256",
							"name": "",
							"type": "uint256"
						}
					],
					"stateMutability": "view",
					"type": "function"
				},
				{
					"inputs": [
						{
							"internalType": "address",
							"name": "to",
							"type": "address"
						},
						{
							"internalType": "uint256",
							"name": "tokenId",
							"type": "uint256"
						}
					],
					"name": "approve",
					"outputs": [],
					"stateMutability": "nonpayable",
					"type": "function"
				},
				{
					"inputs": [
						{
							"internalType": "address",
							"name": "owner",
							"type": "address"
						}
					],
					"name": "balanceOf",
					"outputs": [
						{
							"internalType": "uint256",
							"name": "",
							"type": "uint256"
						}
					],
					"stateMutability": "view",
					"type": "function"
				},
				{
					"inputs": [
						{
							"internalType": "uint256",
							"name": "tokenId",
							"type": "uint256"
						}
					],
					"name": "burn",
					"outputs": [],
					"stateMutability": "nonpayable",
					"type": "function"
				},
				{
					"inputs": [
						{
							"internalType": "uint256",
							"name": "tokenId",
							"type": "uint256"
						}
					],
					"name": "getApproved",
					"outputs": [
						{
							"internalType": "address",
							"name": "",
							"type": "address"
						}
					],
					"stateMutability": "view",
					"type": "function"
				},
				{
					"inputs": [
						{
							"internalType": "uint256",
							"name": "tokenId",
							"type": "uint256"
						}
					],
					"name": "getLockedEthForNft",
					"outputs": [
						{
							"internalType": "uint256",
							"name": "",
							"type": "uint256"
						}
					],
					"stateMutability": "view",
					"type": "function"
				},
				{
					"inputs": [
						{
							"internalType": "address",
							"name": "owner",
							"type": "address"
						}
					],
					"name": "getMintedNftId",
					"outputs": [
						{
							"internalType": "uint256[]",
							"name": "",
							"type": "uint256[]"
						}
					],
					"stateMutability": "view",
					"type": "function"
				},
				{
					"inputs": [],
					"name": "getTotalLockedEth",
					"outputs": [
						{
							"internalType": "uint256",
							"name": "",
							"type": "uint256"
						}
					],
					"stateMutability": "view",
					"type": "function"
				},
				{
					"inputs": [
						{
							"internalType": "address",
							"name": "owner",
							"type": "address"
						},
						{
							"internalType": "address",
							"name": "operator",
							"type": "address"
						}
					],
					"name": "isApprovedForAll",
					"outputs": [
						{
							"internalType": "bool",
							"name": "",
							"type": "bool"
						}
					],
					"stateMutability": "view",
					"type": "function"
				},
				{
					"inputs": [],
					"name": "mint",
					"outputs": [],
					"stateMutability": "payable",
					"type": "function"
				},
				{
					"inputs": [],
					"name": "name",
					"outputs": [
						{
							"internalType": "string",
							"name": "",
							"type": "string"
						}
					],
					"stateMutability": "view",
					"type": "function"
				},
				{
					"inputs": [],
					"name": "owner",
					"outputs": [
						{
							"internalType": "address",
							"name": "",
							"type": "address"
						}
					],
					"stateMutability": "view",
					"type": "function"
				},
				{
					"inputs": [
						{
							"internalType": "uint256",
							"name": "tokenId",
							"type": "uint256"
						}
					],
					"name": "ownerOf",
					"outputs": [
						{
							"internalType": "address",
							"name": "",
							"type": "address"
						}
					],
					"stateMutability": "view",
					"type": "function"
				},
				{
					"inputs": [],
					"name": "renounceOwnership",
					"outputs": [],
					"stateMutability": "nonpayable",
					"type": "function"
				},
				{
					"inputs": [
						{
							"internalType": "address",
							"name": "from",
							"type": "address"
						},
						{
							"internalType": "address",
							"name": "to",
							"type": "address"
						},
						{
							"internalType": "uint256",
							"name": "tokenId",
							"type": "uint256"
						}
					],
					"name": "safeTransferFrom",
					"outputs": [],
					"stateMutability": "nonpayable",
					"type": "function"
				},
				{
					"inputs": [
						{
							"internalType": "address",
							"name": "from",
							"type": "address"
						},
						{
							"internalType": "address",
							"name": "to",
							"type": "address"
						},
						{
							"internalType": "uint256",
							"name": "tokenId",
							"type": "uint256"
						},
						{
							"internalType": "bytes",
							"name": "data",
							"type": "bytes"
						}
					],
					"name": "safeTransferFrom",
					"outputs": [],
					"stateMutability": "nonpayable",
					"type": "function"
				},
				{
					"inputs": [
						{
							"internalType": "address",
							"name": "operator",
							"type": "address"
						},
						{
							"internalType": "bool",
							"name": "approved",
							"type": "bool"
						}
					],
					"name": "setApprovalForAll",
					"outputs": [],
					"stateMutability": "nonpayable",
					"type": "function"
				},
				{
					"inputs": [
						{
							"internalType": "uint256",
							"name": "newPrice",
							"type": "uint256"
						}
					],
					"name": "setMintPrice",
					"outputs": [],
					"stateMutability": "nonpayable",
					"type": "function"
				},
				{
					"inputs": [
						{
							"internalType": "bytes4",
							"name": "interfaceId",
							"type": "bytes4"
						}
					],
					"name": "supportsInterface",
					"outputs": [
						{
							"internalType": "bool",
							"name": "",
							"type": "bool"
						}
					],
					"stateMutability": "view",
					"type": "function"
				},
				{
					"inputs": [],
					"name": "symbol",
					"outputs": [
						{
							"internalType": "string",
							"name": "",
							"type": "string"
						}
					],
					"stateMutability": "view",
					"type": "function"
				},
				{
					"inputs": [
						{
							"internalType": "uint256",
							"name": "tokenId",
							"type": "uint256"
						}
					],
					"name": "tokenURI",
					"outputs": [
						{
							"internalType": "string",
							"name": "",
							"type": "string"
						}
					],
					"stateMutability": "view",
					"type": "function"
				},
				{
					"inputs": [
						{
							"internalType": "address",
							"name": "from",
							"type": "address"
						},
						{
							"internalType": "address",
							"name": "to",
							"type": "address"
						},
						{
							"internalType": "uint256",
							"name": "tokenId",
							"type": "uint256"
						}
					],
					"name": "transferFrom",
					"outputs": [],
					"stateMutability": "nonpayable",
					"type": "function"
				},
				{
					"inputs": [
						{
							"internalType": "address",
							"name": "newOwner",
							"type": "address"
						}
					],
					"name": "transferOwnership",
					"outputs": [],
					"stateMutability": "nonpayable",
					"type": "function"
				}
			],
			"devdoc": {
				"errors": {
					"ERC721IncorrectOwner(address,uint256,address)": [
						{
							"details": "Indicates an error related to the ownership over a particular token. Used in transfers.",
							"params": {
								"owner": "Address of the current owner of a token.",
								"sender": "Address whose tokens are being transferred.",
								"tokenId": "Identifier number of a token."
							}
						}
					],
					"ERC721InsufficientApproval(address,uint256)": [
						{
							"details": "Indicates a failure with the `operator`’s approval. Used in transfers.",
							"params": {
								"operator": "Address that may be allowed to operate on tokens without being their owner.",
								"tokenId": "Identifier number of a token."
							}
						}
					],
					"ERC721InvalidApprover(address)": [
						{
							"details": "Indicates a failure with the `approver` of a token to be approved. Used in approvals.",
							"params": {
								"approver": "Address initiating an approval operation."
							}
						}
					],
					"ERC721InvalidOperator(address)": [
						{
							"details": "Indicates a failure with the `operator` to be approved. Used in approvals.",
							"params": {
								"operator": "Address that may be allowed to operate on tokens without being their owner."
							}
						}
					],
					"ERC721InvalidOwner(address)": [
						{
							"details": "Indicates that an address can't be an owner. For example, `address(0)` is a forbidden owner in ERC-20. Used in balance queries.",
							"params": {
								"owner": "Address of the current owner of a token."
							}
						}
					],
					"ERC721InvalidReceiver(address)": [
						{
							"details": "Indicates a failure with the token `receiver`. Used in transfers.",
							"params": {
								"receiver": "Address to which tokens are being transferred."
							}
						}
					],
					"ERC721InvalidSender(address)": [
						{
							"details": "Indicates a failure with the token `sender`. Used in transfers.",
							"params": {
								"sender": "Address whose tokens are being transferred."
							}
						}
					],
					"ERC721NonexistentToken(uint256)": [
						{
							"details": "Indicates a `tokenId` whose `owner` is the zero address.",
							"params": {
								"tokenId": "Identifier number of a token."
							}
						}
					],
					"OwnableInvalidOwner(address)": [
						{
							"details": "The owner is not a valid owner account. (eg. `address(0)`)"
						}
					],
					"OwnableUnauthorizedAccount(address)": [
						{
							"details": "The caller account is not authorized to perform an operation."
						}
					]
				},
				"events": {
					"Approval(address,address,uint256)": {
						"details": "Emitted when `owner` enables `approved` to manage the `tokenId` token."
					},
					"ApprovalForAll(address,address,bool)": {
						"details": "Emitted when `owner` enables or disables (`approved`) `operator` to manage all of its assets."
					},
					"Transfer(address,address,uint256)": {
						"details": "Emitted when `tokenId` token is transferred from `from` to `to`."
					}
				},
				"kind": "dev",
				"methods": {
					"approve(address,uint256)": {
						"details": "See {IERC721-approve}."
					},
					"balanceOf(address)": {
						"details": "See {IERC721-balanceOf}."
					},
					"burn(uint256)": {
						"details": "Burn an NFT and release locked ETH to the owner.",
						"params": {
							"tokenId": "The ID of the NFT to burn."
						}
					},
					"getApproved(uint256)": {
						"details": "See {IERC721-getApproved}."
					},
					"getLockedEthForNft(uint256)": {
						"details": "View locked ETH for a specific NFT.",
						"params": {
							"tokenId": "The ID of the NFT."
						}
					},
					"getMintedNftId(address)": {
						"details": "View ID for a specific NFT Against Owner Address.",
						"params": {
							"owner": "The ID of the NFT."
						}
					},
					"getTotalLockedEth()": {
						"details": "Get the total ETH locked in the contract for all NFTs."
					},
					"isApprovedForAll(address,address)": {
						"details": "See {IERC721-isApprovedForAll}."
					},
					"mint()": {
						"details": "Mint an NFT and lock exactly 0.1 ETH with it."
					},
					"name()": {
						"details": "See {IERC721Metadata-name}."
					},
					"owner()": {
						"details": "Returns the address of the current owner."
					},
					"ownerOf(uint256)": {
						"details": "See {IERC721-ownerOf}."
					},
					"renounceOwnership()": {
						"details": "Leaves the contract without owner. It will not be possible to call `onlyOwner` functions. Can only be called by the current owner. NOTE: Renouncing ownership will leave the contract without an owner, thereby disabling any functionality that is only available to the owner."
					},
					"safeTransferFrom(address,address,uint256)": {
						"details": "See {IERC721-safeTransferFrom}."
					},
					"safeTransferFrom(address,address,uint256,bytes)": {
						"details": "See {IERC721-safeTransferFrom}."
					},
					"setApprovalForAll(address,bool)": {
						"details": "See {IERC721-setApprovalForAll}."
					},
					"setMintPrice(uint256)": {
						"details": "Set a new mint price.",
						"params": {
							"newPrice": "The new mint price in wei."
						}
					},
					"supportsInterface(bytes4)": {
						"details": "Override required for ERC721 and Ownable."
					},
					"symbol()": {
						"details": "See {IERC721Metadata-symbol}."
					},
					"tokenURI(uint256)": {
						"details": "See {IERC721Metadata-tokenURI}."
					},
					"transferFrom(address,address,uint256)": {
						"details": "See {IERC721-transferFrom}."
					},
					"transferOwnership(address)": {
						"details": "Transfers ownership of the contract to a new account (`newOwner`). Can only be called by the current owner."
					}
				},
				"version": 1
			},
			"evm": {
				"assembly": "    /* \"LockableNFT.sol\":233:4432  contract LockableNFT is ERC721, Ownable, ReentrancyGuard {... */\n  mstore(0x40, 0x80)\n    /* \"LockableNFT.sol\":863:1041  constructor(... */\n  callvalue\n  dup1\n  iszero\n  tag_1\n  jumpi\n  0x00\n  dup1\n  revert\ntag_1:\n  pop\n  mload(0x40)\n  sub(codesize, bytecodeSize)\n  dup1\n  bytecodeSize\n  dup4\n  codecopy\n  dup2\n  add\n  0x40\n  dup2\n  swap1\n  mstore\n  tag_2\n  swap2\n  tag_3\n  jump\t// in\ntag_2:\n    /* \"LockableNFT.sol\":953:963  msg.sender */\n  caller\n    /* \"@openzeppelin/contracts/token/ERC721/ERC721.sol\":1380:1493  constructor(string memory name_, string memory symbol_) {... */\n  mload(0x40)\n  dup1\n  0x40\n  add\n  0x40\n  mstore\n  dup1\n  0x0b\n  dup2\n  mstore\n  0x20\n  add\n  shl(0xaa, 0x131bd8dad8589b19539195)\n  dup2\n  mstore\n  pop\n  mload(0x40)\n  dup1\n  0x40\n  add\n  0x40\n  mstore\n  dup1\n  0x04\n  dup2\n  mstore\n  0x20\n  add\n  shl(0xe2, 0x13139195)\n  dup2\n  mstore\n  pop\n    /* \"@openzeppelin/contracts/token/ERC721/ERC721.sol\":1454:1459  name_ */\n  dup2\n    /* \"@openzeppelin/contracts/token/ERC721/ERC721.sol\":1446:1451  _name */\n  0x00\n    /* \"@openzeppelin/contracts/token/ERC721/ERC721.sol\":1446:1459  _name = name_ */\n  swap1\n  dup2\n  tag_9\n  swap2\n  swap1\n  tag_10\n  jump\t// in\ntag_9:\n  pop\n    /* \"@openzeppelin/contracts/token/ERC721/ERC721.sol\":1469:1476  _symbol */\n  0x01\n    /* \"@openzeppelin/contracts/token/ERC721/ERC721.sol\":1469:1486  _symbol = symbol_ */\n  tag_11\n    /* \"@openzeppelin/contracts/token/ERC721/ERC721.sol\":1479:1486  symbol_ */\n  dup3\n    /* \"@openzeppelin/contracts/token/ERC721/ERC721.sol\":1469:1476  _symbol */\n  dup3\n    /* \"@openzeppelin/contracts/token/ERC721/ERC721.sol\":1469:1486  _symbol = symbol_ */\n  tag_10\n  jump\t// in\ntag_11:\n  pop\n  pop\n  pop\n  sub(shl(0xa0, 0x01), 0x01)\n    /* \"@openzeppelin/contracts/access/Ownable.sol\":1273:1299  initialOwner == address(0) */\n  dup2\n  and\n    /* \"@openzeppelin/contracts/access/Ownable.sol\":1269:1364  if (initialOwner == address(0)) {... */\n  tag_13\n  jumpi\n    /* \"@openzeppelin/contracts/access/Ownable.sol\":1322:1353  OwnableInvalidOwner(address(0)) */\n  mload(0x40)\n  shl(0xe0, 0x1e4fbdf7)\n  dup2\n  mstore\n    /* \"@openzeppelin/contracts/access/Ownable.sol\":1350:1351  0 */\n  0x00\n    /* \"@openzeppelin/contracts/access/Ownable.sol\":1322:1353  OwnableInvalidOwner(address(0)) */\n  0x04\n  dup3\n  add\n    /* \"#utility.yul\":3070:3121   */\n  mstore\n    /* \"#utility.yul\":3043:3061   */\n  0x24\n  add\n    /* \"@openzeppelin/contracts/access/Ownable.sol\":1322:1353  OwnableInvalidOwner(address(0)) */\n  mload(0x40)\n  dup1\n  swap2\n  sub\n  swap1\n  revert\n    /* \"@openzeppelin/contracts/access/Ownable.sol\":1269:1364  if (initialOwner == address(0)) {... */\ntag_13:\n    /* \"@openzeppelin/contracts/access/Ownable.sol\":1373:1405  _transferOwnership(initialOwner) */\n  tag_16\n    /* \"@openzeppelin/contracts/access/Ownable.sol\":1392:1404  initialOwner */\n  dup2\n    /* \"@openzeppelin/contracts/access/Ownable.sol\":1373:1391  _transferOwnership */\n  tag_17\n    /* \"@openzeppelin/contracts/access/Ownable.sol\":1373:1405  _transferOwnership(initialOwner) */\n  jump\t// in\ntag_16:\n  pop\n    /* \"@openzeppelin/contracts/security/ReentrancyGuard.sol\":1716:1717  1 */\n  0x01\n    /* \"@openzeppelin/contracts/security/ReentrancyGuard.sol\":1821:1828  _status */\n  0x07\n    /* \"@openzeppelin/contracts/security/ReentrancyGuard.sol\":1821:1843  _status = _NOT_ENTERED */\n  sstore\n    /* \"LockableNFT.sol\":975:985  MINT_PRICE */\n  0x09\n    /* \"LockableNFT.sol\":975:1004  MINT_PRICE = initialMintPrice */\n  sstore\n    /* \"LockableNFT.sol\":233:4432  contract LockableNFT is ERC721, Ownable, ReentrancyGuard {... */\n  jump(tag_27)\n    /* \"@openzeppelin/contracts/access/Ownable.sol\":2912:3099  function _transferOwnership(address newOwner) internal virtual {... */\ntag_17:\n    /* \"@openzeppelin/contracts/access/Ownable.sol\":3004:3010  _owner */\n  0x06\n  dup1\n  sload\n  sub(shl(0xa0, 0x01), 0x01)\n    /* \"@openzeppelin/contracts/access/Ownable.sol\":3020:3037  _owner = newOwner */\n  dup4\n  dup2\n  and\n  not(sub(shl(0xa0, 0x01), 0x01))\n  dup4\n  and\n  dup2\n  or\n  swap1\n  swap4\n  sstore\n    /* \"@openzeppelin/contracts/access/Ownable.sol\":3052:3092  OwnershipTransferred(oldOwner, newOwner) */\n  mload(0x40)\n    /* \"@openzeppelin/contracts/access/Ownable.sol\":3004:3010  _owner */\n  swap2\n  and\n  swap2\n    /* \"@openzeppelin/contracts/access/Ownable.sol\":3020:3037  _owner = newOwner */\n  swap1\n    /* \"@openzeppelin/contracts/access/Ownable.sol\":3004:3010  _owner */\n  dup3\n  swap1\n    /* \"@openzeppelin/contracts/access/Ownable.sol\":3052:3092  OwnershipTransferred(oldOwner, newOwner) */\n  0x8be0079c531659141344cd1fd0a4f28419497f9722a3daafe3b4186f6b6457e0\n  swap1\n    /* \"@openzeppelin/contracts/access/Ownable.sol\":2985:3001  address oldOwner */\n  0x00\n  swap1\n    /* \"@openzeppelin/contracts/access/Ownable.sol\":3052:3092  OwnershipTransferred(oldOwner, newOwner) */\n  log3\n    /* \"@openzeppelin/contracts/access/Ownable.sol\":2975:3099  {... */\n  pop\n    /* \"@openzeppelin/contracts/access/Ownable.sol\":2912:3099  function _transferOwnership(address newOwner) internal virtual {... */\n  pop\n  jump\t// out\n    /* \"#utility.yul\":14:198   */\ntag_3:\n    /* \"#utility.yul\":84:90   */\n  0x00\n    /* \"#utility.yul\":137:139   */\n  0x20\n    /* \"#utility.yul\":125:134   */\n  dup3\n    /* \"#utility.yul\":116:123   */\n  dup5\n    /* \"#utility.yul\":112:135   */\n  sub\n    /* \"#utility.yul\":108:140   */\n  slt\n    /* \"#utility.yul\":105:157   */\n  iszero\n  tag_29\n  jumpi\n    /* \"#utility.yul\":153:154   */\n  0x00\n    /* \"#utility.yul\":150:151   */\n  dup1\n    /* \"#utility.yul\":143:155   */\n  revert\n    /* \"#utility.yul\":105:157   */\ntag_29:\n  pop\n    /* \"#utility.yul\":176:192   */\n  mload\n  swap2\n    /* \"#utility.yul\":14:198   */\n  swap1\n  pop\n  jump\t// out\n    /* \"#utility.yul\":203:330   */\ntag_22:\n    /* \"#utility.yul\":264:274   */\n  0x4e487b71\n    /* \"#utility.yul\":259:262   */\n  0xe0\n    /* \"#utility.yul\":255:275   */\n  shl\n    /* \"#utility.yul\":252:253   */\n  0x00\n    /* \"#utility.yul\":245:276   */\n  mstore\n    /* \"#utility.yul\":295:299   */\n  0x41\n    /* \"#utility.yul\":292:293   */\n  0x04\n    /* \"#utility.yul\":285:300   */\n  mstore\n    /* \"#utility.yul\":319:323   */\n  0x24\n    /* \"#utility.yul\":316:317   */\n  0x00\n    /* \"#utility.yul\":309:324   */\n  revert\n    /* \"#utility.yul\":335:715   */\ntag_23:\n    /* \"#utility.yul\":414:415   */\n  0x01\n    /* \"#utility.yul\":410:422   */\n  dup2\n  dup2\n  shr\n  swap1\n    /* \"#utility.yul\":457:469   */\n  dup3\n  and\n  dup1\n    /* \"#utility.yul\":478:539   */\n  tag_32\n  jumpi\n    /* \"#utility.yul\":532:536   */\n  0x7f\n    /* \"#utility.yul\":524:530   */\n  dup3\n    /* \"#utility.yul\":520:537   */\n  and\n    /* \"#utility.yul\":510:537   */\n  swap2\n  pop\n    /* \"#utility.yul\":478:539   */\ntag_32:\n    /* \"#utility.yul\":585:587   */\n  0x20\n    /* \"#utility.yul\":577:583   */\n  dup3\n    /* \"#utility.yul\":574:588   */\n  lt\n    /* \"#utility.yul\":554:572   */\n  dup2\n    /* \"#utility.yul\":551:589   */\n  sub\n    /* \"#utility.yul\":548:709   */\n  tag_33\n  jumpi\n    /* \"#utility.yul\":631:641   */\n  0x4e487b71\n    /* \"#utility.yul\":626:629   */\n  0xe0\n    /* \"#utility.yul\":622:642   */\n  shl\n    /* \"#utility.yul\":619:620   */\n  0x00\n    /* \"#utility.yul\":612:643   */\n  mstore\n    /* \"#utility.yul\":666:670   */\n  0x22\n    /* \"#utility.yul\":663:664   */\n  0x04\n    /* \"#utility.yul\":656:671   */\n  mstore\n    /* \"#utility.yul\":694:698   */\n  0x24\n    /* \"#utility.yul\":691:692   */\n  0x00\n    /* \"#utility.yul\":684:699   */\n  revert\n    /* \"#utility.yul\":548:709   */\ntag_33:\n  pop\n    /* \"#utility.yul\":335:715   */\n  swap2\n  swap1\n  pop\n  jump\t// out\n    /* \"#utility.yul\":846:1391   */\ntag_25:\n    /* \"#utility.yul\":948:950   */\n  0x1f\n    /* \"#utility.yul\":943:946   */\n  dup3\n    /* \"#utility.yul\":940:951   */\n  gt\n    /* \"#utility.yul\":937:1385   */\n  iszero\n  tag_36\n  jumpi\n    /* \"#utility.yul\":984:985   */\n  0x00\n    /* \"#utility.yul\":1009:1014   */\n  dup2\n    /* \"#utility.yul\":1005:1007   */\n  dup2\n    /* \"#utility.yul\":998:1015   */\n  mstore\n    /* \"#utility.yul\":1054:1058   */\n  0x20\n    /* \"#utility.yul\":1050:1052   */\n  dup2\n    /* \"#utility.yul\":1040:1059   */\n  keccak256\n    /* \"#utility.yul\":1124:1126   */\n  0x1f\n    /* \"#utility.yul\":1112:1122   */\n  dup6\n    /* \"#utility.yul\":1108:1127   */\n  add\n    /* \"#utility.yul\":1105:1106   */\n  0x05\n    /* \"#utility.yul\":1101:1128   */\n  shr\n    /* \"#utility.yul\":1095:1099   */\n  dup2\n    /* \"#utility.yul\":1091:1129   */\n  add\n    /* \"#utility.yul\":1160:1164   */\n  0x20\n    /* \"#utility.yul\":1148:1158   */\n  dup7\n    /* \"#utility.yul\":1145:1165   */\n  lt\n    /* \"#utility.yul\":1142:1189   */\n  iszero\n  tag_37\n  jumpi\n  pop\n    /* \"#utility.yul\":1183:1187   */\n  dup1\n    /* \"#utility.yul\":1142:1189   */\ntag_37:\n    /* \"#utility.yul\":1238:1240   */\n  0x1f\n    /* \"#utility.yul\":1233:1236   */\n  dup6\n    /* \"#utility.yul\":1229:1241   */\n  add\n    /* \"#utility.yul\":1226:1227   */\n  0x05\n    /* \"#utility.yul\":1222:1242   */\n  shr\n    /* \"#utility.yul\":1216:1220   */\n  dup3\n    /* \"#utility.yul\":1212:1243   */\n  add\n    /* \"#utility.yul\":1202:1243   */\n  swap2\n  pop\n    /* \"#utility.yul\":1293:1375   */\ntag_38:\n    /* \"#utility.yul\":1311:1313   */\n  dup2\n    /* \"#utility.yul\":1304:1309   */\n  dup2\n    /* \"#utility.yul\":1301:1314   */\n  lt\n    /* \"#utility.yul\":1293:1375   */\n  iszero\n  tag_40\n  jumpi\n    /* \"#utility.yul\":1356:1373   */\n  dup3\n  dup2\n  sstore\n    /* \"#utility.yul\":1337:1338   */\n  0x01\n    /* \"#utility.yul\":1326:1339   */\n  add\n    /* \"#utility.yul\":1293:1375   */\n  jump(tag_38)\ntag_40:\n    /* \"#utility.yul\":1297:1300   */\n  pop\n  pop\n  pop\n    /* \"#utility.yul\":937:1385   */\ntag_36:\n    /* \"#utility.yul\":846:1391   */\n  pop\n  pop\n  pop\n  jump\t// out\n    /* \"#utility.yul\":1567:2919   */\ntag_10:\n    /* \"#utility.yul\":1687:1697   */\n  dup2\n  mload\n  sub(shl(0x40, 0x01), 0x01)\n    /* \"#utility.yul\":1709:1739   */\n  dup2\n  gt\n    /* \"#utility.yul\":1706:1762   */\n  iszero\n  tag_44\n  jumpi\n    /* \"#utility.yul\":1742:1760   */\n  tag_44\n  tag_22\n  jump\t// in\ntag_44:\n    /* \"#utility.yul\":1771:1868   */\n  tag_45\n    /* \"#utility.yul\":1861:1867   */\n  dup2\n    /* \"#utility.yul\":1821:1859   */\n  tag_46\n    /* \"#utility.yul\":1853:1857   */\n  dup5\n    /* \"#utility.yul\":1847:1858   */\n  sload\n    /* \"#utility.yul\":1821:1859   */\n  tag_23\n  jump\t// in\ntag_46:\n    /* \"#utility.yul\":1815:1819   */\n  dup5\n    /* \"#utility.yul\":1771:1868   */\n  tag_25\n  jump\t// in\ntag_45:\n    /* \"#utility.yul\":1923:1927   */\n  0x20\n  dup1\n    /* \"#utility.yul\":1987:1989   */\n  0x1f\n    /* \"#utility.yul\":1976:1990   */\n  dup4\n  gt\n    /* \"#utility.yul\":2004:2005   */\n  0x01\n    /* \"#utility.yul\":1999:2662   */\n  dup2\n  eq\n  tag_48\n  jumpi\n    /* \"#utility.yul\":2706:2707   */\n  0x00\n    /* \"#utility.yul\":2723:2729   */\n  dup5\n    /* \"#utility.yul\":2720:2809   */\n  iszero\n  tag_49\n  jumpi\n  pop\n    /* \"#utility.yul\":2775:2794   */\n  dup6\n  dup4\n  add\n    /* \"#utility.yul\":2769:2795   */\n  mload\n    /* \"#utility.yul\":2720:2809   */\ntag_49:\n  not(0x00)\n    /* \"#utility.yul\":1524:1525   */\n  0x03\n    /* \"#utility.yul\":1520:1531   */\n  dup7\n  swap1\n  shl\n    /* \"#utility.yul\":1516:1540   */\n  shr\n    /* \"#utility.yul\":1512:1541   */\n  not\n    /* \"#utility.yul\":1502:1542   */\n  and\n    /* \"#utility.yul\":1548:1549   */\n  0x01\n    /* \"#utility.yul\":1544:1555   */\n  dup6\n  swap1\n  shl\n    /* \"#utility.yul\":1499:1556   */\n  or\n    /* \"#utility.yul\":2822:2903   */\n  dup6\n  sstore\n    /* \"#utility.yul\":1969:2913   */\n  jump(tag_40)\n    /* \"#utility.yul\":1999:2662   */\ntag_48:\n    /* \"#utility.yul\":793:794   */\n  0x00\n    /* \"#utility.yul\":786:800   */\n  dup6\n  dup2\n  mstore\n    /* \"#utility.yul\":830:834   */\n  0x20\n    /* \"#utility.yul\":817:835   */\n  dup2\n  keccak256\n  not(0x1f)\n    /* \"#utility.yul\":2035:2055   */\n  dup7\n  and\n  swap2\n    /* \"#utility.yul\":2153:2389   */\ntag_52:\n    /* \"#utility.yul\":2167:2174   */\n  dup3\n    /* \"#utility.yul\":2164:2165   */\n  dup2\n    /* \"#utility.yul\":2161:2175   */\n  lt\n    /* \"#utility.yul\":2153:2389   */\n  iszero\n  tag_54\n  jumpi\n    /* \"#utility.yul\":2256:2275   */\n  dup9\n  dup7\n  add\n    /* \"#utility.yul\":2250:2276   */\n  mload\n    /* \"#utility.yul\":2235:2277   */\n  dup3\n  sstore\n    /* \"#utility.yul\":2348:2375   */\n  swap5\n  dup5\n  add\n  swap5\n    /* \"#utility.yul\":2316:2317   */\n  0x01\n    /* \"#utility.yul\":2304:2318   */\n  swap1\n  swap2\n  add\n  swap1\n    /* \"#utility.yul\":2183:2202   */\n  dup5\n  add\n    /* \"#utility.yul\":2153:2389   */\n  jump(tag_52)\ntag_54:\n    /* \"#utility.yul\":2157:2160   */\n  pop\n    /* \"#utility.yul\":2417:2423   */\n  dup6\n    /* \"#utility.yul\":2408:2415   */\n  dup3\n    /* \"#utility.yul\":2405:2424   */\n  lt\n    /* \"#utility.yul\":2402:2603   */\n  iszero\n  tag_55\n  jumpi\n    /* \"#utility.yul\":2478:2497   */\n  dup8\n  dup6\n  add\n    /* \"#utility.yul\":2472:2498   */\n  mload\n  not(0x00)\n    /* \"#utility.yul\":2561:2562   */\n  0x03\n    /* \"#utility.yul\":2557:2571   */\n  dup9\n  swap1\n  shl\n    /* \"#utility.yul\":2573:2576   */\n  0xf8\n    /* \"#utility.yul\":2553:2577   */\n  and\n    /* \"#utility.yul\":2549:2586   */\n  shr\n    /* \"#utility.yul\":2545:2587   */\n  not\n    /* \"#utility.yul\":2530:2588   */\n  and\n    /* \"#utility.yul\":2515:2589   */\n  dup2\n  sstore\n    /* \"#utility.yul\":2402:2603   */\ntag_55:\n  pop\n  pop\n  pop\n  pop\n  pop\n    /* \"#utility.yul\":2649:2650   */\n  0x01\n    /* \"#utility.yul\":2633:2647   */\n  swap1\n  dup2\n  shl\n    /* \"#utility.yul\":2629:2651   */\n  add\n    /* \"#utility.yul\":2616:2652   */\n  swap1\n  sstore\n  pop\n    /* \"#utility.yul\":1567:2919   */\n  jump\t// out\n    /* \"#utility.yul\":2924:3127   */\ntag_27:\n    /* \"LockableNFT.sol\":233:4432  contract LockableNFT is ERC721, Ownable, ReentrancyGuard {... */\n  dataSize(sub_0)\n  dup1\n  dataOffset(sub_0)\n  0x00\n  codecopy\n  0x00\n  return\nstop\n\nsub_0: assembly {\n        /* \"LockableNFT.sol\":233:4432  contract LockableNFT is ERC721, Ownable, ReentrancyGuard {... */\n      mstore(0x40, 0x80)\n      jumpi(tag_1, lt(calldatasize, 0x04))\n      shr(0xe0, calldataload(0x00))\n      dup1\n      0x70a08231\n      gt\n      tag_25\n      jumpi\n      dup1\n      0xc002d23d\n      gt\n      tag_26\n      jumpi\n      dup1\n      0xc002d23d\n      eq\n      tag_19\n      jumpi\n      dup1\n      0xc3641e9f\n      eq\n      tag_20\n      jumpi\n      dup1\n      0xc87b56dd\n      eq\n      tag_21\n      jumpi\n      dup1\n      0xe985e9c5\n      eq\n      tag_22\n      jumpi\n      dup1\n      0xf2fde38b\n      eq\n      tag_23\n      jumpi\n      dup1\n      0xf4a0a528\n      eq\n      tag_24\n      jumpi\n      0x00\n      dup1\n      revert\n    tag_26:\n      dup1\n      0x70a08231\n      eq\n      tag_13\n      jumpi\n      dup1\n      0x715018a6\n      eq\n      tag_14\n      jumpi\n      dup1\n      0x8da5cb5b\n      eq\n      tag_15\n      jumpi\n      dup1\n      0x95d89b41\n      eq\n      tag_16\n      jumpi\n      dup1\n      0xa22cb465\n      eq\n      tag_17\n      jumpi\n      dup1\n      0xb88d4fde\n      eq\n      tag_18\n      jumpi\n      0x00\n      dup1\n      revert\n    tag_25:\n      dup1\n      0x235ac0f1\n      gt\n      tag_27\n      jumpi\n      dup1\n      0x235ac0f1\n      eq\n      tag_7\n      jumpi\n      dup1\n      0x23b872dd\n      eq\n      tag_8\n      jumpi\n      dup1\n      0x42842e0e\n      eq\n      tag_9\n      jumpi\n      dup1\n      0x42966c68\n      eq\n      tag_10\n      jumpi\n      dup1\n      0x5915c0dd\n      eq\n      tag_11\n      jumpi\n      dup1\n      0x6352211e\n      eq\n      tag_12\n      jumpi\n      0x00\n      dup1\n      revert\n    tag_27:\n      dup1\n      0x01ffc9a7\n      eq\n      tag_2\n      jumpi\n      dup1\n      0x06fdde03\n      eq\n      tag_3\n      jumpi\n      dup1\n      0x081812fc\n      eq\n      tag_4\n      jumpi\n      dup1\n      0x095ea7b3\n      eq\n      tag_5\n      jumpi\n      dup1\n      0x1249c58b\n      eq\n      tag_6\n      jumpi\n    tag_1:\n      0x00\n      dup1\n      revert\n        /* \"LockableNFT.sol\":4257:4430  function supportsInterface(... */\n    tag_2:\n      callvalue\n      dup1\n      iszero\n      tag_28\n      jumpi\n      0x00\n      dup1\n      revert\n    tag_28:\n      pop\n      tag_29\n      tag_30\n      calldatasize\n      0x04\n      tag_31\n      jump\t// in\n    tag_30:\n      tag_32\n      jump\t// in\n    tag_29:\n      mload(0x40)\n        /* \"#utility.yul\":565:579   */\n      swap1\n      iszero\n        /* \"#utility.yul\":558:580   */\n      iszero\n        /* \"#utility.yul\":540:581   */\n      dup2\n      mstore\n        /* \"#utility.yul\":528:530   */\n      0x20\n        /* \"#utility.yul\":513:531   */\n      add\n        /* \"LockableNFT.sol\":4257:4430  function supportsInterface(... */\n    tag_33:\n      mload(0x40)\n      dup1\n      swap2\n      sub\n      swap1\n      return\n        /* \"@openzeppelin/contracts/token/ERC721/ERC721.sol\":2364:2453  function name() public view virtual returns (string memory) {... */\n    tag_3:\n      callvalue\n      dup1\n      iszero\n      tag_35\n      jumpi\n      0x00\n      dup1\n      revert\n    tag_35:\n      pop\n      tag_36\n      tag_37\n      jump\t// in\n    tag_36:\n      mload(0x40)\n      tag_33\n      swap2\n      swap1\n      tag_39\n      jump\t// in\n        /* \"@openzeppelin/contracts/token/ERC721/ERC721.sol\":3496:3650  function getApproved(uint256 tokenId) public view virtual returns (address) {... */\n    tag_4:\n      callvalue\n      dup1\n      iszero\n      tag_40\n      jumpi\n      0x00\n      dup1\n      revert\n    tag_40:\n      pop\n      tag_41\n      tag_42\n      calldatasize\n      0x04\n      tag_43\n      jump\t// in\n    tag_42:\n      tag_44\n      jump\t// in\n    tag_41:\n      mload(0x40)\n      sub(shl(0xa0, 0x01), 0x01)\n        /* \"#utility.yul\":1697:1729   */\n      swap1\n      swap2\n      and\n        /* \"#utility.yul\":1679:1730   */\n      dup2\n      mstore\n        /* \"#utility.yul\":1667:1669   */\n      0x20\n        /* \"#utility.yul\":1652:1670   */\n      add\n        /* \"@openzeppelin/contracts/token/ERC721/ERC721.sol\":3496:3650  function getApproved(uint256 tokenId) public view virtual returns (address) {... */\n      tag_33\n        /* \"#utility.yul\":1533:1736   */\n      jump\n        /* \"@openzeppelin/contracts/token/ERC721/ERC721.sol\":3322:3435  function approve(address to, uint256 tokenId) public virtual {... */\n    tag_5:\n      callvalue\n      dup1\n      iszero\n      tag_47\n      jumpi\n      0x00\n      dup1\n      revert\n    tag_47:\n      pop\n      tag_48\n      tag_49\n      calldatasize\n      0x04\n      tag_50\n      jump\t// in\n    tag_49:\n      tag_51\n      jump\t// in\n    tag_48:\n      stop\n        /* \"LockableNFT.sol\":1182:1797  function mint() external payable nonReentrant {... */\n    tag_6:\n      tag_48\n      tag_53\n      jump\t// in\n        /* \"LockableNFT.sol\":3044:3178  function getLockedEthForNft(... */\n    tag_7:\n      callvalue\n      dup1\n      iszero\n      tag_54\n      jumpi\n      0x00\n      dup1\n      revert\n    tag_54:\n      pop\n      tag_55\n      tag_56\n      calldatasize\n      0x04\n      tag_43\n      jump\t// in\n    tag_56:\n        /* \"LockableNFT.sol\":3126:3133  uint256 */\n      0x00\n        /* \"LockableNFT.sol\":3152:3171  _lockedEth[tokenId] */\n      swap1\n      dup2\n      mstore\n        /* \"LockableNFT.sol\":3152:3162  _lockedEth */\n      0x0a\n        /* \"LockableNFT.sol\":3152:3171  _lockedEth[tokenId] */\n      0x20\n      mstore\n      0x40\n      swap1\n      keccak256\n      sload\n      swap1\n        /* \"LockableNFT.sol\":3044:3178  function getLockedEthForNft(... */\n      jump\n    tag_55:\n      mload(0x40)\n        /* \"#utility.yul\":2324:2349   */\n      swap1\n      dup2\n      mstore\n        /* \"#utility.yul\":2312:2314   */\n      0x20\n        /* \"#utility.yul\":2297:2315   */\n      add\n        /* \"LockableNFT.sol\":3044:3178  function getLockedEthForNft(... */\n      tag_33\n        /* \"#utility.yul\":2178:2355   */\n      jump\n        /* \"@openzeppelin/contracts/token/ERC721/ERC721.sol\":4142:4720  function transferFrom(address from, address to, uint256 tokenId) public virtual {... */\n    tag_8:\n      callvalue\n      dup1\n      iszero\n      tag_60\n      jumpi\n      0x00\n      dup1\n      revert\n    tag_60:\n      pop\n      tag_48\n      tag_62\n      calldatasize\n      0x04\n      tag_63\n      jump\t// in\n    tag_62:\n      tag_64\n      jump\t// in\n        /* \"@openzeppelin/contracts/token/ERC721/ERC721.sol\":4786:4918  function safeTransferFrom(address from, address to, uint256 tokenId) public {... */\n    tag_9:\n      callvalue\n      dup1\n      iszero\n      tag_65\n      jumpi\n      0x00\n      dup1\n      revert\n    tag_65:\n      pop\n      tag_48\n      tag_67\n      calldatasize\n      0x04\n      tag_63\n      jump\t// in\n    tag_67:\n      tag_68\n      jump\t// in\n        /* \"LockableNFT.sol\":1929:2620  function burn(uint256 tokenId) external nonReentrant {... */\n    tag_10:\n      callvalue\n      dup1\n      iszero\n      tag_69\n      jumpi\n      0x00\n      dup1\n      revert\n    tag_69:\n      pop\n      tag_48\n      tag_71\n      calldatasize\n      0x04\n      tag_43\n      jump\t// in\n    tag_71:\n      tag_72\n      jump\t// in\n        /* \"LockableNFT.sol\":3946:4181  function getTotalLockedEth() public view returns (uint256) {... */\n    tag_11:\n      callvalue\n      dup1\n      iszero\n      tag_73\n      jumpi\n      0x00\n      dup1\n      revert\n    tag_73:\n      pop\n      tag_55\n      tag_75\n      jump\t// in\n        /* \"@openzeppelin/contracts/token/ERC721/ERC721.sol\":2184:2302  function ownerOf(uint256 tokenId) public view virtual returns (address) {... */\n    tag_12:\n      callvalue\n      dup1\n      iszero\n      tag_77\n      jumpi\n      0x00\n      dup1\n      revert\n    tag_77:\n      pop\n      tag_41\n      tag_79\n      calldatasize\n      0x04\n      tag_43\n      jump\t// in\n    tag_79:\n      tag_80\n      jump\t// in\n        /* \"@openzeppelin/contracts/token/ERC721/ERC721.sol\":1919:2127  function balanceOf(address owner) public view virtual returns (uint256) {... */\n    tag_13:\n      callvalue\n      dup1\n      iszero\n      tag_82\n      jumpi\n      0x00\n      dup1\n      revert\n    tag_82:\n      pop\n      tag_55\n      tag_84\n      calldatasize\n      0x04\n      tag_85\n      jump\t// in\n    tag_84:\n      tag_86\n      jump\t// in\n        /* \"@openzeppelin/contracts/access/Ownable.sol\":2293:2394  function renounceOwnership() public virtual onlyOwner {... */\n    tag_14:\n      callvalue\n      dup1\n      iszero\n      tag_88\n      jumpi\n      0x00\n      dup1\n      revert\n    tag_88:\n      pop\n      tag_48\n      tag_90\n      jump\t// in\n        /* \"@openzeppelin/contracts/access/Ownable.sol\":1638:1723  function owner() public view virtual returns (address) {... */\n    tag_15:\n      callvalue\n      dup1\n      iszero\n      tag_91\n      jumpi\n      0x00\n      dup1\n      revert\n    tag_91:\n      pop\n        /* \"@openzeppelin/contracts/access/Ownable.sol\":1710:1716  _owner */\n      and(sub(shl(0xa0, 0x01), 0x01), sload(0x06))\n        /* \"@openzeppelin/contracts/access/Ownable.sol\":1638:1723  function owner() public view virtual returns (address) {... */\n      jump(tag_41)\n        /* \"@openzeppelin/contracts/token/ERC721/ERC721.sol\":2517:2610  function symbol() public view virtual returns (string memory) {... */\n    tag_16:\n      callvalue\n      dup1\n      iszero\n      tag_95\n      jumpi\n      0x00\n      dup1\n      revert\n    tag_95:\n      pop\n      tag_36\n      tag_97\n      jump\t// in\n        /* \"@openzeppelin/contracts/token/ERC721/ERC721.sol\":3717:3861  function setApprovalForAll(address operator, bool approved) public virtual {... */\n    tag_17:\n      callvalue\n      dup1\n      iszero\n      tag_99\n      jumpi\n      0x00\n      dup1\n      revert\n    tag_99:\n      pop\n      tag_48\n      tag_101\n      calldatasize\n      0x04\n      tag_102\n      jump\t// in\n    tag_101:\n      tag_103\n      jump\t// in\n        /* \"@openzeppelin/contracts/token/ERC721/ERC721.sol\":4984:5217  function safeTransferFrom(address from, address to, uint256 tokenId, bytes memory data) public virtual {... */\n    tag_18:\n      callvalue\n      dup1\n      iszero\n      tag_104\n      jumpi\n      0x00\n      dup1\n      revert\n    tag_104:\n      pop\n      tag_48\n      tag_106\n      calldatasize\n      0x04\n      tag_107\n      jump\t// in\n    tag_106:\n      tag_108\n      jump\t// in\n        /* \"LockableNFT.sol\":364:389  uint256 public MINT_PRICE */\n    tag_19:\n      callvalue\n      dup1\n      iszero\n      tag_109\n      jumpi\n      0x00\n      dup1\n      revert\n    tag_109:\n      pop\n      tag_55\n      sload(0x09)\n      dup2\n      jump\n        /* \"LockableNFT.sol\":3301:3439  function getMintedNftId(... */\n    tag_20:\n      callvalue\n      dup1\n      iszero\n      tag_113\n      jumpi\n      0x00\n      dup1\n      revert\n    tag_113:\n      pop\n      tag_114\n      tag_115\n      calldatasize\n      0x04\n      tag_85\n      jump\t// in\n    tag_115:\n      tag_116\n      jump\t// in\n    tag_114:\n      mload(0x40)\n      tag_33\n      swap2\n      swap1\n      tag_118\n      jump\t// in\n        /* \"@openzeppelin/contracts/token/ERC721/ERC721.sol\":2676:2931  function tokenURI(uint256 tokenId) public view virtual returns (string memory) {... */\n    tag_21:\n      callvalue\n      dup1\n      iszero\n      tag_119\n      jumpi\n      0x00\n      dup1\n      revert\n    tag_119:\n      pop\n      tag_36\n      tag_121\n      calldatasize\n      0x04\n      tag_43\n      jump\t// in\n    tag_121:\n      tag_122\n      jump\t// in\n        /* \"@openzeppelin/contracts/token/ERC721/ERC721.sol\":3927:4080  function isApprovedForAll(address owner, address operator) public view virtual returns (bool) {... */\n    tag_22:\n      callvalue\n      dup1\n      iszero\n      tag_124\n      jumpi\n      0x00\n      dup1\n      revert\n    tag_124:\n      pop\n      tag_29\n      tag_126\n      calldatasize\n      0x04\n      tag_127\n      jump\t// in\n    tag_126:\n      tag_128\n      jump\t// in\n        /* \"@openzeppelin/contracts/access/Ownable.sol\":2543:2758  function transferOwnership(address newOwner) public virtual onlyOwner {... */\n    tag_23:\n      callvalue\n      dup1\n      iszero\n      tag_130\n      jumpi\n      0x00\n      dup1\n      revert\n    tag_130:\n      pop\n      tag_48\n      tag_132\n      calldatasize\n      0x04\n      tag_85\n      jump\t// in\n    tag_132:\n      tag_133\n      jump\t// in\n        /* \"LockableNFT.sol\":2726:2933  function setMintPrice(uint256 newPrice) external onlyOwner {... */\n    tag_24:\n      callvalue\n      dup1\n      iszero\n      tag_134\n      jumpi\n      0x00\n      dup1\n      revert\n    tag_134:\n      pop\n      tag_48\n      tag_136\n      calldatasize\n      0x04\n      tag_43\n      jump\t// in\n    tag_136:\n      tag_137\n      jump\t// in\n        /* \"LockableNFT.sol\":4257:4430  function supportsInterface(... */\n    tag_32:\n        /* \"LockableNFT.sol\":4364:4368  bool */\n      0x00\n        /* \"LockableNFT.sol\":4387:4423  super.supportsInterface(interfaceId) */\n      tag_139\n        /* \"LockableNFT.sol\":4411:4422  interfaceId */\n      dup3\n        /* \"LockableNFT.sol\":4387:4410  super.supportsInterface */\n      tag_140\n        /* \"LockableNFT.sol\":4387:4423  super.supportsInterface(interfaceId) */\n      jump\t// in\n    tag_139:\n        /* \"LockableNFT.sol\":4380:4423  return super.supportsInterface(interfaceId) */\n      swap3\n        /* \"LockableNFT.sol\":4257:4430  function supportsInterface(... */\n      swap2\n      pop\n      pop\n      jump\t// out\n        /* \"@openzeppelin/contracts/token/ERC721/ERC721.sol\":2364:2453  function name() public view virtual returns (string memory) {... */\n    tag_37:\n        /* \"@openzeppelin/contracts/token/ERC721/ERC721.sol\":2409:2422  string memory */\n      0x60\n        /* \"@openzeppelin/contracts/token/ERC721/ERC721.sol\":2441:2446  _name */\n      0x00\n        /* \"@openzeppelin/contracts/token/ERC721/ERC721.sol\":2434:2446  return _name */\n      dup1\n      sload\n      tag_142\n      swap1\n      tag_143\n      jump\t// in\n    tag_142:\n      dup1\n      0x1f\n      add\n      0x20\n      dup1\n      swap2\n      div\n      mul\n      0x20\n      add\n      mload(0x40)\n      swap1\n      dup2\n      add\n      0x40\n      mstore\n      dup1\n      swap3\n      swap2\n      swap1\n      dup2\n      dup2\n      mstore\n      0x20\n      add\n      dup3\n      dup1\n      sload\n      tag_144\n      swap1\n      tag_143\n      jump\t// in\n    tag_144:\n      dup1\n      iszero\n      tag_145\n      jumpi\n      dup1\n      0x1f\n      lt\n      tag_146\n      jumpi\n      0x0100\n      dup1\n      dup4\n      sload\n      div\n      mul\n      dup4\n      mstore\n      swap2\n      0x20\n      add\n      swap2\n      jump(tag_145)\n    tag_146:\n      dup3\n      add\n      swap2\n      swap1\n      0x00\n      mstore\n      keccak256(0x00, 0x20)\n      swap1\n    tag_147:\n      dup2\n      sload\n      dup2\n      mstore\n      swap1\n      0x01\n      add\n      swap1\n      0x20\n      add\n      dup1\n      dup4\n      gt\n      tag_147\n      jumpi\n      dup3\n      swap1\n      sub\n      0x1f\n      and\n      dup3\n      add\n      swap2\n    tag_145:\n      pop\n      pop\n      pop\n      pop\n      pop\n      swap1\n      pop\n        /* \"@openzeppelin/contracts/token/ERC721/ERC721.sol\":2364:2453  function name() public view virtual returns (string memory) {... */\n      swap1\n      jump\t// out\n        /* \"@openzeppelin/contracts/token/ERC721/ERC721.sol\":3496:3650  function getApproved(uint256 tokenId) public view virtual returns (address) {... */\n    tag_44:\n        /* \"@openzeppelin/contracts/token/ERC721/ERC721.sol\":3563:3570  address */\n      0x00\n        /* \"@openzeppelin/contracts/token/ERC721/ERC721.sol\":3582:3604  _requireOwned(tokenId) */\n      tag_149\n        /* \"@openzeppelin/contracts/token/ERC721/ERC721.sol\":3596:3603  tokenId */\n      dup3\n        /* \"@openzeppelin/contracts/token/ERC721/ERC721.sol\":3582:3595  _requireOwned */\n      tag_150\n        /* \"@openzeppelin/contracts/token/ERC721/ERC721.sol\":3582:3604  _requireOwned(tokenId) */\n      jump\t// in\n    tag_149:\n      pop\n        /* \"@openzeppelin/contracts/token/ERC721/ERC721.sol\":6033:6040  address */\n      0x00\n        /* \"@openzeppelin/contracts/token/ERC721/ERC721.sol\":6059:6083  _tokenApprovals[tokenId] */\n      dup3\n      dup2\n      mstore\n        /* \"@openzeppelin/contracts/token/ERC721/ERC721.sol\":6059:6074  _tokenApprovals */\n      0x04\n        /* \"@openzeppelin/contracts/token/ERC721/ERC721.sol\":6059:6083  _tokenApprovals[tokenId] */\n      0x20\n      mstore\n      0x40\n      swap1\n      keccak256\n      sload\n      sub(shl(0xa0, 0x01), 0x01)\n      and\n        /* \"@openzeppelin/contracts/token/ERC721/ERC721.sol\":3622:3643  _getApproved(tokenId) */\n      tag_139\n        /* \"@openzeppelin/contracts/token/ERC721/ERC721.sol\":5963:6090  function _getApproved(uint256 tokenId) internal view virtual returns (address) {... */\n      jump\n        /* \"@openzeppelin/contracts/token/ERC721/ERC721.sol\":3322:3435  function approve(address to, uint256 tokenId) public virtual {... */\n    tag_51:\n        /* \"@openzeppelin/contracts/token/ERC721/ERC721.sol\":3393:3428  _approve(to, tokenId, _msgSender()) */\n      tag_154\n        /* \"@openzeppelin/contracts/token/ERC721/ERC721.sol\":3402:3404  to */\n      dup3\n        /* \"@openzeppelin/contracts/token/ERC721/ERC721.sol\":3406:3413  tokenId */\n      dup3\n        /* \"@openzeppelin/contracts/utils/Context.sol\":735:745  msg.sender */\n      caller\n        /* \"@openzeppelin/contracts/token/ERC721/ERC721.sol\":3393:3401  _approve */\n      tag_157\n        /* \"@openzeppelin/contracts/token/ERC721/ERC721.sol\":3393:3428  _approve(to, tokenId, _msgSender()) */\n      jump\t// in\n    tag_154:\n        /* \"@openzeppelin/contracts/token/ERC721/ERC721.sol\":3322:3435  function approve(address to, uint256 tokenId) public virtual {... */\n      pop\n      pop\n      jump\t// out\n        /* \"LockableNFT.sol\":1182:1797  function mint() external payable nonReentrant {... */\n    tag_53:\n        /* \"@openzeppelin/contracts/security/ReentrancyGuard.sol\":2261:2282  _nonReentrantBefore() */\n      tag_159\n        /* \"@openzeppelin/contracts/security/ReentrancyGuard.sol\":2261:2280  _nonReentrantBefore */\n      tag_160\n        /* \"@openzeppelin/contracts/security/ReentrancyGuard.sol\":2261:2282  _nonReentrantBefore() */\n      jump\t// in\n    tag_159:\n        /* \"LockableNFT.sol\":1259:1269  MINT_PRICE */\n      sload(0x09)\n        /* \"LockableNFT.sol\":1246:1255  msg.value */\n      callvalue\n        /* \"LockableNFT.sol\":1246:1269  msg.value == MINT_PRICE */\n      eq\n        /* \"LockableNFT.sol\":1238:1308  require(msg.value == MINT_PRICE, \"Mint price must be exactly 0.1 ETH\") */\n      tag_162\n      jumpi\n      mload(0x40)\n      shl(0xe5, 0x461bcd)\n      dup2\n      mstore\n        /* \"#utility.yul\":6000:6002   */\n      0x20\n        /* \"LockableNFT.sol\":1238:1308  require(msg.value == MINT_PRICE, \"Mint price must be exactly 0.1 ETH\") */\n      0x04\n      dup3\n      add\n        /* \"#utility.yul\":5982:6003   */\n      mstore\n        /* \"#utility.yul\":6039:6041   */\n      0x22\n        /* \"#utility.yul\":6019:6037   */\n      0x24\n      dup3\n      add\n        /* \"#utility.yul\":6012:6042   */\n      mstore\n        /* \"#utility.yul\":6078:6112   */\n      0x4d696e74207072696365206d7573742062652065786163746c7920302e312045\n        /* \"#utility.yul\":6058:6076   */\n      0x44\n      dup3\n      add\n        /* \"#utility.yul\":6051:6113   */\n      mstore\n      shl(0xf3, 0x0a89)\n        /* \"#utility.yul\":6129:6147   */\n      0x64\n      dup3\n      add\n        /* \"#utility.yul\":6122:6154   */\n      mstore\n        /* \"#utility.yul\":6171:6190   */\n      0x84\n      add\n        /* \"LockableNFT.sol\":1238:1308  require(msg.value == MINT_PRICE, \"Mint price must be exactly 0.1 ETH\") */\n    tag_163:\n      mload(0x40)\n      dup1\n      swap2\n      sub\n      swap1\n      revert\n    tag_162:\n        /* \"LockableNFT.sol\":1339:1354  _tokenIdCounter */\n      0x08\n      dup1\n      sload\n      swap1\n      dup2\n      swap1\n        /* \"LockableNFT.sol\":1318:1336  uint256 newTokenId */\n      0x00\n        /* \"LockableNFT.sol\":1364:1381  _tokenIdCounter++ */\n      tag_165\n        /* \"LockableNFT.sol\":1339:1354  _tokenIdCounter */\n      dup4\n        /* \"LockableNFT.sol\":1364:1381  _tokenIdCounter++ */\n      tag_166\n      jump\t// in\n    tag_165:\n      swap1\n      swap2\n      sstore\n      pop\n      pop\n        /* \"LockableNFT.sol\":1464:1486  _lockedEth[newTokenId] */\n      0x00\n      dup2\n      dup2\n      mstore\n        /* \"LockableNFT.sol\":1464:1474  _lockedEth */\n      0x0a\n        /* \"LockableNFT.sol\":1464:1486  _lockedEth[newTokenId] */\n      0x20\n      mstore\n      0x40\n      swap1\n      keccak256\n      sload\n        /* \"LockableNFT.sol\":1464:1491  _lockedEth[newTokenId] == 0 */\n      iszero\n        /* \"LockableNFT.sol\":1456:1527  require(_lockedEth[newTokenId] == 0, \"Token ID already has locked ETH\") */\n      tag_167\n      jumpi\n      mload(0x40)\n      shl(0xe5, 0x461bcd)\n      dup2\n      mstore\n        /* \"#utility.yul\":6675:6677   */\n      0x20\n        /* \"LockableNFT.sol\":1456:1527  require(_lockedEth[newTokenId] == 0, \"Token ID already has locked ETH\") */\n      0x04\n      dup3\n      add\n        /* \"#utility.yul\":6657:6678   */\n      mstore\n        /* \"#utility.yul\":6714:6716   */\n      0x1f\n        /* \"#utility.yul\":6694:6712   */\n      0x24\n      dup3\n      add\n        /* \"#utility.yul\":6687:6717   */\n      mstore\n        /* \"#utility.yul\":6753:6786   */\n      0x546f6b656e20494420616c726561647920686173206c6f636b65642045544800\n        /* \"#utility.yul\":6733:6751   */\n      0x44\n      dup3\n      add\n        /* \"#utility.yul\":6726:6787   */\n      mstore\n        /* \"#utility.yul\":6804:6822   */\n      0x64\n      add\n        /* \"LockableNFT.sol\":1456:1527  require(_lockedEth[newTokenId] == 0, \"Token ID already has locked ETH\") */\n      tag_163\n        /* \"#utility.yul\":6473:6828   */\n      jump\n        /* \"LockableNFT.sol\":1456:1527  require(_lockedEth[newTokenId] == 0, \"Token ID already has locked ETH\") */\n    tag_167:\n        /* \"LockableNFT.sol\":1537:1559  _lockedEth[newTokenId] */\n      0x00\n      dup2\n      dup2\n      mstore\n        /* \"LockableNFT.sol\":1537:1547  _lockedEth */\n      0x0a\n        /* \"LockableNFT.sol\":1537:1559  _lockedEth[newTokenId] */\n      0x20\n      mstore\n      0x40\n      swap1\n      keccak256\n        /* \"LockableNFT.sol\":1562:1571  msg.value */\n      callvalue\n        /* \"LockableNFT.sol\":1537:1571  _lockedEth[newTokenId] = msg.value */\n      swap1\n      sstore\n        /* \"LockableNFT.sol\":1581:1614  _safeMint(msg.sender, newTokenId) */\n      tag_170\n        /* \"LockableNFT.sol\":1591:1601  msg.sender */\n      caller\n        /* \"LockableNFT.sol\":1548:1558  newTokenId */\n      dup3\n        /* \"LockableNFT.sol\":1581:1590  _safeMint */\n      tag_171\n        /* \"LockableNFT.sol\":1581:1614  _safeMint(msg.sender, newTokenId) */\n      jump\t// in\n    tag_170:\n        /* \"LockableNFT.sol\":1638:1648  msg.sender */\n      caller\n        /* \"LockableNFT.sol\":1624:1649  _mintedTokens[msg.sender] */\n      0x00\n      dup2\n      dup2\n      mstore\n        /* \"LockableNFT.sol\":1624:1637  _mintedTokens */\n      0x0b\n        /* \"LockableNFT.sol\":1624:1649  _mintedTokens[msg.sender] */\n      0x20\n      swap1\n      dup2\n      mstore\n      0x40\n      dup1\n      dup4\n      keccak256\n        /* \"LockableNFT.sol\":1624:1666  _mintedTokens[msg.sender].push(newTokenId) */\n      dup1\n      sload\n      0x01\n      dup2\n      add\n      dup3\n      sstore\n      swap1\n      dup5\n      mstore\n      swap2\n      swap1\n      swap3\n      keccak256\n      add\n      dup4\n      swap1\n      sstore\n        /* \"LockableNFT.sol\":1724:1765  Minted(msg.sender, newTokenId, msg.value) */\n      mload\n        /* \"LockableNFT.sol\":1655:1665  newTokenId */\n      dup3\n      swap2\n        /* \"LockableNFT.sol\":1638:1648  msg.sender */\n      swap1\n        /* \"LockableNFT.sol\":1724:1765  Minted(msg.sender, newTokenId, msg.value) */\n      0x25b428dfde728ccfaddad7e29e4ac23c24ed7fd1a6e3e3f91894a9a073f5dfff\n      swap1\n      tag_173\n      swap1\n        /* \"LockableNFT.sol\":1755:1764  msg.value */\n      callvalue\n        /* \"#utility.yul\":2324:2349   */\n      dup2\n      mstore\n        /* \"#utility.yul\":2312:2314   */\n      0x20\n        /* \"#utility.yul\":2297:2315   */\n      add\n      swap1\n        /* \"#utility.yul\":2178:2355   */\n      jump\n        /* \"LockableNFT.sol\":1724:1765  Minted(msg.sender, newTokenId, msg.value) */\n    tag_173:\n      mload(0x40)\n      dup1\n      swap2\n      sub\n      swap1\n      log3\n        /* \"LockableNFT.sol\":1228:1797  {... */\n      pop\n        /* \"@openzeppelin/contracts/security/ReentrancyGuard.sol\":2303:2323  _nonReentrantAfter() */\n      tag_174\n        /* \"@openzeppelin/contracts/security/ReentrancyGuard.sol\":1716:1717  1 */\n      0x01\n        /* \"@openzeppelin/contracts/security/ReentrancyGuard.sol\":2809:2816  _status */\n      0x07\n        /* \"@openzeppelin/contracts/security/ReentrancyGuard.sol\":2809:2831  _status = _NOT_ENTERED */\n      sstore\n        /* \"@openzeppelin/contracts/security/ReentrancyGuard.sol\":2629:2838  function _nonReentrantAfter() private {... */\n      jump\n        /* \"@openzeppelin/contracts/security/ReentrancyGuard.sol\":2303:2323  _nonReentrantAfter() */\n    tag_174:\n        /* \"LockableNFT.sol\":1182:1797  function mint() external payable nonReentrant {... */\n      jump\t// out\n        /* \"@openzeppelin/contracts/token/ERC721/ERC721.sol\":4142:4720  function transferFrom(address from, address to, uint256 tokenId) public virtual {... */\n    tag_64:\n      sub(shl(0xa0, 0x01), 0x01)\n        /* \"@openzeppelin/contracts/token/ERC721/ERC721.sol\":4236:4252  to == address(0) */\n      dup3\n      and\n        /* \"@openzeppelin/contracts/token/ERC721/ERC721.sol\":4232:4319  if (to == address(0)) {... */\n      tag_178\n      jumpi\n        /* \"@openzeppelin/contracts/token/ERC721/ERC721.sol\":4275:4308  ERC721InvalidReceiver(address(0)) */\n      mload(0x40)\n      shl(0xe1, 0x32505749)\n      dup2\n      mstore\n        /* \"@openzeppelin/contracts/token/ERC721/ERC721.sol\":4305:4306  0 */\n      0x00\n        /* \"@openzeppelin/contracts/token/ERC721/ERC721.sol\":4275:4308  ERC721InvalidReceiver(address(0)) */\n      0x04\n      dup3\n      add\n        /* \"#utility.yul\":1679:1730   */\n      mstore\n        /* \"#utility.yul\":1652:1670   */\n      0x24\n      add\n        /* \"@openzeppelin/contracts/token/ERC721/ERC721.sol\":4275:4308  ERC721InvalidReceiver(address(0)) */\n      tag_163\n        /* \"#utility.yul\":1533:1736   */\n      jump\n        /* \"@openzeppelin/contracts/token/ERC721/ERC721.sol\":4232:4319  if (to == address(0)) {... */\n    tag_178:\n        /* \"@openzeppelin/contracts/token/ERC721/ERC721.sol\":4537:4558  address previousOwner */\n      0x00\n        /* \"@openzeppelin/contracts/token/ERC721/ERC721.sol\":4561:4595  _update(to, tokenId, _msgSender()) */\n      tag_180\n        /* \"@openzeppelin/contracts/token/ERC721/ERC721.sol\":4569:4571  to */\n      dup4\n        /* \"@openzeppelin/contracts/token/ERC721/ERC721.sol\":4573:4580  tokenId */\n      dup4\n        /* \"@openzeppelin/contracts/utils/Context.sol\":735:745  msg.sender */\n      caller\n        /* \"@openzeppelin/contracts/token/ERC721/ERC721.sol\":4561:4568  _update */\n      tag_182\n        /* \"@openzeppelin/contracts/token/ERC721/ERC721.sol\":4561:4595  _update(to, tokenId, _msgSender()) */\n      jump\t// in\n    tag_180:\n        /* \"@openzeppelin/contracts/token/ERC721/ERC721.sol\":4537:4595  address previousOwner = _update(to, tokenId, _msgSender()) */\n      swap1\n      pop\n        /* \"@openzeppelin/contracts/token/ERC721/ERC721.sol\":4626:4630  from */\n      dup4\n      sub(shl(0xa0, 0x01), 0x01)\n        /* \"@openzeppelin/contracts/token/ERC721/ERC721.sol\":4609:4630  previousOwner != from */\n      and\n        /* \"@openzeppelin/contracts/token/ERC721/ERC721.sol\":4609:4622  previousOwner */\n      dup2\n      sub(shl(0xa0, 0x01), 0x01)\n        /* \"@openzeppelin/contracts/token/ERC721/ERC721.sol\":4609:4630  previousOwner != from */\n      and\n      eq\n        /* \"@openzeppelin/contracts/token/ERC721/ERC721.sol\":4605:4714  if (previousOwner != from) {... */\n      tag_183\n      jumpi\n        /* \"@openzeppelin/contracts/token/ERC721/ERC721.sol\":4653:4703  ERC721IncorrectOwner(from, tokenId, previousOwner) */\n      mload(0x40)\n      shl(0xe0, 0x64283d7b)\n      dup2\n      mstore\n      sub(shl(0xa0, 0x01), 0x01)\n        /* \"#utility.yul\":7091:7106   */\n      dup1\n      dup7\n      and\n        /* \"@openzeppelin/contracts/token/ERC721/ERC721.sol\":4653:4703  ERC721IncorrectOwner(from, tokenId, previousOwner) */\n      0x04\n      dup4\n      add\n        /* \"#utility.yul\":7073:7107   */\n      mstore\n        /* \"#utility.yul\":7123:7141   */\n      0x24\n      dup3\n      add\n        /* \"#utility.yul\":7116:7150   */\n      dup5\n      swap1\n      mstore\n        /* \"#utility.yul\":7186:7201   */\n      dup3\n      and\n        /* \"#utility.yul\":7166:7184   */\n      0x44\n      dup3\n      add\n        /* \"#utility.yul\":7159:7202   */\n      mstore\n        /* \"#utility.yul\":7008:7026   */\n      0x64\n      add\n        /* \"@openzeppelin/contracts/token/ERC721/ERC721.sol\":4653:4703  ERC721IncorrectOwner(from, tokenId, previousOwner) */\n      tag_163\n        /* \"#utility.yul\":6833:7208   */\n      jump\n        /* \"@openzeppelin/contracts/token/ERC721/ERC721.sol\":4605:4714  if (previousOwner != from) {... */\n    tag_183:\n        /* \"@openzeppelin/contracts/token/ERC721/ERC721.sol\":4222:4720  {... */\n      pop\n        /* \"@openzeppelin/contracts/token/ERC721/ERC721.sol\":4142:4720  function transferFrom(address from, address to, uint256 tokenId) public virtual {... */\n      pop\n      pop\n      pop\n      jump\t// out\n        /* \"@openzeppelin/contracts/token/ERC721/ERC721.sol\":4786:4918  function safeTransferFrom(address from, address to, uint256 tokenId) public {... */\n    tag_68:\n        /* \"@openzeppelin/contracts/token/ERC721/ERC721.sol\":4872:4911  safeTransferFrom(from, to, tokenId, \"\") */\n      tag_187\n        /* \"@openzeppelin/contracts/token/ERC721/ERC721.sol\":4889:4893  from */\n      dup4\n        /* \"@openzeppelin/contracts/token/ERC721/ERC721.sol\":4895:4897  to */\n      dup4\n        /* \"@openzeppelin/contracts/token/ERC721/ERC721.sol\":4899:4906  tokenId */\n      dup4\n        /* \"@openzeppelin/contracts/token/ERC721/ERC721.sol\":4872:4911  safeTransferFrom(from, to, tokenId, \"\") */\n      mload(0x40)\n      dup1\n      0x20\n      add\n      0x40\n      mstore\n      dup1\n      0x00\n      dup2\n      mstore\n      pop\n        /* \"@openzeppelin/contracts/token/ERC721/ERC721.sol\":4872:4888  safeTransferFrom */\n      tag_108\n        /* \"@openzeppelin/contracts/token/ERC721/ERC721.sol\":4872:4911  safeTransferFrom(from, to, tokenId, \"\") */\n      jump\t// in\n    tag_187:\n        /* \"@openzeppelin/contracts/token/ERC721/ERC721.sol\":4786:4918  function safeTransferFrom(address from, address to, uint256 tokenId) public {... */\n      pop\n      pop\n      pop\n      jump\t// out\n        /* \"LockableNFT.sol\":1929:2620  function burn(uint256 tokenId) external nonReentrant {... */\n    tag_72:\n        /* \"@openzeppelin/contracts/security/ReentrancyGuard.sol\":2261:2282  _nonReentrantBefore() */\n      tag_189\n        /* \"@openzeppelin/contracts/security/ReentrancyGuard.sol\":2261:2280  _nonReentrantBefore */\n      tag_160\n        /* \"@openzeppelin/contracts/security/ReentrancyGuard.sol\":2261:2282  _nonReentrantBefore() */\n      jump\t// in\n    tag_189:\n        /* \"LockableNFT.sol\":2033:2043  msg.sender */\n      caller\n        /* \"LockableNFT.sol\":2013:2029  ownerOf(tokenId) */\n      tag_191\n        /* \"LockableNFT.sol\":2021:2028  tokenId */\n      dup3\n        /* \"LockableNFT.sol\":2013:2020  ownerOf */\n      tag_80\n        /* \"LockableNFT.sol\":2013:2029  ownerOf(tokenId) */\n      jump\t// in\n    tag_191:\n      sub(shl(0xa0, 0x01), 0x01)\n        /* \"LockableNFT.sol\":2013:2043  ownerOf(tokenId) == msg.sender */\n      and\n      eq\n        /* \"LockableNFT.sol\":1992:2100  require(... */\n      tag_192\n      jumpi\n      mload(0x40)\n      shl(0xe5, 0x461bcd)\n      dup2\n      mstore\n        /* \"#utility.yul\":7415:7417   */\n      0x20\n        /* \"LockableNFT.sol\":1992:2100  require(... */\n      0x04\n      dup3\n      add\n        /* \"#utility.yul\":7397:7418   */\n      mstore\n        /* \"#utility.yul\":7454:7456   */\n      0x1f\n        /* \"#utility.yul\":7434:7452   */\n      0x24\n      dup3\n      add\n        /* \"#utility.yul\":7427:7457   */\n      mstore\n        /* \"#utility.yul\":7493:7526   */\n      0x596f75206d757374206f776e20746865204e465420746f206275726e20697400\n        /* \"#utility.yul\":7473:7491   */\n      0x44\n      dup3\n      add\n        /* \"#utility.yul\":7466:7527   */\n      mstore\n        /* \"#utility.yul\":7544:7562   */\n      0x64\n      add\n        /* \"LockableNFT.sol\":1992:2100  require(... */\n      tag_163\n        /* \"#utility.yul\":7213:7568   */\n      jump\n        /* \"LockableNFT.sol\":1992:2100  require(... */\n    tag_192:\n        /* \"LockableNFT.sol\":2110:2130  uint256 lockedAmount */\n      0x00\n        /* \"LockableNFT.sol\":2133:2152  _lockedEth[tokenId] */\n      dup2\n      dup2\n      mstore\n        /* \"LockableNFT.sol\":2133:2143  _lockedEth */\n      0x0a\n        /* \"LockableNFT.sol\":2133:2152  _lockedEth[tokenId] */\n      0x20\n      mstore\n      0x40\n      swap1\n      keccak256\n      sload\n        /* \"LockableNFT.sol\":2170:2186  lockedAmount > 0 */\n      dup1\n        /* \"LockableNFT.sol\":2162:2217  require(lockedAmount > 0, \"No ETH locked for this NFT\") */\n      tag_195\n      jumpi\n      mload(0x40)\n      shl(0xe5, 0x461bcd)\n      dup2\n      mstore\n        /* \"#utility.yul\":7775:7777   */\n      0x20\n        /* \"LockableNFT.sol\":2162:2217  require(lockedAmount > 0, \"No ETH locked for this NFT\") */\n      0x04\n      dup3\n      add\n        /* \"#utility.yul\":7757:7778   */\n      mstore\n        /* \"#utility.yul\":7814:7816   */\n      0x1a\n        /* \"#utility.yul\":7794:7812   */\n      0x24\n      dup3\n      add\n        /* \"#utility.yul\":7787:7817   */\n      mstore\n        /* \"#utility.yul\":7853:7881   */\n      0x4e6f20455448206c6f636b656420666f722074686973204e4654000000000000\n        /* \"#utility.yul\":7833:7851   */\n      0x44\n      dup3\n      add\n        /* \"#utility.yul\":7826:7882   */\n      mstore\n        /* \"#utility.yul\":7899:7917   */\n      0x64\n      add\n        /* \"LockableNFT.sol\":2162:2217  require(lockedAmount > 0, \"No ETH locked for this NFT\") */\n      tag_163\n        /* \"#utility.yul\":7573:7923   */\n      jump\n        /* \"LockableNFT.sol\":2162:2217  require(lockedAmount > 0, \"No ETH locked for this NFT\") */\n    tag_195:\n        /* \"LockableNFT.sol\":2277:2278  0 */\n      0x00\n        /* \"LockableNFT.sol\":2255:2274  _lockedEth[tokenId] */\n      dup3\n      dup2\n      mstore\n        /* \"LockableNFT.sol\":2255:2265  _lockedEth */\n      0x0a\n        /* \"LockableNFT.sol\":2255:2274  _lockedEth[tokenId] */\n      0x20\n      mstore\n      0x40\n      dup2\n      keccak256\n        /* \"LockableNFT.sol\":2255:2278  _lockedEth[tokenId] = 0 */\n      sstore\n        /* \"LockableNFT.sol\":2288:2327  _removeMintedToken(msg.sender, tokenId) */\n      tag_198\n        /* \"LockableNFT.sol\":2307:2317  msg.sender */\n      caller\n        /* \"LockableNFT.sol\":2266:2273  tokenId */\n      dup4\n        /* \"LockableNFT.sol\":2288:2306  _removeMintedToken */\n      tag_199\n        /* \"LockableNFT.sol\":2288:2327  _removeMintedToken(msg.sender, tokenId) */\n      jump\t// in\n    tag_198:\n        /* \"LockableNFT.sol\":2361:2375  _burn(tokenId) */\n      tag_200\n        /* \"LockableNFT.sol\":2367:2374  tokenId */\n      dup3\n        /* \"LockableNFT.sol\":2361:2366  _burn */\n      tag_201\n        /* \"LockableNFT.sol\":2361:2375  _burn(tokenId) */\n      jump\t// in\n    tag_200:\n        /* \"LockableNFT.sol\":2442:2482  msg.sender.call{value: lockedAmount}(\"\") */\n      mload(0x40)\n        /* \"LockableNFT.sol\":2424:2436  bool success */\n      0x00\n      swap1\n        /* \"LockableNFT.sol\":2442:2452  msg.sender */\n      caller\n      swap1\n        /* \"LockableNFT.sol\":2465:2477  lockedAmount */\n      dup4\n      swap1\n        /* \"LockableNFT.sol\":2424:2436  bool success */\n      dup4\n        /* \"LockableNFT.sol\":2442:2482  msg.sender.call{value: lockedAmount}(\"\") */\n      dup2\n        /* \"LockableNFT.sol\":2424:2436  bool success */\n      dup2\n        /* \"LockableNFT.sol\":2442:2482  msg.sender.call{value: lockedAmount}(\"\") */\n      dup2\n        /* \"LockableNFT.sol\":2465:2477  lockedAmount */\n      dup6\n        /* \"LockableNFT.sol\":2442:2452  msg.sender */\n      dup8\n        /* \"LockableNFT.sol\":2442:2482  msg.sender.call{value: lockedAmount}(\"\") */\n      gas\n      call\n      swap3\n      pop\n      pop\n      pop\n      returndatasize\n      dup1\n      0x00\n      dup2\n      eq\n      tag_206\n      jumpi\n      mload(0x40)\n      swap2\n      pop\n      and(add(returndatasize, 0x3f), not(0x1f))\n      dup3\n      add\n      0x40\n      mstore\n      returndatasize\n      dup3\n      mstore\n      returndatasize\n      0x00\n      0x20\n      dup5\n      add\n      returndatacopy\n      jump(tag_205)\n    tag_206:\n      0x60\n      swap2\n      pop\n    tag_205:\n      pop\n        /* \"LockableNFT.sol\":2423:2482  (bool success, ) = msg.sender.call{value: lockedAmount}(\"\") */\n      pop\n      swap1\n      pop\n        /* \"LockableNFT.sol\":2500:2507  success */\n      dup1\n        /* \"LockableNFT.sol\":2492:2531  require(success, \"ETH transfer failed\") */\n      tag_207\n      jumpi\n      mload(0x40)\n      shl(0xe5, 0x461bcd)\n      dup2\n      mstore\n        /* \"#utility.yul\":8340:8342   */\n      0x20\n        /* \"LockableNFT.sol\":2492:2531  require(success, \"ETH transfer failed\") */\n      0x04\n      dup3\n      add\n        /* \"#utility.yul\":8322:8343   */\n      mstore\n        /* \"#utility.yul\":8379:8381   */\n      0x13\n        /* \"#utility.yul\":8359:8377   */\n      0x24\n      dup3\n      add\n        /* \"#utility.yul\":8352:8382   */\n      mstore\n      shl(0x6a, 0x115512081d1c985b9cd9995c8819985a5b1959)\n        /* \"#utility.yul\":8398:8416   */\n      0x44\n      dup3\n      add\n        /* \"#utility.yul\":8391:8440   */\n      mstore\n        /* \"#utility.yul\":8457:8475   */\n      0x64\n      add\n        /* \"LockableNFT.sol\":2492:2531  require(success, \"ETH transfer failed\") */\n      tag_163\n        /* \"#utility.yul\":8138:8481   */\n      jump\n        /* \"LockableNFT.sol\":2492:2531  require(success, \"ETH transfer failed\") */\n    tag_207:\n        /* \"LockableNFT.sol\":2547:2588  Burned(msg.sender, tokenId, lockedAmount) */\n      mload(0x40)\n        /* \"#utility.yul\":2324:2349   */\n      dup3\n      dup2\n      mstore\n        /* \"LockableNFT.sol\":2566:2573  tokenId */\n      dup4\n      swap1\n        /* \"LockableNFT.sol\":2554:2564  msg.sender */\n      caller\n      swap1\n        /* \"LockableNFT.sol\":2547:2588  Burned(msg.sender, tokenId, lockedAmount) */\n      0x23ff0e75edf108e3d0392d92e13e8c8a868ef19001bd49f9e94876dc46dff87f\n      swap1\n        /* \"#utility.yul\":2312:2314   */\n      0x20\n        /* \"#utility.yul\":2297:2315   */\n      add\n        /* \"LockableNFT.sol\":2547:2588  Burned(msg.sender, tokenId, lockedAmount) */\n      mload(0x40)\n      dup1\n      swap2\n      sub\n      swap1\n      log3\n        /* \"LockableNFT.sol\":1982:2620  {... */\n      pop\n      pop\n        /* \"@openzeppelin/contracts/security/ReentrancyGuard.sol\":2303:2323  _nonReentrantAfter() */\n      tag_211\n        /* \"@openzeppelin/contracts/security/ReentrancyGuard.sol\":1716:1717  1 */\n      0x01\n        /* \"@openzeppelin/contracts/security/ReentrancyGuard.sol\":2809:2816  _status */\n      0x07\n        /* \"@openzeppelin/contracts/security/ReentrancyGuard.sol\":2809:2831  _status = _NOT_ENTERED */\n      sstore\n        /* \"@openzeppelin/contracts/security/ReentrancyGuard.sol\":2629:2838  function _nonReentrantAfter() private {... */\n      jump\n        /* \"@openzeppelin/contracts/security/ReentrancyGuard.sol\":2303:2323  _nonReentrantAfter() */\n    tag_211:\n        /* \"LockableNFT.sol\":1929:2620  function burn(uint256 tokenId) external nonReentrant {... */\n      pop\n      jump\t// out\n        /* \"LockableNFT.sol\":3946:4181  function getTotalLockedEth() public view returns (uint256) {... */\n    tag_75:\n        /* \"LockableNFT.sol\":3996:4003  uint256 */\n      0x00\n      dup1\n      dup1\n        /* \"LockableNFT.sol\":4048:4147  for (uint256 i = 0; i < _tokenIdCounter; i++) {... */\n    tag_213:\n        /* \"LockableNFT.sol\":4072:4087  _tokenIdCounter */\n      sload(0x08)\n        /* \"LockableNFT.sol\":4068:4069  i */\n      dup2\n        /* \"LockableNFT.sol\":4068:4087  i < _tokenIdCounter */\n      lt\n        /* \"LockableNFT.sol\":4048:4147  for (uint256 i = 0; i < _tokenIdCounter; i++) {... */\n      iszero\n      tag_214\n      jumpi\n        /* \"LockableNFT.sol\":4123:4136  _lockedEth[i] */\n      0x00\n      dup2\n      dup2\n      mstore\n        /* \"LockableNFT.sol\":4123:4133  _lockedEth */\n      0x0a\n        /* \"LockableNFT.sol\":4123:4136  _lockedEth[i] */\n      0x20\n      mstore\n      0x40\n      swap1\n      keccak256\n      sload\n        /* \"LockableNFT.sol\":4108:4136  totalLocked += _lockedEth[i] */\n      tag_216\n      swap1\n      dup4\n      tag_217\n      jump\t// in\n    tag_216:\n      swap2\n      pop\n        /* \"LockableNFT.sol\":4089:4092  i++ */\n      dup1\n      tag_218\n      dup2\n      tag_166\n      jump\t// in\n    tag_218:\n      swap2\n      pop\n      pop\n        /* \"LockableNFT.sol\":4048:4147  for (uint256 i = 0; i < _tokenIdCounter; i++) {... */\n      jump(tag_213)\n    tag_214:\n      pop\n        /* \"LockableNFT.sol\":4163:4174  totalLocked */\n      swap2\n        /* \"LockableNFT.sol\":3946:4181  function getTotalLockedEth() public view returns (uint256) {... */\n      swap1\n      pop\n      jump\t// out\n        /* \"@openzeppelin/contracts/token/ERC721/ERC721.sol\":2184:2302  function ownerOf(uint256 tokenId) public view virtual returns (address) {... */\n    tag_80:\n        /* \"@openzeppelin/contracts/token/ERC721/ERC721.sol\":2247:2254  address */\n      0x00\n        /* \"@openzeppelin/contracts/token/ERC721/ERC721.sol\":2273:2295  _requireOwned(tokenId) */\n      tag_139\n        /* \"@openzeppelin/contracts/token/ERC721/ERC721.sol\":2287:2294  tokenId */\n      dup3\n        /* \"@openzeppelin/contracts/token/ERC721/ERC721.sol\":2273:2286  _requireOwned */\n      tag_150\n        /* \"@openzeppelin/contracts/token/ERC721/ERC721.sol\":2273:2295  _requireOwned(tokenId) */\n      jump\t// in\n        /* \"@openzeppelin/contracts/token/ERC721/ERC721.sol\":1919:2127  function balanceOf(address owner) public view virtual returns (uint256) {... */\n    tag_86:\n        /* \"@openzeppelin/contracts/token/ERC721/ERC721.sol\":1982:1989  uint256 */\n      0x00\n      sub(shl(0xa0, 0x01), 0x01)\n        /* \"@openzeppelin/contracts/token/ERC721/ERC721.sol\":2005:2024  owner == address(0) */\n      dup3\n      and\n        /* \"@openzeppelin/contracts/token/ERC721/ERC721.sol\":2001:2088  if (owner == address(0)) {... */\n      tag_222\n      jumpi\n        /* \"@openzeppelin/contracts/token/ERC721/ERC721.sol\":2047:2077  ERC721InvalidOwner(address(0)) */\n      mload(0x40)\n      shl(0xe2, 0x22718ad9)\n      dup2\n      mstore\n        /* \"@openzeppelin/contracts/token/ERC721/ERC721.sol\":2074:2075  0 */\n      0x00\n        /* \"@openzeppelin/contracts/token/ERC721/ERC721.sol\":2047:2077  ERC721InvalidOwner(address(0)) */\n      0x04\n      dup3\n      add\n        /* \"#utility.yul\":1679:1730   */\n      mstore\n        /* \"#utility.yul\":1652:1670   */\n      0x24\n      add\n        /* \"@openzeppelin/contracts/token/ERC721/ERC721.sol\":2047:2077  ERC721InvalidOwner(address(0)) */\n      tag_163\n        /* \"#utility.yul\":1533:1736   */\n      jump\n        /* \"@openzeppelin/contracts/token/ERC721/ERC721.sol\":2001:2088  if (owner == address(0)) {... */\n    tag_222:\n      pop\n      sub(shl(0xa0, 0x01), 0x01)\n        /* \"@openzeppelin/contracts/token/ERC721/ERC721.sol\":2104:2120  _balances[owner] */\n      and\n      0x00\n      swap1\n      dup2\n      mstore\n        /* \"@openzeppelin/contracts/token/ERC721/ERC721.sol\":2104:2113  _balances */\n      0x03\n        /* \"@openzeppelin/contracts/token/ERC721/ERC721.sol\":2104:2120  _balances[owner] */\n      0x20\n      mstore\n      0x40\n      swap1\n      keccak256\n      sload\n      swap1\n        /* \"@openzeppelin/contracts/token/ERC721/ERC721.sol\":1919:2127  function balanceOf(address owner) public view virtual returns (uint256) {... */\n      jump\t// out\n        /* \"@openzeppelin/contracts/access/Ownable.sol\":2293:2394  function renounceOwnership() public virtual onlyOwner {... */\n    tag_90:\n        /* \"@openzeppelin/contracts/access/Ownable.sol\":1531:1544  _checkOwner() */\n      tag_225\n        /* \"@openzeppelin/contracts/access/Ownable.sol\":1531:1542  _checkOwner */\n      tag_226\n        /* \"@openzeppelin/contracts/access/Ownable.sol\":1531:1544  _checkOwner() */\n      jump\t// in\n    tag_225:\n        /* \"@openzeppelin/contracts/access/Ownable.sol\":2357:2387  _transferOwnership(address(0)) */\n      tag_174\n        /* \"@openzeppelin/contracts/access/Ownable.sol\":2384:2385  0 */\n      0x00\n        /* \"@openzeppelin/contracts/access/Ownable.sol\":2357:2375  _transferOwnership */\n      tag_229\n        /* \"@openzeppelin/contracts/access/Ownable.sol\":2357:2387  _transferOwnership(address(0)) */\n      jump\t// in\n        /* \"@openzeppelin/contracts/token/ERC721/ERC721.sol\":2517:2610  function symbol() public view virtual returns (string memory) {... */\n    tag_97:\n        /* \"@openzeppelin/contracts/token/ERC721/ERC721.sol\":2564:2577  string memory */\n      0x60\n        /* \"@openzeppelin/contracts/token/ERC721/ERC721.sol\":2596:2603  _symbol */\n      0x01\n        /* \"@openzeppelin/contracts/token/ERC721/ERC721.sol\":2589:2603  return _symbol */\n      dup1\n      sload\n      tag_142\n      swap1\n      tag_143\n      jump\t// in\n        /* \"@openzeppelin/contracts/token/ERC721/ERC721.sol\":3717:3861  function setApprovalForAll(address operator, bool approved) public virtual {... */\n    tag_103:\n        /* \"@openzeppelin/contracts/token/ERC721/ERC721.sol\":3802:3854  _setApprovalForAll(_msgSender(), operator, approved) */\n      tag_154\n        /* \"@openzeppelin/contracts/utils/Context.sol\":735:745  msg.sender */\n      caller\n        /* \"@openzeppelin/contracts/token/ERC721/ERC721.sol\":3835:3843  operator */\n      dup4\n        /* \"@openzeppelin/contracts/token/ERC721/ERC721.sol\":3845:3853  approved */\n      dup4\n        /* \"@openzeppelin/contracts/token/ERC721/ERC721.sol\":3802:3820  _setApprovalForAll */\n      tag_240\n        /* \"@openzeppelin/contracts/token/ERC721/ERC721.sol\":3802:3854  _setApprovalForAll(_msgSender(), operator, approved) */\n      jump\t// in\n        /* \"@openzeppelin/contracts/token/ERC721/ERC721.sol\":4984:5217  function safeTransferFrom(address from, address to, uint256 tokenId, bytes memory data) public virtual {... */\n    tag_108:\n        /* \"@openzeppelin/contracts/token/ERC721/ERC721.sol\":5097:5128  transferFrom(from, to, tokenId) */\n      tag_242\n        /* \"@openzeppelin/contracts/token/ERC721/ERC721.sol\":5110:5114  from */\n      dup5\n        /* \"@openzeppelin/contracts/token/ERC721/ERC721.sol\":5116:5118  to */\n      dup5\n        /* \"@openzeppelin/contracts/token/ERC721/ERC721.sol\":5120:5127  tokenId */\n      dup5\n        /* \"@openzeppelin/contracts/token/ERC721/ERC721.sol\":5097:5109  transferFrom */\n      tag_64\n        /* \"@openzeppelin/contracts/token/ERC721/ERC721.sol\":5097:5128  transferFrom(from, to, tokenId) */\n      jump\t// in\n    tag_242:\n        /* \"@openzeppelin/contracts/token/ERC721/ERC721.sol\":5138:5210  ERC721Utils.checkOnERC721Received(_msgSender(), from, to, tokenId, data) */\n      tag_183\n        /* \"@openzeppelin/contracts/utils/Context.sol\":735:745  msg.sender */\n      caller\n        /* \"@openzeppelin/contracts/token/ERC721/ERC721.sol\":5186:5190  from */\n      dup6\n        /* \"@openzeppelin/contracts/token/ERC721/ERC721.sol\":5192:5194  to */\n      dup6\n        /* \"@openzeppelin/contracts/token/ERC721/ERC721.sol\":5196:5203  tokenId */\n      dup6\n        /* \"@openzeppelin/contracts/token/ERC721/ERC721.sol\":5205:5209  data */\n      dup6\n        /* \"@openzeppelin/contracts/token/ERC721/ERC721.sol\":5138:5171  ERC721Utils.checkOnERC721Received */\n      tag_245\n        /* \"@openzeppelin/contracts/token/ERC721/ERC721.sol\":5138:5210  ERC721Utils.checkOnERC721Received(_msgSender(), from, to, tokenId, data) */\n      jump\t// in\n        /* \"LockableNFT.sol\":3301:3439  function getMintedNftId(... */\n    tag_116:\n      sub(shl(0xa0, 0x01), 0x01)\n        /* \"LockableNFT.sol\":3412:3432  _mintedTokens[owner] */\n      dup2\n      and\n      0x00\n      swap1\n      dup2\n      mstore\n        /* \"LockableNFT.sol\":3412:3425  _mintedTokens */\n      0x0b\n        /* \"LockableNFT.sol\":3412:3432  _mintedTokens[owner] */\n      0x20\n      swap1\n      dup2\n      mstore\n      0x40\n      swap2\n      dup3\n      swap1\n      keccak256\n        /* \"LockableNFT.sol\":3405:3432  return _mintedTokens[owner] */\n      dup1\n      sload\n      dup4\n      mload\n      dup2\n      dup5\n      mul\n      dup2\n      add\n      dup5\n      add\n      swap1\n      swap5\n      mstore\n      dup1\n      dup5\n      mstore\n        /* \"LockableNFT.sol\":3377:3393  uint256[] memory */\n      0x60\n      swap4\n        /* \"LockableNFT.sol\":3405:3432  return _mintedTokens[owner] */\n      swap3\n      dup4\n      add\n        /* \"LockableNFT.sol\":3412:3432  _mintedTokens[owner] */\n      dup3\n        /* \"LockableNFT.sol\":3405:3432  return _mintedTokens[owner] */\n      dup3\n      dup1\n      iszero\n      tag_247\n      jumpi\n      0x20\n      mul\n      dup3\n      add\n      swap2\n      swap1\n      0x00\n      mstore\n      keccak256(0x00, 0x20)\n      swap1\n    tag_248:\n      dup2\n      sload\n      dup2\n      mstore\n      0x20\n      add\n      swap1\n      0x01\n      add\n      swap1\n      dup1\n      dup4\n      gt\n      tag_248\n      jumpi\n    tag_247:\n      pop\n      pop\n      pop\n      pop\n      pop\n      swap1\n      pop\n        /* \"LockableNFT.sol\":3301:3439  function getMintedNftId(... */\n      swap2\n      swap1\n      pop\n      jump\t// out\n        /* \"@openzeppelin/contracts/token/ERC721/ERC721.sol\":2676:2931  function tokenURI(uint256 tokenId) public view virtual returns (string memory) {... */\n    tag_122:\n        /* \"@openzeppelin/contracts/token/ERC721/ERC721.sol\":2740:2753  string memory */\n      0x60\n        /* \"@openzeppelin/contracts/token/ERC721/ERC721.sol\":2765:2787  _requireOwned(tokenId) */\n      tag_250\n        /* \"@openzeppelin/contracts/token/ERC721/ERC721.sol\":2779:2786  tokenId */\n      dup3\n        /* \"@openzeppelin/contracts/token/ERC721/ERC721.sol\":2765:2778  _requireOwned */\n      tag_150\n        /* \"@openzeppelin/contracts/token/ERC721/ERC721.sol\":2765:2787  _requireOwned(tokenId) */\n      jump\t// in\n    tag_250:\n      pop\n        /* \"@openzeppelin/contracts/token/ERC721/ERC721.sol\":2798:2819  string memory baseURI */\n      0x00\n        /* \"@openzeppelin/contracts/token/ERC721/ERC721.sol\":2822:2832  _baseURI() */\n      tag_251\n        /* \"@openzeppelin/contracts/token/ERC721/ERC721.sol\":3249:3258  return \"\" */\n      0x40\n      dup1\n      mload\n      0x20\n      dup2\n      add\n      swap1\n      swap2\n      mstore\n      0x00\n      dup2\n      mstore\n      swap1\n        /* \"@openzeppelin/contracts/token/ERC721/ERC721.sol\":3173:3265  function _baseURI() internal view virtual returns (string memory) {... */\n      jump\n        /* \"@openzeppelin/contracts/token/ERC721/ERC721.sol\":2822:2832  _baseURI() */\n    tag_251:\n        /* \"@openzeppelin/contracts/token/ERC721/ERC721.sol\":2798:2832  string memory baseURI = _baseURI() */\n      swap1\n      pop\n        /* \"@openzeppelin/contracts/token/ERC721/ERC721.sol\":2873:2874  0 */\n      0x00\n        /* \"@openzeppelin/contracts/token/ERC721/ERC721.sol\":2855:2862  baseURI */\n      dup2\n        /* \"@openzeppelin/contracts/token/ERC721/ERC721.sol\":2849:2870  bytes(baseURI).length */\n      mload\n        /* \"@openzeppelin/contracts/token/ERC721/ERC721.sol\":2849:2874  bytes(baseURI).length > 0 */\n      gt\n        /* \"@openzeppelin/contracts/token/ERC721/ERC721.sol\":2849:2924  bytes(baseURI).length > 0 ? string.concat(baseURI, tokenId.toString()) : \"\" */\n      tag_253\n      jumpi\n      mload(0x40)\n      dup1\n      0x20\n      add\n      0x40\n      mstore\n      dup1\n      0x00\n      dup2\n      mstore\n      pop\n      jump(tag_254)\n    tag_253:\n        /* \"@openzeppelin/contracts/token/ERC721/ERC721.sol\":2891:2898  baseURI */\n      dup1\n        /* \"@openzeppelin/contracts/token/ERC721/ERC721.sol\":2900:2918  tokenId.toString() */\n      tag_255\n        /* \"@openzeppelin/contracts/token/ERC721/ERC721.sol\":2900:2907  tokenId */\n      dup5\n        /* \"@openzeppelin/contracts/token/ERC721/ERC721.sol\":2900:2916  tokenId.toString */\n      tag_256\n        /* \"@openzeppelin/contracts/token/ERC721/ERC721.sol\":2900:2918  tokenId.toString() */\n      jump\t// in\n    tag_255:\n        /* \"@openzeppelin/contracts/token/ERC721/ERC721.sol\":2877:2919  string.concat(baseURI, tokenId.toString()) */\n      add(0x20, mload(0x40))\n      tag_257\n      swap3\n      swap2\n      swap1\n      tag_258\n      jump\t// in\n    tag_257:\n      mload(0x40)\n      0x20\n      dup2\n      dup4\n      sub\n      sub\n      dup2\n      mstore\n      swap1\n      0x40\n      mstore\n        /* \"@openzeppelin/contracts/token/ERC721/ERC721.sol\":2849:2924  bytes(baseURI).length > 0 ? string.concat(baseURI, tokenId.toString()) : \"\" */\n    tag_254:\n        /* \"@openzeppelin/contracts/token/ERC721/ERC721.sol\":2842:2924  return bytes(baseURI).length > 0 ? string.concat(baseURI, tokenId.toString()) : \"\" */\n      swap4\n        /* \"@openzeppelin/contracts/token/ERC721/ERC721.sol\":2676:2931  function tokenURI(uint256 tokenId) public view virtual returns (string memory) {... */\n      swap3\n      pop\n      pop\n      pop\n      jump\t// out\n        /* \"@openzeppelin/contracts/token/ERC721/ERC721.sol\":3927:4080  function isApprovedForAll(address owner, address operator) public view virtual returns (bool) {... */\n    tag_128:\n      sub(shl(0xa0, 0x01), 0x01)\n        /* \"@openzeppelin/contracts/token/ERC721/ERC721.sol\":4038:4063  _operatorApprovals[owner] */\n      swap2\n      dup3\n      and\n        /* \"@openzeppelin/contracts/token/ERC721/ERC721.sol\":4015:4019  bool */\n      0x00\n        /* \"@openzeppelin/contracts/token/ERC721/ERC721.sol\":4038:4063  _operatorApprovals[owner] */\n      swap1\n      dup2\n      mstore\n        /* \"@openzeppelin/contracts/token/ERC721/ERC721.sol\":4038:4056  _operatorApprovals */\n      0x05\n        /* \"@openzeppelin/contracts/token/ERC721/ERC721.sol\":4038:4063  _operatorApprovals[owner] */\n      0x20\n      swap1\n      dup2\n      mstore\n      0x40\n      dup1\n      dup4\n      keccak256\n        /* \"@openzeppelin/contracts/token/ERC721/ERC721.sol\":4038:4073  _operatorApprovals[owner][operator] */\n      swap4\n      swap1\n      swap5\n      and\n      dup3\n      mstore\n      swap2\n      swap1\n      swap2\n      mstore\n      keccak256\n      sload\n      0xff\n      and\n      swap1\n        /* \"@openzeppelin/contracts/token/ERC721/ERC721.sol\":3927:4080  function isApprovedForAll(address owner, address operator) public view virtual returns (bool) {... */\n      jump\t// out\n        /* \"@openzeppelin/contracts/access/Ownable.sol\":2543:2758  function transferOwnership(address newOwner) public virtual onlyOwner {... */\n    tag_133:\n        /* \"@openzeppelin/contracts/access/Ownable.sol\":1531:1544  _checkOwner() */\n      tag_261\n        /* \"@openzeppelin/contracts/access/Ownable.sol\":1531:1542  _checkOwner */\n      tag_226\n        /* \"@openzeppelin/contracts/access/Ownable.sol\":1531:1544  _checkOwner() */\n      jump\t// in\n    tag_261:\n      sub(shl(0xa0, 0x01), 0x01)\n        /* \"@openzeppelin/contracts/access/Ownable.sol\":2627:2649  newOwner == address(0) */\n      dup2\n      and\n        /* \"@openzeppelin/contracts/access/Ownable.sol\":2623:2714  if (newOwner == address(0)) {... */\n      tag_263\n      jumpi\n        /* \"@openzeppelin/contracts/access/Ownable.sol\":2672:2703  OwnableInvalidOwner(address(0)) */\n      mload(0x40)\n      shl(0xe0, 0x1e4fbdf7)\n      dup2\n      mstore\n        /* \"@openzeppelin/contracts/access/Ownable.sol\":2700:2701  0 */\n      0x00\n        /* \"@openzeppelin/contracts/access/Ownable.sol\":2672:2703  OwnableInvalidOwner(address(0)) */\n      0x04\n      dup3\n      add\n        /* \"#utility.yul\":1679:1730   */\n      mstore\n        /* \"#utility.yul\":1652:1670   */\n      0x24\n      add\n        /* \"@openzeppelin/contracts/access/Ownable.sol\":2672:2703  OwnableInvalidOwner(address(0)) */\n      tag_163\n        /* \"#utility.yul\":1533:1736   */\n      jump\n        /* \"@openzeppelin/contracts/access/Ownable.sol\":2623:2714  if (newOwner == address(0)) {... */\n    tag_263:\n        /* \"@openzeppelin/contracts/access/Ownable.sol\":2723:2751  _transferOwnership(newOwner) */\n      tag_211\n        /* \"@openzeppelin/contracts/access/Ownable.sol\":2742:2750  newOwner */\n      dup2\n        /* \"@openzeppelin/contracts/access/Ownable.sol\":2723:2741  _transferOwnership */\n      tag_229\n        /* \"@openzeppelin/contracts/access/Ownable.sol\":2723:2751  _transferOwnership(newOwner) */\n      jump\t// in\n        /* \"LockableNFT.sol\":2726:2933  function setMintPrice(uint256 newPrice) external onlyOwner {... */\n    tag_137:\n        /* \"@openzeppelin/contracts/access/Ownable.sol\":1531:1544  _checkOwner() */\n      tag_267\n        /* \"@openzeppelin/contracts/access/Ownable.sol\":1531:1542  _checkOwner */\n      tag_226\n        /* \"@openzeppelin/contracts/access/Ownable.sol\":1531:1544  _checkOwner() */\n      jump\t// in\n    tag_267:\n        /* \"LockableNFT.sol\":2814:2815  0 */\n      0x00\n        /* \"LockableNFT.sol\":2803:2811  newPrice */\n      dup2\n        /* \"LockableNFT.sol\":2803:2815  newPrice > 0 */\n      gt\n        /* \"LockableNFT.sol\":2795:2853  require(newPrice > 0, \"Mint price must be greater than 0\") */\n      tag_269\n      jumpi\n      mload(0x40)\n      shl(0xe5, 0x461bcd)\n      dup2\n      mstore\n        /* \"#utility.yul\":9319:9321   */\n      0x20\n        /* \"LockableNFT.sol\":2795:2853  require(newPrice > 0, \"Mint price must be greater than 0\") */\n      0x04\n      dup3\n      add\n        /* \"#utility.yul\":9301:9322   */\n      mstore\n        /* \"#utility.yul\":9358:9360   */\n      0x21\n        /* \"#utility.yul\":9338:9356   */\n      0x24\n      dup3\n      add\n        /* \"#utility.yul\":9331:9361   */\n      mstore\n        /* \"#utility.yul\":9397:9431   */\n      0x4d696e74207072696365206d7573742062652067726561746572207468616e20\n        /* \"#utility.yul\":9377:9395   */\n      0x44\n      dup3\n      add\n        /* \"#utility.yul\":9370:9432   */\n      mstore\n      shl(0xfc, 0x03)\n        /* \"#utility.yul\":9448:9466   */\n      0x64\n      dup3\n      add\n        /* \"#utility.yul\":9441:9472   */\n      mstore\n        /* \"#utility.yul\":9489:9508   */\n      0x84\n      add\n        /* \"LockableNFT.sol\":2795:2853  require(newPrice > 0, \"Mint price must be greater than 0\") */\n      tag_163\n        /* \"#utility.yul\":9117:9514   */\n      jump\n        /* \"LockableNFT.sol\":2795:2853  require(newPrice > 0, \"Mint price must be greater than 0\") */\n    tag_269:\n        /* \"LockableNFT.sol\":2863:2873  MINT_PRICE */\n      0x09\n        /* \"LockableNFT.sol\":2863:2884  MINT_PRICE = newPrice */\n      dup2\n      swap1\n      sstore\n        /* \"LockableNFT.sol\":2900:2926  MintPriceUpdated(newPrice) */\n      mload(0x40)\n        /* \"#utility.yul\":2324:2349   */\n      dup2\n      dup2\n      mstore\n        /* \"LockableNFT.sol\":2900:2926  MintPriceUpdated(newPrice) */\n      0x525b762709cc2a983aec5ccdfd807a061f993c91090b5bcd7da92ca254976aaa\n      swap1\n        /* \"#utility.yul\":2312:2314   */\n      0x20\n        /* \"#utility.yul\":2297:2315   */\n      add\n        /* \"LockableNFT.sol\":2900:2926  MintPriceUpdated(newPrice) */\n      mload(0x40)\n      dup1\n      swap2\n      sub\n      swap1\n      log1\n        /* \"LockableNFT.sol\":2726:2933  function setMintPrice(uint256 newPrice) external onlyOwner {... */\n      pop\n      jump\t// out\n        /* \"@openzeppelin/contracts/token/ERC721/ERC721.sol\":1560:1860  function supportsInterface(bytes4 interfaceId) public view virtual override(ERC165, IERC165) returns (bool) {... */\n    tag_140:\n        /* \"@openzeppelin/contracts/token/ERC721/ERC721.sol\":1662:1666  bool */\n      0x00\n      not(sub(shl(0xe0, 0x01), 0x01))\n        /* \"@openzeppelin/contracts/token/ERC721/ERC721.sol\":1697:1737  interfaceId == type(IERC721).interfaceId */\n      dup3\n      and\n      shl(0xe0, 0x80ac58cd)\n      eq\n      dup1\n        /* \"@openzeppelin/contracts/token/ERC721/ERC721.sol\":1697:1801  interfaceId == type(IERC721).interfaceId ||... */\n      tag_274\n      jumpi\n      pop\n      not(sub(shl(0xe0, 0x01), 0x01))\n        /* \"@openzeppelin/contracts/token/ERC721/ERC721.sol\":1753:1801  interfaceId == type(IERC721Metadata).interfaceId */\n      dup3\n      and\n      shl(0xe0, 0x5b5e139f)\n      eq\n        /* \"@openzeppelin/contracts/token/ERC721/ERC721.sol\":1697:1801  interfaceId == type(IERC721).interfaceId ||... */\n    tag_274:\n        /* \"@openzeppelin/contracts/token/ERC721/ERC721.sol\":1697:1853  interfaceId == type(IERC721).interfaceId ||... */\n      dup1\n      tag_139\n      jumpi\n      pop\n      shl(0xe0, 0x01ffc9a7)\n      not(sub(shl(0xe0, 0x01), 0x01))\n        /* \"@openzeppelin/contracts/utils/introspection/ERC165.sol\":862:902  interfaceId == type(IERC165).interfaceId */\n      dup4\n      and\n      eq\n        /* \"@openzeppelin/contracts/token/ERC721/ERC721.sol\":1817:1853  super.supportsInterface(interfaceId) */\n      tag_139\n        /* \"@openzeppelin/contracts/utils/introspection/ERC165.sol\":763:909  function supportsInterface(bytes4 interfaceId) public view virtual returns (bool) {... */\n      jump\n        /* \"@openzeppelin/contracts/token/ERC721/ERC721.sol\":16212:16453  function _requireOwned(uint256 tokenId) internal view returns (address) {... */\n    tag_150:\n        /* \"@openzeppelin/contracts/token/ERC721/ERC721.sol\":16275:16282  address */\n      0x00\n        /* \"@openzeppelin/contracts/token/ERC721/ERC721.sol\":5824:5840  _owners[tokenId] */\n      dup2\n      dup2\n      mstore\n        /* \"@openzeppelin/contracts/token/ERC721/ERC721.sol\":5824:5831  _owners */\n      0x02\n        /* \"@openzeppelin/contracts/token/ERC721/ERC721.sol\":5824:5840  _owners[tokenId] */\n      0x20\n      mstore\n      0x40\n      dup2\n      keccak256\n      sload\n      sub(shl(0xa0, 0x01), 0x01)\n      and\n      dup1\n        /* \"@openzeppelin/contracts/token/ERC721/ERC721.sol\":16337:16425  if (owner == address(0)) {... */\n      tag_139\n      jumpi\n        /* \"@openzeppelin/contracts/token/ERC721/ERC721.sol\":16383:16414  ERC721NonexistentToken(tokenId) */\n      mload(0x40)\n      shl(0xe0, 0x7e273289)\n      dup2\n      mstore\n      0x04\n      dup2\n      add\n        /* \"#utility.yul\":2324:2349   */\n      dup5\n      swap1\n      mstore\n        /* \"#utility.yul\":2297:2315   */\n      0x24\n      add\n        /* \"@openzeppelin/contracts/token/ERC721/ERC721.sol\":16383:16414  ERC721NonexistentToken(tokenId) */\n      tag_163\n        /* \"#utility.yul\":2178:2355   */\n      jump\n        /* \"@openzeppelin/contracts/token/ERC721/ERC721.sol\":14492:14612  function _approve(address to, uint256 tokenId, address auth) internal {... */\n    tag_157:\n        /* \"@openzeppelin/contracts/token/ERC721/ERC721.sol\":14572:14605  _approve(to, tokenId, auth, true) */\n      tag_187\n        /* \"@openzeppelin/contracts/token/ERC721/ERC721.sol\":14581:14583  to */\n      dup4\n        /* \"@openzeppelin/contracts/token/ERC721/ERC721.sol\":14585:14592  tokenId */\n      dup4\n        /* \"@openzeppelin/contracts/token/ERC721/ERC721.sol\":14594:14598  auth */\n      dup4\n        /* \"@openzeppelin/contracts/token/ERC721/ERC721.sol\":14600:14604  true */\n      0x01\n        /* \"@openzeppelin/contracts/token/ERC721/ERC721.sol\":14572:14580  _approve */\n      tag_287\n        /* \"@openzeppelin/contracts/token/ERC721/ERC721.sol\":14572:14605  _approve(to, tokenId, auth, true) */\n      jump\t// in\n        /* \"@openzeppelin/contracts/security/ReentrancyGuard.sol\":2336:2623  function _nonReentrantBefore() private {... */\n    tag_160:\n        /* \"@openzeppelin/contracts/security/ReentrancyGuard.sol\":1759:1760  2 */\n      0x02\n        /* \"@openzeppelin/contracts/security/ReentrancyGuard.sol\":2468:2475  _status */\n      sload(0x07)\n        /* \"@openzeppelin/contracts/security/ReentrancyGuard.sol\":2468:2487  _status != _ENTERED */\n      sub\n        /* \"@openzeppelin/contracts/security/ReentrancyGuard.sol\":2460:2523  require(_status != _ENTERED, \"ReentrancyGuard: reentrant call\") */\n      tag_289\n      jumpi\n      mload(0x40)\n      shl(0xe5, 0x461bcd)\n      dup2\n      mstore\n        /* \"#utility.yul\":9721:9723   */\n      0x20\n        /* \"@openzeppelin/contracts/security/ReentrancyGuard.sol\":2460:2523  require(_status != _ENTERED, \"ReentrancyGuard: reentrant call\") */\n      0x04\n      dup3\n      add\n        /* \"#utility.yul\":9703:9724   */\n      mstore\n        /* \"#utility.yul\":9760:9762   */\n      0x1f\n        /* \"#utility.yul\":9740:9758   */\n      0x24\n      dup3\n      add\n        /* \"#utility.yul\":9733:9763   */\n      mstore\n        /* \"#utility.yul\":9799:9832   */\n      0x5265656e7472616e637947756172643a207265656e7472616e742063616c6c00\n        /* \"#utility.yul\":9779:9797   */\n      0x44\n      dup3\n      add\n        /* \"#utility.yul\":9772:9833   */\n      mstore\n        /* \"#utility.yul\":9850:9868   */\n      0x64\n      add\n        /* \"@openzeppelin/contracts/security/ReentrancyGuard.sol\":2460:2523  require(_status != _ENTERED, \"ReentrancyGuard: reentrant call\") */\n      tag_163\n        /* \"#utility.yul\":9519:9874   */\n      jump\n        /* \"@openzeppelin/contracts/security/ReentrancyGuard.sol\":2460:2523  require(_status != _ENTERED, \"ReentrancyGuard: reentrant call\") */\n    tag_289:\n        /* \"@openzeppelin/contracts/security/ReentrancyGuard.sol\":1759:1760  2 */\n      0x02\n        /* \"@openzeppelin/contracts/security/ReentrancyGuard.sol\":2598:2605  _status */\n      0x07\n        /* \"@openzeppelin/contracts/security/ReentrancyGuard.sol\":2598:2616  _status = _ENTERED */\n      sstore\n        /* \"@openzeppelin/contracts/security/ReentrancyGuard.sol\":2336:2623  function _nonReentrantBefore() private {... */\n      jump\t// out\n        /* \"@openzeppelin/contracts/token/ERC721/ERC721.sol\":10656:10756  function _safeMint(address to, uint256 tokenId) internal {... */\n    tag_171:\n        /* \"@openzeppelin/contracts/token/ERC721/ERC721.sol\":10723:10749  _safeMint(to, tokenId, \"\") */\n      tag_154\n        /* \"@openzeppelin/contracts/token/ERC721/ERC721.sol\":10733:10735  to */\n      dup3\n        /* \"@openzeppelin/contracts/token/ERC721/ERC721.sol\":10737:10744  tokenId */\n      dup3\n        /* \"@openzeppelin/contracts/token/ERC721/ERC721.sol\":10723:10749  _safeMint(to, tokenId, \"\") */\n      mload(0x40)\n      dup1\n      0x20\n      add\n      0x40\n      mstore\n      dup1\n      0x00\n      dup2\n      mstore\n      pop\n        /* \"@openzeppelin/contracts/token/ERC721/ERC721.sol\":10723:10732  _safeMint */\n      tag_294\n        /* \"@openzeppelin/contracts/token/ERC721/ERC721.sol\":10723:10749  _safeMint(to, tokenId, \"\") */\n      jump\t// in\n        /* \"@openzeppelin/contracts/token/ERC721/ERC721.sol\":8861:9656  function _update(address to, uint256 tokenId, address auth) internal virtual returns (address) {... */\n    tag_182:\n        /* \"@openzeppelin/contracts/token/ERC721/ERC721.sol\":8947:8954  address */\n      0x00\n        /* \"@openzeppelin/contracts/token/ERC721/ERC721.sol\":5824:5840  _owners[tokenId] */\n      dup3\n      dup2\n      mstore\n        /* \"@openzeppelin/contracts/token/ERC721/ERC721.sol\":5824:5831  _owners */\n      0x02\n        /* \"@openzeppelin/contracts/token/ERC721/ERC721.sol\":5824:5840  _owners[tokenId] */\n      0x20\n      mstore\n      0x40\n      dup2\n      keccak256\n      sload\n      sub(shl(0xa0, 0x01), 0x01)\n      swap1\n      dup2\n      and\n      swap1\n        /* \"@openzeppelin/contracts/token/ERC721/ERC721.sol\":9058:9076  auth != address(0) */\n      dup4\n      and\n      iszero\n        /* \"@openzeppelin/contracts/token/ERC721/ERC721.sol\":9054:9140  if (auth != address(0)) {... */\n      tag_299\n      jumpi\n        /* \"@openzeppelin/contracts/token/ERC721/ERC721.sol\":9092:9129  _checkAuthorized(from, auth, tokenId) */\n      tag_299\n        /* \"@openzeppelin/contracts/token/ERC721/ERC721.sol\":9109:9113  from */\n      dup2\n        /* \"@openzeppelin/contracts/token/ERC721/ERC721.sol\":9115:9119  auth */\n      dup5\n        /* \"@openzeppelin/contracts/token/ERC721/ERC721.sol\":9121:9128  tokenId */\n      dup7\n        /* \"@openzeppelin/contracts/token/ERC721/ERC721.sol\":9092:9108  _checkAuthorized */\n      tag_300\n        /* \"@openzeppelin/contracts/token/ERC721/ERC721.sol\":9092:9129  _checkAuthorized(from, auth, tokenId) */\n      jump\t// in\n    tag_299:\n      sub(shl(0xa0, 0x01), 0x01)\n        /* \"@openzeppelin/contracts/token/ERC721/ERC721.sol\":9184:9202  from != address(0) */\n      dup2\n      and\n      iszero\n        /* \"@openzeppelin/contracts/token/ERC721/ERC721.sol\":9180:9436  if (from != address(0)) {... */\n      tag_301\n      jumpi\n        /* \"@openzeppelin/contracts/token/ERC721/ERC721.sol\":9300:9348  _approve(address(0), tokenId, address(0), false) */\n      tag_302\n        /* \"@openzeppelin/contracts/token/ERC721/ERC721.sol\":9317:9318  0 */\n      0x00\n        /* \"@openzeppelin/contracts/token/ERC721/ERC721.sol\":9321:9328  tokenId */\n      dup6\n        /* \"@openzeppelin/contracts/token/ERC721/ERC721.sol\":9338:9339  0 */\n      0x00\n        /* \"@openzeppelin/contracts/token/ERC721/ERC721.sol\":9342:9347  false */\n      dup1\n        /* \"@openzeppelin/contracts/token/ERC721/ERC721.sol\":9300:9308  _approve */\n      tag_287\n        /* \"@openzeppelin/contracts/token/ERC721/ERC721.sol\":9300:9348  _approve(address(0), tokenId, address(0), false) */\n      jump\t// in\n    tag_302:\n      sub(shl(0xa0, 0x01), 0x01)\n        /* \"@openzeppelin/contracts/token/ERC721/ERC721.sol\":9391:9406  _balances[from] */\n      dup2\n      and\n      0x00\n      swap1\n      dup2\n      mstore\n        /* \"@openzeppelin/contracts/token/ERC721/ERC721.sol\":9391:9400  _balances */\n      0x03\n        /* \"@openzeppelin/contracts/token/ERC721/ERC721.sol\":9391:9406  _balances[from] */\n      0x20\n      mstore\n      0x40\n      swap1\n      keccak256\n        /* \"@openzeppelin/contracts/token/ERC721/ERC721.sol\":9391:9411  _balances[from] -= 1 */\n      dup1\n      sload\n      not(0x00)\n      add\n      swap1\n      sstore\n        /* \"@openzeppelin/contracts/token/ERC721/ERC721.sol\":9180:9436  if (from != address(0)) {... */\n    tag_301:\n      sub(shl(0xa0, 0x01), 0x01)\n        /* \"@openzeppelin/contracts/token/ERC721/ERC721.sol\":9450:9466  to != address(0) */\n      dup6\n      and\n      iszero\n        /* \"@openzeppelin/contracts/token/ERC721/ERC721.sol\":9446:9553  if (to != address(0)) {... */\n      tag_303\n      jumpi\n      sub(shl(0xa0, 0x01), 0x01)\n        /* \"@openzeppelin/contracts/token/ERC721/ERC721.sol\":9510:9523  _balances[to] */\n      dup6\n      and\n      0x00\n      swap1\n      dup2\n      mstore\n        /* \"@openzeppelin/contracts/token/ERC721/ERC721.sol\":9510:9519  _balances */\n      0x03\n        /* \"@openzeppelin/contracts/token/ERC721/ERC721.sol\":9510:9523  _balances[to] */\n      0x20\n      mstore\n      0x40\n      swap1\n      keccak256\n        /* \"@openzeppelin/contracts/token/ERC721/ERC721.sol\":9510:9528  _balances[to] += 1 */\n      dup1\n      sload\n        /* \"@openzeppelin/contracts/token/ERC721/ERC721.sol\":9527:9528  1 */\n      0x01\n        /* \"@openzeppelin/contracts/token/ERC721/ERC721.sol\":9510:9528  _balances[to] += 1 */\n      add\n      swap1\n      sstore\n        /* \"@openzeppelin/contracts/token/ERC721/ERC721.sol\":9446:9553  if (to != address(0)) {... */\n    tag_303:\n        /* \"@openzeppelin/contracts/token/ERC721/ERC721.sol\":9563:9579  _owners[tokenId] */\n      0x00\n      dup5\n      dup2\n      mstore\n        /* \"@openzeppelin/contracts/token/ERC721/ERC721.sol\":9563:9570  _owners */\n      0x02\n        /* \"@openzeppelin/contracts/token/ERC721/ERC721.sol\":9563:9579  _owners[tokenId] */\n      0x20\n      mstore\n      0x40\n      dup1\n      dup3\n      keccak256\n        /* \"@openzeppelin/contracts/token/ERC721/ERC721.sol\":9563:9584  _owners[tokenId] = to */\n      dup1\n      sload\n      not(sub(shl(0xa0, 0x01), 0x01))\n      and\n      sub(shl(0xa0, 0x01), 0x01)\n      dup10\n      dup2\n      and\n      swap2\n      dup3\n      or\n      swap1\n      swap3\n      sstore\n        /* \"@openzeppelin/contracts/token/ERC721/ERC721.sol\":9600:9627  Transfer(from, to, tokenId) */\n      swap2\n      mload\n        /* \"@openzeppelin/contracts/token/ERC721/ERC721.sol\":9563:9579  _owners[tokenId] */\n      dup8\n      swap4\n        /* \"@openzeppelin/contracts/token/ERC721/ERC721.sol\":9600:9627  Transfer(from, to, tokenId) */\n      swap2\n      dup6\n      and\n      swap2\n      0xddf252ad1be2c89b69c2b068fc378daa952ba7f163c4a11628f55a4df523b3ef\n      swap2\n      log4\n        /* \"@openzeppelin/contracts/token/ERC721/ERC721.sol\":9645:9649  from */\n      swap5\n        /* \"@openzeppelin/contracts/token/ERC721/ERC721.sol\":8861:9656  function _update(address to, uint256 tokenId, address auth) internal virtual returns (address) {... */\n      swap4\n      pop\n      pop\n      pop\n      pop\n      jump\t// out\n        /* \"LockableNFT.sol\":3445:3857  function _removeMintedToken(address owner, uint256 tokenId) private {... */\n    tag_199:\n      sub(shl(0xa0, 0x01), 0x01)\n        /* \"LockableNFT.sol\":3550:3570  _mintedTokens[owner] */\n      dup3\n      and\n        /* \"LockableNFT.sol\":3523:3547  uint256[] storage tokens */\n      0x00\n        /* \"LockableNFT.sol\":3550:3570  _mintedTokens[owner] */\n      swap1\n      dup2\n      mstore\n        /* \"LockableNFT.sol\":3550:3563  _mintedTokens */\n      0x0b\n        /* \"LockableNFT.sol\":3550:3570  _mintedTokens[owner] */\n      0x20\n      mstore\n      0x40\n      dup2\n      keccak256\n        /* \"LockableNFT.sol\":3597:3610  tokens.length */\n      dup1\n      sload\n        /* \"LockableNFT.sol\":3550:3570  _mintedTokens[owner] */\n      swap1\n      swap2\n        /* \"LockableNFT.sol\":3621:3851  for (uint256 i = 0; i < length; i++) {... */\n    tag_305:\n        /* \"LockableNFT.sol\":3645:3651  length */\n      dup2\n        /* \"LockableNFT.sol\":3641:3642  i */\n      dup2\n        /* \"LockableNFT.sol\":3641:3651  i < length */\n      lt\n        /* \"LockableNFT.sol\":3621:3851  for (uint256 i = 0; i < length; i++) {... */\n      iszero\n      tag_306\n      jumpi\n        /* \"LockableNFT.sol\":3689:3696  tokenId */\n      dup4\n        /* \"LockableNFT.sol\":3676:3682  tokens */\n      dup4\n        /* \"LockableNFT.sol\":3683:3684  i */\n      dup3\n        /* \"LockableNFT.sol\":3676:3685  tokens[i] */\n      dup2\n      sload\n      dup2\n      lt\n      tag_309\n      jumpi\n      tag_309\n      tag_310\n      jump\t// in\n    tag_309:\n      swap1\n      0x00\n      mstore\n      keccak256(0x00, 0x20)\n      add\n      sload\n        /* \"LockableNFT.sol\":3676:3696  tokens[i] == tokenId */\n      sub\n        /* \"LockableNFT.sol\":3672:3841  if (tokens[i] == tokenId) {... */\n      tag_312\n      jumpi\n        /* \"LockableNFT.sol\":3728:3734  tokens */\n      dup3\n        /* \"LockableNFT.sol\":3735:3745  length - 1 */\n      tag_313\n        /* \"LockableNFT.sol\":3744:3745  1 */\n      0x01\n        /* \"LockableNFT.sol\":3735:3741  length */\n      dup5\n        /* \"LockableNFT.sol\":3735:3745  length - 1 */\n      tag_314\n      jump\t// in\n    tag_313:\n        /* \"LockableNFT.sol\":3728:3746  tokens[length - 1] */\n      dup2\n      sload\n      dup2\n      lt\n      tag_316\n      jumpi\n      tag_316\n      tag_310\n      jump\t// in\n    tag_316:\n      swap1\n      0x00\n      mstore\n      keccak256(0x00, 0x20)\n      add\n      sload\n        /* \"LockableNFT.sol\":3716:3722  tokens */\n      dup4\n        /* \"LockableNFT.sol\":3723:3724  i */\n      dup3\n        /* \"LockableNFT.sol\":3716:3725  tokens[i] */\n      dup2\n      sload\n      dup2\n      lt\n      tag_319\n      jumpi\n      tag_319\n      tag_310\n      jump\t// in\n    tag_319:\n      swap1\n      0x00\n      mstore\n      keccak256(0x00, 0x20)\n      add\n        /* \"LockableNFT.sol\":3716:3746  tokens[i] = tokens[length - 1] */\n      dup2\n      swap1\n      sstore\n      pop\n        /* \"LockableNFT.sol\":3764:3770  tokens */\n      dup3\n        /* \"LockableNFT.sol\":3764:3776  tokens.pop() */\n      dup1\n      sload\n      dup1\n      tag_322\n      jumpi\n      tag_322\n      tag_323\n      jump\t// in\n    tag_322:\n      0x01\n      swap1\n      sub\n      dup2\n      dup2\n      swap1\n      0x00\n      mstore\n      keccak256(0x00, 0x20)\n      add\n      0x00\n      swap1\n      sstore\n      swap1\n      sstore\n        /* \"LockableNFT.sol\":3821:3826  break */\n      jump(tag_306)\n        /* \"LockableNFT.sol\":3672:3841  if (tokens[i] == tokenId) {... */\n    tag_312:\n        /* \"LockableNFT.sol\":3653:3656  i++ */\n      dup1\n      tag_325\n      dup2\n      tag_166\n      jump\t// in\n    tag_325:\n      swap2\n      pop\n      pop\n        /* \"LockableNFT.sol\":3621:3851  for (uint256 i = 0; i < length; i++) {... */\n      jump(tag_305)\n    tag_306:\n      pop\n        /* \"LockableNFT.sol\":3513:3857  {... */\n      pop\n      pop\n        /* \"LockableNFT.sol\":3445:3857  function _removeMintedToken(address owner, uint256 tokenId) private {... */\n      pop\n      pop\n      jump\t// out\n        /* \"@openzeppelin/contracts/token/ERC721/ERC721.sol\":11510:11737  function _burn(uint256 tokenId) internal {... */\n    tag_201:\n        /* \"@openzeppelin/contracts/token/ERC721/ERC721.sol\":11561:11582  address previousOwner */\n      0x00\n        /* \"@openzeppelin/contracts/token/ERC721/ERC721.sol\":11585:11625  _update(address(0), tokenId, address(0)) */\n      tag_327\n        /* \"@openzeppelin/contracts/token/ERC721/ERC721.sol\":11601:11602  0 */\n      0x00\n        /* \"@openzeppelin/contracts/token/ERC721/ERC721.sol\":11605:11612  tokenId */\n      dup4\n        /* \"@openzeppelin/contracts/token/ERC721/ERC721.sol\":11622:11623  0 */\n      0x00\n        /* \"@openzeppelin/contracts/token/ERC721/ERC721.sol\":11585:11592  _update */\n      tag_182\n        /* \"@openzeppelin/contracts/token/ERC721/ERC721.sol\":11585:11625  _update(address(0), tokenId, address(0)) */\n      jump\t// in\n    tag_327:\n        /* \"@openzeppelin/contracts/token/ERC721/ERC721.sol\":11561:11625  address previousOwner = _update(address(0), tokenId, address(0)) */\n      swap1\n      pop\n      sub(shl(0xa0, 0x01), 0x01)\n        /* \"@openzeppelin/contracts/token/ERC721/ERC721.sol\":11639:11666  previousOwner == address(0) */\n      dup2\n      and\n        /* \"@openzeppelin/contracts/token/ERC721/ERC721.sol\":11635:11731  if (previousOwner == address(0)) {... */\n      tag_154\n      jumpi\n        /* \"@openzeppelin/contracts/token/ERC721/ERC721.sol\":11689:11720  ERC721NonexistentToken(tokenId) */\n      mload(0x40)\n      shl(0xe0, 0x7e273289)\n      dup2\n      mstore\n      0x04\n      dup2\n      add\n        /* \"#utility.yul\":2324:2349   */\n      dup4\n      swap1\n      mstore\n        /* \"#utility.yul\":2297:2315   */\n      0x24\n      add\n        /* \"@openzeppelin/contracts/token/ERC721/ERC721.sol\":11689:11720  ERC721NonexistentToken(tokenId) */\n      tag_163\n        /* \"#utility.yul\":2178:2355   */\n      jump\n        /* \"@openzeppelin/contracts/access/Ownable.sol\":1796:1958  function _checkOwner() internal view virtual {... */\n    tag_226:\n        /* \"@openzeppelin/contracts/access/Ownable.sol\":1710:1716  _owner */\n      and(sub(shl(0xa0, 0x01), 0x01), sload(0x06))\n        /* \"@openzeppelin/contracts/utils/Context.sol\":735:745  msg.sender */\n      caller\n        /* \"@openzeppelin/contracts/access/Ownable.sol\":1855:1878  owner() != _msgSender() */\n      eq\n        /* \"@openzeppelin/contracts/access/Ownable.sol\":1851:1952  if (owner() != _msgSender()) {... */\n      tag_174\n      jumpi\n        /* \"@openzeppelin/contracts/access/Ownable.sol\":1901:1941  OwnableUnauthorizedAccount(_msgSender()) */\n      mload(0x40)\n      shl(0xe0, 0x118cdaa7)\n      dup2\n      mstore\n        /* \"@openzeppelin/contracts/utils/Context.sol\":735:745  msg.sender */\n      caller\n        /* \"@openzeppelin/contracts/access/Ownable.sol\":1901:1941  OwnableUnauthorizedAccount(_msgSender()) */\n      0x04\n      dup3\n      add\n        /* \"#utility.yul\":1679:1730   */\n      mstore\n        /* \"#utility.yul\":1652:1670   */\n      0x24\n      add\n        /* \"@openzeppelin/contracts/access/Ownable.sol\":1901:1941  OwnableUnauthorizedAccount(_msgSender()) */\n      tag_163\n        /* \"#utility.yul\":1533:1736   */\n      jump\n        /* \"@openzeppelin/contracts/access/Ownable.sol\":2912:3099  function _transferOwnership(address newOwner) internal virtual {... */\n    tag_229:\n        /* \"@openzeppelin/contracts/access/Ownable.sol\":3004:3010  _owner */\n      0x06\n      dup1\n      sload\n      sub(shl(0xa0, 0x01), 0x01)\n        /* \"@openzeppelin/contracts/access/Ownable.sol\":3020:3037  _owner = newOwner */\n      dup4\n      dup2\n      and\n      not(sub(shl(0xa0, 0x01), 0x01))\n      dup4\n      and\n      dup2\n      or\n      swap1\n      swap4\n      sstore\n        /* \"@openzeppelin/contracts/access/Ownable.sol\":3052:3092  OwnershipTransferred(oldOwner, newOwner) */\n      mload(0x40)\n        /* \"@openzeppelin/contracts/access/Ownable.sol\":3004:3010  _owner */\n      swap2\n      and\n      swap2\n        /* \"@openzeppelin/contracts/access/Ownable.sol\":3020:3037  _owner = newOwner */\n      swap1\n        /* \"@openzeppelin/contracts/access/Ownable.sol\":3004:3010  _owner */\n      dup3\n      swap1\n        /* \"@openzeppelin/contracts/access/Ownable.sol\":3052:3092  OwnershipTransferred(oldOwner, newOwner) */\n      0x8be0079c531659141344cd1fd0a4f28419497f9722a3daafe3b4186f6b6457e0\n      swap1\n        /* \"@openzeppelin/contracts/access/Ownable.sol\":2985:3001  address oldOwner */\n      0x00\n      swap1\n        /* \"@openzeppelin/contracts/access/Ownable.sol\":3052:3092  OwnershipTransferred(oldOwner, newOwner) */\n      log3\n        /* \"@openzeppelin/contracts/access/Ownable.sol\":2975:3099  {... */\n      pop\n        /* \"@openzeppelin/contracts/access/Ownable.sol\":2912:3099  function _transferOwnership(address newOwner) internal virtual {... */\n      pop\n      jump\t// out\n        /* \"@openzeppelin/contracts/token/ERC721/ERC721.sol\":15665:15977  function _setApprovalForAll(address owner, address operator, bool approved) internal virtual {... */\n    tag_240:\n      sub(shl(0xa0, 0x01), 0x01)\n        /* \"@openzeppelin/contracts/token/ERC721/ERC721.sol\":15772:15794  operator == address(0) */\n      dup3\n      and\n        /* \"@openzeppelin/contracts/token/ERC721/ERC721.sol\":15768:15859  if (operator == address(0)) {... */\n      tag_338\n      jumpi\n        /* \"@openzeppelin/contracts/token/ERC721/ERC721.sol\":15817:15848  ERC721InvalidOperator(operator) */\n      mload(0x40)\n      shl(0xe3, 0x0b611743)\n      dup2\n      mstore\n      sub(shl(0xa0, 0x01), 0x01)\n        /* \"#utility.yul\":1697:1729   */\n      dup4\n      and\n        /* \"@openzeppelin/contracts/token/ERC721/ERC721.sol\":15817:15848  ERC721InvalidOperator(operator) */\n      0x04\n      dup3\n      add\n        /* \"#utility.yul\":1679:1730   */\n      mstore\n        /* \"#utility.yul\":1652:1670   */\n      0x24\n      add\n        /* \"@openzeppelin/contracts/token/ERC721/ERC721.sol\":15817:15848  ERC721InvalidOperator(operator) */\n      tag_163\n        /* \"#utility.yul\":1533:1736   */\n      jump\n        /* \"@openzeppelin/contracts/token/ERC721/ERC721.sol\":15768:15859  if (operator == address(0)) {... */\n    tag_338:\n      sub(shl(0xa0, 0x01), 0x01)\n        /* \"@openzeppelin/contracts/token/ERC721/ERC721.sol\":15868:15893  _operatorApprovals[owner] */\n      dup4\n      dup2\n      and\n      0x00\n      dup2\n      dup2\n      mstore\n        /* \"@openzeppelin/contracts/token/ERC721/ERC721.sol\":15868:15886  _operatorApprovals */\n      0x05\n        /* \"@openzeppelin/contracts/token/ERC721/ERC721.sol\":15868:15893  _operatorApprovals[owner] */\n      0x20\n      swap1\n      dup2\n      mstore\n      0x40\n      dup1\n      dup4\n      keccak256\n        /* \"@openzeppelin/contracts/token/ERC721/ERC721.sol\":15868:15903  _operatorApprovals[owner][operator] */\n      swap5\n      dup8\n      and\n      dup1\n      dup5\n      mstore\n      swap5\n      dup3\n      mstore\n      swap2\n      dup3\n      swap1\n      keccak256\n        /* \"@openzeppelin/contracts/token/ERC721/ERC721.sol\":15868:15914  _operatorApprovals[owner][operator] = approved */\n      dup1\n      sload\n      not(0xff)\n      and\n      dup7\n      iszero\n      iszero\n      swap1\n      dup2\n      or\n      swap1\n      swap2\n      sstore\n        /* \"@openzeppelin/contracts/token/ERC721/ERC721.sol\":15929:15970  ApprovalForAll(owner, operator, approved) */\n      swap2\n      mload\n        /* \"#utility.yul\":540:581   */\n      swap2\n      dup3\n      mstore\n        /* \"@openzeppelin/contracts/token/ERC721/ERC721.sol\":15929:15970  ApprovalForAll(owner, operator, approved) */\n      0x17307eab39ab6107e8899845ad3d59bd9653f200f220920489ca2b5937696c31\n      swap2\n        /* \"#utility.yul\":513:531   */\n      add\n        /* \"@openzeppelin/contracts/token/ERC721/ERC721.sol\":15929:15970  ApprovalForAll(owner, operator, approved) */\n      mload(0x40)\n      dup1\n      swap2\n      sub\n      swap1\n      log3\n        /* \"@openzeppelin/contracts/token/ERC721/ERC721.sol\":15665:15977  function _setApprovalForAll(address owner, address operator, bool approved) internal virtual {... */\n      pop\n      pop\n      pop\n      jump\t// out\n        /* \"@openzeppelin/contracts/token/ERC721/utils/ERC721Utils.sol\":985:1909  function checkOnERC721Received(... */\n    tag_245:\n      sub(shl(0xa0, 0x01), 0x01)\n        /* \"@openzeppelin/contracts/token/ERC721/utils/ERC721Utils.sol\":1165:1179  to.code.length */\n      dup4\n      and\n      extcodesize\n        /* \"@openzeppelin/contracts/token/ERC721/utils/ERC721Utils.sol\":1165:1183  to.code.length > 0 */\n      iszero\n        /* \"@openzeppelin/contracts/token/ERC721/utils/ERC721Utils.sol\":1161:1903  if (to.code.length > 0) {... */\n      tag_306\n      jumpi\n        /* \"@openzeppelin/contracts/token/ERC721/utils/ERC721Utils.sol\":1203:1270  IERC721Receiver(to).onERC721Received(operator, from, tokenId, data) */\n      mload(0x40)\n      shl(0xe1, 0x0a85bd01)\n      dup2\n      mstore\n      sub(shl(0xa0, 0x01), 0x01)\n        /* \"@openzeppelin/contracts/token/ERC721/utils/ERC721Utils.sol\":1203:1239  IERC721Receiver(to).onERC721Received */\n      dup5\n      and\n      swap1\n      0x150b7a02\n      swap1\n        /* \"@openzeppelin/contracts/token/ERC721/utils/ERC721Utils.sol\":1203:1270  IERC721Receiver(to).onERC721Received(operator, from, tokenId, data) */\n      tag_343\n      swap1\n        /* \"@openzeppelin/contracts/token/ERC721/utils/ERC721Utils.sol\":1240:1248  operator */\n      dup9\n      swap1\n        /* \"@openzeppelin/contracts/token/ERC721/utils/ERC721Utils.sol\":1250:1254  from */\n      dup9\n      swap1\n        /* \"@openzeppelin/contracts/token/ERC721/utils/ERC721Utils.sol\":1256:1263  tokenId */\n      dup8\n      swap1\n        /* \"@openzeppelin/contracts/token/ERC721/utils/ERC721Utils.sol\":1265:1269  data */\n      dup8\n      swap1\n        /* \"@openzeppelin/contracts/token/ERC721/utils/ERC721Utils.sol\":1203:1270  IERC721Receiver(to).onERC721Received(operator, from, tokenId, data) */\n      0x04\n      add\n      tag_344\n      jump\t// in\n    tag_343:\n      0x20\n      mload(0x40)\n      dup1\n      dup4\n      sub\n      dup2\n      0x00\n      dup8\n      gas\n      call\n      swap3\n      pop\n      pop\n      pop\n      dup1\n      iszero\n      tag_345\n      jumpi\n      pop\n      0x40\n      dup1\n      mload\n      0x1f\n      returndatasize\n      swap1\n      dup2\n      add\n      not(0x1f)\n      and\n      dup3\n      add\n      swap1\n      swap3\n      mstore\n      tag_346\n      swap2\n      dup2\n      add\n      swap1\n      tag_347\n      jump\t// in\n    tag_346:\n      0x01\n    tag_345:\n        /* \"@openzeppelin/contracts/token/ERC721/utils/ERC721Utils.sol\":1199:1893  try IERC721Receiver(to).onERC721Received(operator, from, tokenId, data) returns (bytes4 retval) {... */\n      tag_348\n      jumpi\n      returndatasize\n      dup1\n      dup1\n      iszero\n      tag_353\n      jumpi\n      mload(0x40)\n      swap2\n      pop\n      and(add(returndatasize, 0x3f), not(0x1f))\n      dup3\n      add\n      0x40\n      mstore\n      returndatasize\n      dup3\n      mstore\n      returndatasize\n      0x00\n      0x20\n      dup5\n      add\n      returndatacopy\n      jump(tag_352)\n    tag_353:\n      0x60\n      swap2\n      pop\n    tag_352:\n      pop\n        /* \"@openzeppelin/contracts/token/ERC721/utils/ERC721Utils.sol\":1560:1566  reason */\n      dup1\n        /* \"@openzeppelin/contracts/token/ERC721/utils/ERC721Utils.sol\":1560:1573  reason.length */\n      mload\n        /* \"@openzeppelin/contracts/token/ERC721/utils/ERC721Utils.sol\":1577:1578  0 */\n      0x00\n        /* \"@openzeppelin/contracts/token/ERC721/utils/ERC721Utils.sol\":1560:1578  reason.length == 0 */\n      sub\n        /* \"@openzeppelin/contracts/token/ERC721/utils/ERC721Utils.sol\":1556:1879  if (reason.length == 0) {... */\n      tag_354\n      jumpi\n        /* \"@openzeppelin/contracts/token/ERC721/utils/ERC721Utils.sol\":1664:1703  IERC721Errors.ERC721InvalidReceiver(to) */\n      mload(0x40)\n      shl(0xe1, 0x32505749)\n      dup2\n      mstore\n      sub(shl(0xa0, 0x01), 0x01)\n        /* \"#utility.yul\":1697:1729   */\n      dup6\n      and\n        /* \"@openzeppelin/contracts/token/ERC721/utils/ERC721Utils.sol\":1664:1703  IERC721Errors.ERC721InvalidReceiver(to) */\n      0x04\n      dup3\n      add\n        /* \"#utility.yul\":1679:1730   */\n      mstore\n        /* \"#utility.yul\":1652:1670   */\n      0x24\n      add\n        /* \"@openzeppelin/contracts/token/ERC721/utils/ERC721Utils.sol\":1664:1703  IERC721Errors.ERC721InvalidReceiver(to) */\n      tag_163\n        /* \"#utility.yul\":1533:1736   */\n      jump\n        /* \"@openzeppelin/contracts/token/ERC721/utils/ERC721Utils.sol\":1556:1879  if (reason.length == 0) {... */\n    tag_354:\n        /* \"@openzeppelin/contracts/token/ERC721/utils/ERC721Utils.sol\":1831:1837  reason */\n      dup1\n        /* \"@openzeppelin/contracts/token/ERC721/utils/ERC721Utils.sol\":1825:1838  mload(reason) */\n      mload\n        /* \"@openzeppelin/contracts/token/ERC721/utils/ERC721Utils.sol\":1816:1822  reason */\n      dup2\n        /* \"@openzeppelin/contracts/token/ERC721/utils/ERC721Utils.sol\":1812:1814  32 */\n      0x20\n        /* \"@openzeppelin/contracts/token/ERC721/utils/ERC721Utils.sol\":1808:1823  add(32, reason) */\n      add\n        /* \"@openzeppelin/contracts/token/ERC721/utils/ERC721Utils.sol\":1801:1839  revert(add(32, reason), mload(reason)) */\n      revert\n        /* \"@openzeppelin/contracts/token/ERC721/utils/ERC721Utils.sol\":1199:1893  try IERC721Receiver(to).onERC721Received(operator, from, tokenId, data) returns (bytes4 retval) {... */\n    tag_348:\n      not(sub(shl(0xe0, 0x01), 0x01))\n        /* \"@openzeppelin/contracts/token/ERC721/utils/ERC721Utils.sol\":1317:1368  retval != IERC721Receiver.onERC721Received.selector */\n      dup2\n      and\n      shl(0xe1, 0x0a85bd01)\n      eq\n        /* \"@openzeppelin/contracts/token/ERC721/utils/ERC721Utils.sol\":1313:1495  if (retval != IERC721Receiver.onERC721Received.selector) {... */\n      tag_358\n      jumpi\n        /* \"@openzeppelin/contracts/token/ERC721/utils/ERC721Utils.sol\":1437:1476  IERC721Errors.ERC721InvalidReceiver(to) */\n      mload(0x40)\n      shl(0xe1, 0x32505749)\n      dup2\n      mstore\n      sub(shl(0xa0, 0x01), 0x01)\n        /* \"#utility.yul\":1697:1729   */\n      dup6\n      and\n        /* \"@openzeppelin/contracts/token/ERC721/utils/ERC721Utils.sol\":1437:1476  IERC721Errors.ERC721InvalidReceiver(to) */\n      0x04\n      dup3\n      add\n        /* \"#utility.yul\":1679:1730   */\n      mstore\n        /* \"#utility.yul\":1652:1670   */\n      0x24\n      add\n        /* \"@openzeppelin/contracts/token/ERC721/utils/ERC721Utils.sol\":1437:1476  IERC721Errors.ERC721InvalidReceiver(to) */\n      tag_163\n        /* \"#utility.yul\":1533:1736   */\n      jump\n        /* \"@openzeppelin/contracts/token/ERC721/utils/ERC721Utils.sol\":1313:1495  if (retval != IERC721Receiver.onERC721Received.selector) {... */\n    tag_358:\n        /* \"@openzeppelin/contracts/token/ERC721/utils/ERC721Utils.sol\":1271:1509  returns (bytes4 retval) {... */\n      pop\n        /* \"@openzeppelin/contracts/token/ERC721/utils/ERC721Utils.sol\":985:1909  function checkOnERC721Received(... */\n      pop\n      pop\n      pop\n      pop\n      pop\n      jump\t// out\n        /* \"@openzeppelin/contracts/utils/Strings.sol\":637:1269  function toString(uint256 value) internal pure returns (string memory) {... */\n    tag_256:\n        /* \"@openzeppelin/contracts/utils/Strings.sol\":693:706  string memory */\n      0x60\n        /* \"@openzeppelin/contracts/utils/Strings.sol\":742:756  uint256 length */\n      0x00\n        /* \"@openzeppelin/contracts/utils/Strings.sol\":759:776  Math.log10(value) */\n      tag_362\n        /* \"@openzeppelin/contracts/utils/Strings.sol\":770:775  value */\n      dup4\n        /* \"@openzeppelin/contracts/utils/Strings.sol\":759:769  Math.log10 */\n      tag_363\n        /* \"@openzeppelin/contracts/utils/Strings.sol\":759:776  Math.log10(value) */\n      jump\t// in\n    tag_362:\n        /* \"@openzeppelin/contracts/utils/Strings.sol\":779:780  1 */\n      0x01\n        /* \"@openzeppelin/contracts/utils/Strings.sol\":759:780  Math.log10(value) + 1 */\n      add\n        /* \"@openzeppelin/contracts/utils/Strings.sol\":742:780  uint256 length = Math.log10(value) + 1 */\n      swap1\n      pop\n        /* \"@openzeppelin/contracts/utils/Strings.sol\":794:814  string memory buffer */\n      0x00\n        /* \"@openzeppelin/contracts/utils/Strings.sol\":828:834  length */\n      dup2\n        /* \"@openzeppelin/contracts/utils/Strings.sol\":817:835  new string(length) */\n      0xffffffffffffffff\n      dup2\n      gt\n      iszero\n      tag_365\n      jumpi\n      tag_365\n      tag_366\n      jump\t// in\n    tag_365:\n      mload(0x40)\n      swap1\n      dup1\n      dup3\n      mstore\n      dup1\n      0x1f\n      add\n      not(0x1f)\n      and\n      0x20\n      add\n      dup3\n      add\n      0x40\n      mstore\n      dup1\n      iszero\n      tag_367\n      jumpi\n      0x20\n      dup3\n      add\n      dup2\n      dup1\n      calldatasize\n      dup4\n      calldatacopy\n      add\n      swap1\n      pop\n    tag_367:\n      pop\n        /* \"@openzeppelin/contracts/utils/Strings.sol\":794:835  string memory buffer = new string(length) */\n      swap1\n      pop\n        /* \"@openzeppelin/contracts/utils/Strings.sol\":924:952  add(buffer, add(32, length)) */\n      dup2\n      dup2\n      add\n        /* \"@openzeppelin/contracts/utils/Strings.sol\":940:942  32 */\n      0x20\n        /* \"@openzeppelin/contracts/utils/Strings.sol\":924:952  add(buffer, add(32, length)) */\n      add\n        /* \"@openzeppelin/contracts/utils/Strings.sol\":979:1226  while (true) {... */\n    tag_368:\n      not(0x00)\n        /* \"@openzeppelin/contracts/utils/Strings.sol\":1010:1015  ptr-- */\n      add\n      shl(0x81, 0x181899199a1a9b1b9c1cb0b131b232b3)\n        /* \"@openzeppelin/contracts/utils/Strings.sol\":1109:1111  10 */\n      0x0a\n        /* \"@openzeppelin/contracts/utils/Strings.sol\":1098:1112  mod(value, 10) */\n      dup7\n      mod\n        /* \"@openzeppelin/contracts/utils/Strings.sol\":1093:1125  byte(mod(value, 10), HEX_DIGITS) */\n      byte\n        /* \"@openzeppelin/contracts/utils/Strings.sol\":1010:1015  ptr-- */\n      dup2\n        /* \"@openzeppelin/contracts/utils/Strings.sol\":1080:1126  mstore8(ptr, byte(mod(value, 10), HEX_DIGITS)) */\n      mstore8\n        /* \"@openzeppelin/contracts/utils/Strings.sol\":1170:1172  10 */\n      0x0a\n        /* \"@openzeppelin/contracts/utils/Strings.sol\":1161:1172  value /= 10 */\n      dup6\n      div\n      swap5\n      pop\n        /* \"@openzeppelin/contracts/utils/Strings.sol\":1190:1211  if (value == 0) break */\n      dup5\n        /* \"@openzeppelin/contracts/utils/Strings.sol\":979:1226  while (true) {... */\n      tag_368\n        /* \"@openzeppelin/contracts/utils/Strings.sol\":1190:1211  if (value == 0) break */\n      jumpi\n      pop\n        /* \"@openzeppelin/contracts/utils/Strings.sol\":1246:1252  buffer */\n      swap4\n        /* \"@openzeppelin/contracts/utils/Strings.sol\":637:1269  function toString(uint256 value) internal pure returns (string memory) {... */\n      swap3\n      pop\n      pop\n      pop\n      jump\t// out\n        /* \"@openzeppelin/contracts/token/ERC721/ERC721.sol\":14794:15456  function _approve(address to, uint256 tokenId, address auth, bool emitEvent) internal virtual {... */\n    tag_287:\n        /* \"@openzeppelin/contracts/token/ERC721/ERC721.sol\":14954:14963  emitEvent */\n      dup1\n        /* \"@openzeppelin/contracts/token/ERC721/ERC721.sol\":14954:14985  emitEvent || auth != address(0) */\n      dup1\n      tag_377\n      jumpi\n      pop\n      sub(shl(0xa0, 0x01), 0x01)\n        /* \"@openzeppelin/contracts/token/ERC721/ERC721.sol\":14967:14985  auth != address(0) */\n      dup3\n      and\n      iszero\n      iszero\n        /* \"@openzeppelin/contracts/token/ERC721/ERC721.sol\":14954:14985  emitEvent || auth != address(0) */\n    tag_377:\n        /* \"@openzeppelin/contracts/token/ERC721/ERC721.sol\":14950:15410  if (emitEvent || auth != address(0)) {... */\n      iszero\n      tag_378\n      jumpi\n        /* \"@openzeppelin/contracts/token/ERC721/ERC721.sol\":15001:15014  address owner */\n      0x00\n        /* \"@openzeppelin/contracts/token/ERC721/ERC721.sol\":15017:15039  _requireOwned(tokenId) */\n      tag_379\n        /* \"@openzeppelin/contracts/token/ERC721/ERC721.sol\":15031:15038  tokenId */\n      dup5\n        /* \"@openzeppelin/contracts/token/ERC721/ERC721.sol\":15017:15030  _requireOwned */\n      tag_150\n        /* \"@openzeppelin/contracts/token/ERC721/ERC721.sol\":15017:15039  _requireOwned(tokenId) */\n      jump\t// in\n    tag_379:\n        /* \"@openzeppelin/contracts/token/ERC721/ERC721.sol\":15001:15039  address owner = _requireOwned(tokenId) */\n      swap1\n      pop\n      sub(shl(0xa0, 0x01), 0x01)\n        /* \"@openzeppelin/contracts/token/ERC721/ERC721.sol\":15167:15185  auth != address(0) */\n      dup4\n      and\n      iszero\n      dup1\n      iszero\n      swap1\n        /* \"@openzeppelin/contracts/token/ERC721/ERC721.sol\":15167:15202  auth != address(0) && owner != auth */\n      tag_380\n      jumpi\n      pop\n        /* \"@openzeppelin/contracts/token/ERC721/ERC721.sol\":15198:15202  auth */\n      dup3\n      sub(shl(0xa0, 0x01), 0x01)\n        /* \"@openzeppelin/contracts/token/ERC721/ERC721.sol\":15189:15202  owner != auth */\n      and\n        /* \"@openzeppelin/contracts/token/ERC721/ERC721.sol\":15189:15194  owner */\n      dup2\n      sub(shl(0xa0, 0x01), 0x01)\n        /* \"@openzeppelin/contracts/token/ERC721/ERC721.sol\":15189:15202  owner != auth */\n      and\n      eq\n      iszero\n        /* \"@openzeppelin/contracts/token/ERC721/ERC721.sol\":15167:15202  auth != address(0) && owner != auth */\n    tag_380:\n        /* \"@openzeppelin/contracts/token/ERC721/ERC721.sol\":15167:15236  auth != address(0) && owner != auth && !isApprovedForAll(owner, auth) */\n      dup1\n      iszero\n      tag_381\n      jumpi\n      pop\n        /* \"@openzeppelin/contracts/token/ERC721/ERC721.sol\":15207:15236  isApprovedForAll(owner, auth) */\n      tag_382\n        /* \"@openzeppelin/contracts/token/ERC721/ERC721.sol\":15224:15229  owner */\n      dup2\n        /* \"@openzeppelin/contracts/token/ERC721/ERC721.sol\":15231:15235  auth */\n      dup5\n        /* \"@openzeppelin/contracts/token/ERC721/ERC721.sol\":15207:15223  isApprovedForAll */\n      tag_128\n        /* \"@openzeppelin/contracts/token/ERC721/ERC721.sol\":15207:15236  isApprovedForAll(owner, auth) */\n      jump\t// in\n    tag_382:\n        /* \"@openzeppelin/contracts/token/ERC721/ERC721.sol\":15206:15236  !isApprovedForAll(owner, auth) */\n      iszero\n        /* \"@openzeppelin/contracts/token/ERC721/ERC721.sol\":15167:15236  auth != address(0) && owner != auth && !isApprovedForAll(owner, auth) */\n    tag_381:\n        /* \"@openzeppelin/contracts/token/ERC721/ERC721.sol\":15163:15305  if (auth != address(0) && owner != auth && !isApprovedForAll(owner, auth)) {... */\n      iszero\n      tag_383\n      jumpi\n        /* \"@openzeppelin/contracts/token/ERC721/ERC721.sol\":15263:15290  ERC721InvalidApprover(auth) */\n      mload(0x40)\n      shl(0xe0, 0xa9fbf51f)\n      dup2\n      mstore\n      sub(shl(0xa0, 0x01), 0x01)\n        /* \"#utility.yul\":1697:1729   */\n      dup5\n      and\n        /* \"@openzeppelin/contracts/token/ERC721/ERC721.sol\":15263:15290  ERC721InvalidApprover(auth) */\n      0x04\n      dup3\n      add\n        /* \"#utility.yul\":1679:1730   */\n      mstore\n        /* \"#utility.yul\":1652:1670   */\n      0x24\n      add\n        /* \"@openzeppelin/contracts/token/ERC721/ERC721.sol\":15263:15290  ERC721InvalidApprover(auth) */\n      tag_163\n        /* \"#utility.yul\":1533:1736   */\n      jump\n        /* \"@openzeppelin/contracts/token/ERC721/ERC721.sol\":15163:15305  if (auth != address(0) && owner != auth && !isApprovedForAll(owner, auth)) {... */\n    tag_383:\n        /* \"@openzeppelin/contracts/token/ERC721/ERC721.sol\":15323:15332  emitEvent */\n      dup2\n        /* \"@openzeppelin/contracts/token/ERC721/ERC721.sol\":15319:15400  if (emitEvent) {... */\n      iszero\n      tag_385\n      jumpi\n        /* \"@openzeppelin/contracts/token/ERC721/ERC721.sol\":15377:15384  tokenId */\n      dup4\n        /* \"@openzeppelin/contracts/token/ERC721/ERC721.sol\":15373:15375  to */\n      dup6\n      sub(shl(0xa0, 0x01), 0x01)\n        /* \"@openzeppelin/contracts/token/ERC721/ERC721.sol\":15357:15385  Approval(owner, to, tokenId) */\n      and\n        /* \"@openzeppelin/contracts/token/ERC721/ERC721.sol\":15366:15371  owner */\n      dup3\n      sub(shl(0xa0, 0x01), 0x01)\n        /* \"@openzeppelin/contracts/token/ERC721/ERC721.sol\":15357:15385  Approval(owner, to, tokenId) */\n      and\n      0x8c5be1e5ebec7d5bd14f71427d1e84f3dd0314c0f7b2291e5b200ac8c7c3b925\n      mload(0x40)\n      mload(0x40)\n      dup1\n      swap2\n      sub\n      swap1\n      log4\n        /* \"@openzeppelin/contracts/token/ERC721/ERC721.sol\":15319:15400  if (emitEvent) {... */\n    tag_385:\n        /* \"@openzeppelin/contracts/token/ERC721/ERC721.sol\":14987:15410  {... */\n      pop\n        /* \"@openzeppelin/contracts/token/ERC721/ERC721.sol\":14950:15410  if (emitEvent || auth != address(0)) {... */\n    tag_378:\n      pop\n      pop\n        /* \"@openzeppelin/contracts/token/ERC721/ERC721.sol\":15420:15444  _tokenApprovals[tokenId] */\n      0x00\n      swap1\n      dup2\n      mstore\n        /* \"@openzeppelin/contracts/token/ERC721/ERC721.sol\":15420:15435  _tokenApprovals */\n      0x04\n        /* \"@openzeppelin/contracts/token/ERC721/ERC721.sol\":15420:15444  _tokenApprovals[tokenId] */\n      0x20\n      mstore\n      0x40\n      swap1\n      keccak256\n        /* \"@openzeppelin/contracts/token/ERC721/ERC721.sol\":15420:15449  _tokenApprovals[tokenId] = to */\n      dup1\n      sload\n      not(sub(shl(0xa0, 0x01), 0x01))\n      and\n      sub(shl(0xa0, 0x01), 0x01)\n      swap3\n      swap1\n      swap3\n      and\n      swap2\n      swap1\n      swap2\n      or\n      swap1\n      sstore\n        /* \"@openzeppelin/contracts/token/ERC721/ERC721.sol\":14794:15456  function _approve(address to, uint256 tokenId, address auth, bool emitEvent) internal virtual {... */\n      jump\t// out\n        /* \"@openzeppelin/contracts/token/ERC721/ERC721.sol\":10977:11184  function _safeMint(address to, uint256 tokenId, bytes memory data) internal virtual {... */\n    tag_294:\n        /* \"@openzeppelin/contracts/token/ERC721/ERC721.sol\":11071:11089  _mint(to, tokenId) */\n      tag_387\n        /* \"@openzeppelin/contracts/token/ERC721/ERC721.sol\":11077:11079  to */\n      dup4\n        /* \"@openzeppelin/contracts/token/ERC721/ERC721.sol\":11081:11088  tokenId */\n      dup4\n        /* \"@openzeppelin/contracts/token/ERC721/ERC721.sol\":11071:11076  _mint */\n      tag_388\n        /* \"@openzeppelin/contracts/token/ERC721/ERC721.sol\":11071:11089  _mint(to, tokenId) */\n      jump\t// in\n    tag_387:\n        /* \"@openzeppelin/contracts/token/ERC721/ERC721.sol\":11099:11177  ERC721Utils.checkOnERC721Received(_msgSender(), address(0), to, tokenId, data) */\n      tag_187\n        /* \"@openzeppelin/contracts/utils/Context.sol\":735:745  msg.sender */\n      caller\n        /* \"@openzeppelin/contracts/token/ERC721/ERC721.sol\":11155:11156  0 */\n      0x00\n        /* \"@openzeppelin/contracts/token/ERC721/ERC721.sol\":11159:11161  to */\n      dup6\n        /* \"@openzeppelin/contracts/token/ERC721/ERC721.sol\":11163:11170  tokenId */\n      dup6\n        /* \"@openzeppelin/contracts/token/ERC721/ERC721.sol\":11172:11176  data */\n      dup6\n        /* \"@openzeppelin/contracts/token/ERC721/ERC721.sol\":11099:11132  ERC721Utils.checkOnERC721Received */\n      tag_245\n        /* \"@openzeppelin/contracts/token/ERC721/ERC721.sol\":11099:11177  ERC721Utils.checkOnERC721Received(_msgSender(), address(0), to, tokenId, data) */\n      jump\t// in\n        /* \"@openzeppelin/contracts/token/ERC721/ERC721.sol\":7105:7473  function _checkAuthorized(address owner, address spender, uint256 tokenId) internal view virtual {... */\n    tag_300:\n        /* \"@openzeppelin/contracts/token/ERC721/ERC721.sol\":7217:7255  _isAuthorized(owner, spender, tokenId) */\n      tag_392\n        /* \"@openzeppelin/contracts/token/ERC721/ERC721.sol\":7231:7236  owner */\n      dup4\n        /* \"@openzeppelin/contracts/token/ERC721/ERC721.sol\":7238:7245  spender */\n      dup4\n        /* \"@openzeppelin/contracts/token/ERC721/ERC721.sol\":7247:7254  tokenId */\n      dup4\n        /* \"@openzeppelin/contracts/token/ERC721/ERC721.sol\":7217:7230  _isAuthorized */\n      tag_393\n        /* \"@openzeppelin/contracts/token/ERC721/ERC721.sol\":7217:7255  _isAuthorized(owner, spender, tokenId) */\n      jump\t// in\n    tag_392:\n        /* \"@openzeppelin/contracts/token/ERC721/ERC721.sol\":7212:7467  if (!_isAuthorized(owner, spender, tokenId)) {... */\n      tag_187\n      jumpi\n      sub(shl(0xa0, 0x01), 0x01)\n        /* \"@openzeppelin/contracts/token/ERC721/ERC721.sol\":7275:7294  owner == address(0) */\n      dup4\n      and\n        /* \"@openzeppelin/contracts/token/ERC721/ERC721.sol\":7271:7457  if (owner == address(0)) {... */\n      tag_395\n      jumpi\n        /* \"@openzeppelin/contracts/token/ERC721/ERC721.sol\":7321:7352  ERC721NonexistentToken(tokenId) */\n      mload(0x40)\n      shl(0xe0, 0x7e273289)\n      dup2\n      mstore\n      0x04\n      dup2\n      add\n        /* \"#utility.yul\":2324:2349   */\n      dup3\n      swap1\n      mstore\n        /* \"#utility.yul\":2297:2315   */\n      0x24\n      add\n        /* \"@openzeppelin/contracts/token/ERC721/ERC721.sol\":7321:7352  ERC721NonexistentToken(tokenId) */\n      tag_163\n        /* \"#utility.yul\":2178:2355   */\n      jump\n        /* \"@openzeppelin/contracts/token/ERC721/ERC721.sol\":7271:7457  if (owner == address(0)) {... */\n    tag_395:\n        /* \"@openzeppelin/contracts/token/ERC721/ERC721.sol\":7398:7442  ERC721InsufficientApproval(spender, tokenId) */\n      mload(0x40)\n      shl(0xe0, 0x177e802f)\n      dup2\n      mstore\n      sub(shl(0xa0, 0x01), 0x01)\n        /* \"#utility.yul\":11348:11380   */\n      dup4\n      and\n        /* \"@openzeppelin/contracts/token/ERC721/ERC721.sol\":7398:7442  ERC721InsufficientApproval(spender, tokenId) */\n      0x04\n      dup3\n      add\n        /* \"#utility.yul\":11330:11381   */\n      mstore\n        /* \"#utility.yul\":11397:11415   */\n      0x24\n      dup2\n      add\n        /* \"#utility.yul\":11390:11424   */\n      dup3\n      swap1\n      mstore\n        /* \"#utility.yul\":11303:11321   */\n      0x44\n      add\n        /* \"@openzeppelin/contracts/token/ERC721/ERC721.sol\":7398:7442  ERC721InsufficientApproval(spender, tokenId) */\n      tag_163\n        /* \"#utility.yul\":11156:11430   */\n      jump\n        /* \"@openzeppelin/contracts/utils/math/Math.sol\":25316:26232  function log10(uint256 value) internal pure returns (uint256) {... */\n    tag_363:\n        /* \"@openzeppelin/contracts/utils/math/Math.sol\":25369:25376  uint256 */\n      0x00\n      dup1\n      shl(0x40, 0x184f03e93ff9f4daa797ed6e38ed64bf6a1f01)\n        /* \"@openzeppelin/contracts/utils/math/Math.sol\":25444:25461  value >= 10 ** 64 */\n      dup4\n      lt\n        /* \"@openzeppelin/contracts/utils/math/Math.sol\":25440:25543  if (value >= 10 ** 64) {... */\n      tag_401\n      jumpi\n      shl(0x40, 0x184f03e93ff9f4daa797ed6e38ed64bf6a1f01)\n        /* \"@openzeppelin/contracts/utils/math/Math.sol\":25481:25498  value /= 10 ** 64 */\n      dup4\n      div\n      swap3\n      pop\n        /* \"@openzeppelin/contracts/utils/math/Math.sol\":25526:25528  64 */\n      0x40\n        /* \"@openzeppelin/contracts/utils/math/Math.sol\":25516:25528  result += 64 */\n      add\n        /* \"@openzeppelin/contracts/utils/math/Math.sol\":25440:25543  if (value >= 10 ** 64) {... */\n    tag_401:\n        /* \"@openzeppelin/contracts/utils/math/Math.sol\":25569:25577  10 ** 32 */\n      0x04ee2d6d415b85acef8100000000\n        /* \"@openzeppelin/contracts/utils/math/Math.sol\":25560:25565  value */\n      dup4\n        /* \"@openzeppelin/contracts/utils/math/Math.sol\":25560:25577  value >= 10 ** 32 */\n      lt\n        /* \"@openzeppelin/contracts/utils/math/Math.sol\":25556:25659  if (value >= 10 ** 32) {... */\n      tag_404\n      jumpi\n        /* \"@openzeppelin/contracts/utils/math/Math.sol\":25606:25614  10 ** 32 */\n      0x04ee2d6d415b85acef8100000000\n        /* \"@openzeppelin/contracts/utils/math/Math.sol\":25597:25614  value /= 10 ** 32 */\n      dup4\n      div\n      swap3\n      pop\n        /* \"@openzeppelin/contracts/utils/math/Math.sol\":25642:25644  32 */\n      0x20\n        /* \"@openzeppelin/contracts/utils/math/Math.sol\":25632:25644  result += 32 */\n      add\n        /* \"@openzeppelin/contracts/utils/math/Math.sol\":25556:25659  if (value >= 10 ** 32) {... */\n    tag_404:\n        /* \"@openzeppelin/contracts/utils/math/Math.sol\":25685:25693  10 ** 16 */\n      0x2386f26fc10000\n        /* \"@openzeppelin/contracts/utils/math/Math.sol\":25676:25681  value */\n      dup4\n        /* \"@openzeppelin/contracts/utils/math/Math.sol\":25676:25693  value >= 10 ** 16 */\n      lt\n        /* \"@openzeppelin/contracts/utils/math/Math.sol\":25672:25775  if (value >= 10 ** 16) {... */\n      tag_407\n      jumpi\n        /* \"@openzeppelin/contracts/utils/math/Math.sol\":25722:25730  10 ** 16 */\n      0x2386f26fc10000\n        /* \"@openzeppelin/contracts/utils/math/Math.sol\":25713:25730  value /= 10 ** 16 */\n      dup4\n      div\n      swap3\n      pop\n        /* \"@openzeppelin/contracts/utils/math/Math.sol\":25758:25760  16 */\n      0x10\n        /* \"@openzeppelin/contracts/utils/math/Math.sol\":25748:25760  result += 16 */\n      add\n        /* \"@openzeppelin/contracts/utils/math/Math.sol\":25672:25775  if (value >= 10 ** 16) {... */\n    tag_407:\n        /* \"@openzeppelin/contracts/utils/math/Math.sol\":25801:25808  10 ** 8 */\n      0x05f5e100\n        /* \"@openzeppelin/contracts/utils/math/Math.sol\":25792:25797  value */\n      dup4\n        /* \"@openzeppelin/contracts/utils/math/Math.sol\":25792:25808  value >= 10 ** 8 */\n      lt\n        /* \"@openzeppelin/contracts/utils/math/Math.sol\":25788:25888  if (value >= 10 ** 8) {... */\n      tag_410\n      jumpi\n        /* \"@openzeppelin/contracts/utils/math/Math.sol\":25837:25844  10 ** 8 */\n      0x05f5e100\n        /* \"@openzeppelin/contracts/utils/math/Math.sol\":25828:25844  value /= 10 ** 8 */\n      dup4\n      div\n      swap3\n      pop\n        /* \"@openzeppelin/contracts/utils/math/Math.sol\":25872:25873  8 */\n      0x08\n        /* \"@openzeppelin/contracts/utils/math/Math.sol\":25862:25873  result += 8 */\n      add\n        /* \"@openzeppelin/contracts/utils/math/Math.sol\":25788:25888  if (value >= 10 ** 8) {... */\n    tag_410:\n        /* \"@openzeppelin/contracts/utils/math/Math.sol\":25914:25921  10 ** 4 */\n      0x2710\n        /* \"@openzeppelin/contracts/utils/math/Math.sol\":25905:25910  value */\n      dup4\n        /* \"@openzeppelin/contracts/utils/math/Math.sol\":25905:25921  value >= 10 ** 4 */\n      lt\n        /* \"@openzeppelin/contracts/utils/math/Math.sol\":25901:26001  if (value >= 10 ** 4) {... */\n      tag_413\n      jumpi\n        /* \"@openzeppelin/contracts/utils/math/Math.sol\":25950:25957  10 ** 4 */\n      0x2710\n        /* \"@openzeppelin/contracts/utils/math/Math.sol\":25941:25957  value /= 10 ** 4 */\n      dup4\n      div\n      swap3\n      pop\n        /* \"@openzeppelin/contracts/utils/math/Math.sol\":25985:25986  4 */\n      0x04\n        /* \"@openzeppelin/contracts/utils/math/Math.sol\":25975:25986  result += 4 */\n      add\n        /* \"@openzeppelin/contracts/utils/math/Math.sol\":25901:26001  if (value >= 10 ** 4) {... */\n    tag_413:\n        /* \"@openzeppelin/contracts/utils/math/Math.sol\":26027:26034  10 ** 2 */\n      0x64\n        /* \"@openzeppelin/contracts/utils/math/Math.sol\":26018:26023  value */\n      dup4\n        /* \"@openzeppelin/contracts/utils/math/Math.sol\":26018:26034  value >= 10 ** 2 */\n      lt\n        /* \"@openzeppelin/contracts/utils/math/Math.sol\":26014:26114  if (value >= 10 ** 2) {... */\n      tag_416\n      jumpi\n        /* \"@openzeppelin/contracts/utils/math/Math.sol\":26063:26070  10 ** 2 */\n      0x64\n        /* \"@openzeppelin/contracts/utils/math/Math.sol\":26054:26070  value /= 10 ** 2 */\n      dup4\n      div\n      swap3\n      pop\n        /* \"@openzeppelin/contracts/utils/math/Math.sol\":26098:26099  2 */\n      0x02\n        /* \"@openzeppelin/contracts/utils/math/Math.sol\":26088:26099  result += 2 */\n      add\n        /* \"@openzeppelin/contracts/utils/math/Math.sol\":26014:26114  if (value >= 10 ** 2) {... */\n    tag_416:\n        /* \"@openzeppelin/contracts/utils/math/Math.sol\":26140:26147  10 ** 1 */\n      0x0a\n        /* \"@openzeppelin/contracts/utils/math/Math.sol\":26131:26136  value */\n      dup4\n        /* \"@openzeppelin/contracts/utils/math/Math.sol\":26131:26147  value >= 10 ** 1 */\n      lt\n        /* \"@openzeppelin/contracts/utils/math/Math.sol\":26127:26193  if (value >= 10 ** 1) {... */\n      tag_139\n      jumpi\n        /* \"@openzeppelin/contracts/utils/math/Math.sol\":26177:26178  1 */\n      0x01\n        /* \"@openzeppelin/contracts/utils/math/Math.sol\":26167:26178  result += 1 */\n      add\n        /* \"@openzeppelin/contracts/utils/math/Math.sol\":26219:26225  result */\n      swap3\n        /* \"@openzeppelin/contracts/utils/math/Math.sol\":25316:26232  function log10(uint256 value) internal pure returns (uint256) {... */\n      swap2\n      pop\n      pop\n      jump\t// out\n        /* \"@openzeppelin/contracts/token/ERC721/ERC721.sol\":9978:10305  function _mint(address to, uint256 tokenId) internal {... */\n    tag_388:\n      sub(shl(0xa0, 0x01), 0x01)\n        /* \"@openzeppelin/contracts/token/ERC721/ERC721.sol\":10045:10061  to == address(0) */\n      dup3\n      and\n        /* \"@openzeppelin/contracts/token/ERC721/ERC721.sol\":10041:10128  if (to == address(0)) {... */\n      tag_421\n      jumpi\n        /* \"@openzeppelin/contracts/token/ERC721/ERC721.sol\":10084:10117  ERC721InvalidReceiver(address(0)) */\n      mload(0x40)\n      shl(0xe1, 0x32505749)\n      dup2\n      mstore\n        /* \"@openzeppelin/contracts/token/ERC721/ERC721.sol\":10114:10115  0 */\n      0x00\n        /* \"@openzeppelin/contracts/token/ERC721/ERC721.sol\":10084:10117  ERC721InvalidReceiver(address(0)) */\n      0x04\n      dup3\n      add\n        /* \"#utility.yul\":1679:1730   */\n      mstore\n        /* \"#utility.yul\":1652:1670   */\n      0x24\n      add\n        /* \"@openzeppelin/contracts/token/ERC721/ERC721.sol\":10084:10117  ERC721InvalidReceiver(address(0)) */\n      tag_163\n        /* \"#utility.yul\":1533:1736   */\n      jump\n        /* \"@openzeppelin/contracts/token/ERC721/ERC721.sol\":10041:10128  if (to == address(0)) {... */\n    tag_421:\n        /* \"@openzeppelin/contracts/token/ERC721/ERC721.sol\":10137:10158  address previousOwner */\n      0x00\n        /* \"@openzeppelin/contracts/token/ERC721/ERC721.sol\":10161:10193  _update(to, tokenId, address(0)) */\n      tag_423\n        /* \"@openzeppelin/contracts/token/ERC721/ERC721.sol\":10169:10171  to */\n      dup4\n        /* \"@openzeppelin/contracts/token/ERC721/ERC721.sol\":10173:10180  tokenId */\n      dup4\n        /* \"@openzeppelin/contracts/token/ERC721/ERC721.sol\":10190:10191  0 */\n      0x00\n        /* \"@openzeppelin/contracts/token/ERC721/ERC721.sol\":10161:10168  _update */\n      tag_182\n        /* \"@openzeppelin/contracts/token/ERC721/ERC721.sol\":10161:10193  _update(to, tokenId, address(0)) */\n      jump\t// in\n    tag_423:\n        /* \"@openzeppelin/contracts/token/ERC721/ERC721.sol\":10137:10193  address previousOwner = _update(to, tokenId, address(0)) */\n      swap1\n      pop\n      sub(shl(0xa0, 0x01), 0x01)\n        /* \"@openzeppelin/contracts/token/ERC721/ERC721.sol\":10207:10234  previousOwner != address(0) */\n      dup2\n      and\n      iszero\n        /* \"@openzeppelin/contracts/token/ERC721/ERC721.sol\":10203:10299  if (previousOwner != address(0)) {... */\n      tag_187\n      jumpi\n        /* \"@openzeppelin/contracts/token/ERC721/ERC721.sol\":10257:10288  ERC721InvalidSender(address(0)) */\n      mload(0x40)\n      shl(0xe1, 0x39e35637)\n      dup2\n      mstore\n        /* \"@openzeppelin/contracts/token/ERC721/ERC721.sol\":10285:10286  0 */\n      0x00\n        /* \"@openzeppelin/contracts/token/ERC721/ERC721.sol\":10257:10288  ERC721InvalidSender(address(0)) */\n      0x04\n      dup3\n      add\n        /* \"#utility.yul\":1679:1730   */\n      mstore\n        /* \"#utility.yul\":1652:1670   */\n      0x24\n      add\n        /* \"@openzeppelin/contracts/token/ERC721/ERC721.sol\":10257:10288  ERC721InvalidSender(address(0)) */\n      tag_163\n        /* \"#utility.yul\":1533:1736   */\n      jump\n        /* \"@openzeppelin/contracts/token/ERC721/ERC721.sol\":6401:6673  function _isAuthorized(address owner, address spender, uint256 tokenId) internal view virtual returns (bool) {... */\n    tag_393:\n        /* \"@openzeppelin/contracts/token/ERC721/ERC721.sol\":6504:6508  bool */\n      0x00\n      sub(shl(0xa0, 0x01), 0x01)\n        /* \"@openzeppelin/contracts/token/ERC721/ERC721.sol\":6539:6560  spender != address(0) */\n      dup4\n      and\n      iszero\n      dup1\n      iszero\n      swap1\n        /* \"@openzeppelin/contracts/token/ERC721/ERC721.sol\":6539:6666  spender != address(0) &&... */\n      tag_430\n      jumpi\n      pop\n        /* \"@openzeppelin/contracts/token/ERC721/ERC721.sol\":6586:6593  spender */\n      dup3\n      sub(shl(0xa0, 0x01), 0x01)\n        /* \"@openzeppelin/contracts/token/ERC721/ERC721.sol\":6577:6593  owner == spender */\n      and\n        /* \"@openzeppelin/contracts/token/ERC721/ERC721.sol\":6577:6582  owner */\n      dup5\n      sub(shl(0xa0, 0x01), 0x01)\n        /* \"@openzeppelin/contracts/token/ERC721/ERC721.sol\":6577:6593  owner == spender */\n      and\n      eq\n        /* \"@openzeppelin/contracts/token/ERC721/ERC721.sol\":6577:6629  owner == spender || isApprovedForAll(owner, spender) */\n      dup1\n      tag_429\n      jumpi\n      pop\n        /* \"@openzeppelin/contracts/token/ERC721/ERC721.sol\":6597:6629  isApprovedForAll(owner, spender) */\n      tag_429\n        /* \"@openzeppelin/contracts/token/ERC721/ERC721.sol\":6614:6619  owner */\n      dup5\n        /* \"@openzeppelin/contracts/token/ERC721/ERC721.sol\":6621:6628  spender */\n      dup5\n        /* \"@openzeppelin/contracts/token/ERC721/ERC721.sol\":6597:6613  isApprovedForAll */\n      tag_128\n        /* \"@openzeppelin/contracts/token/ERC721/ERC721.sol\":6597:6629  isApprovedForAll(owner, spender) */\n      jump\t// in\n    tag_429:\n        /* \"@openzeppelin/contracts/token/ERC721/ERC721.sol\":6577:6665  owner == spender || isApprovedForAll(owner, spender) || _getApproved(tokenId) == spender */\n      dup1\n      tag_430\n      jumpi\n      pop\n        /* \"@openzeppelin/contracts/token/ERC721/ERC721.sol\":6033:6040  address */\n      0x00\n        /* \"@openzeppelin/contracts/token/ERC721/ERC721.sol\":6059:6083  _tokenApprovals[tokenId] */\n      dup3\n      dup2\n      mstore\n        /* \"@openzeppelin/contracts/token/ERC721/ERC721.sol\":6059:6074  _tokenApprovals */\n      0x04\n        /* \"@openzeppelin/contracts/token/ERC721/ERC721.sol\":6059:6083  _tokenApprovals[tokenId] */\n      0x20\n      mstore\n      0x40\n      swap1\n      keccak256\n      sload\n      sub(shl(0xa0, 0x01), 0x01)\n        /* \"@openzeppelin/contracts/token/ERC721/ERC721.sol\":6633:6665  _getApproved(tokenId) == spender */\n      dup5\n      dup2\n      and\n        /* \"@openzeppelin/contracts/token/ERC721/ERC721.sol\":6059:6083  _tokenApprovals[tokenId] */\n      swap2\n      and\n        /* \"@openzeppelin/contracts/token/ERC721/ERC721.sol\":6633:6665  _getApproved(tokenId) == spender */\n      eq\n        /* \"@openzeppelin/contracts/token/ERC721/ERC721.sol\":6577:6665  owner == spender || isApprovedForAll(owner, spender) || _getApproved(tokenId) == spender */\n    tag_430:\n        /* \"@openzeppelin/contracts/token/ERC721/ERC721.sol\":6520:6666  return... */\n      swap5\n        /* \"@openzeppelin/contracts/token/ERC721/ERC721.sol\":6401:6673  function _isAuthorized(address owner, address spender, uint256 tokenId) internal view virtual returns (bool) {... */\n      swap4\n      pop\n      pop\n      pop\n      pop\n      jump\t// out\n        /* \"#utility.yul\":14:145   */\n    tag_432:\n      not(sub(shl(0xe0, 0x01), 0x01))\n        /* \"#utility.yul\":88:120   */\n      dup2\n      and\n        /* \"#utility.yul\":78:121   */\n      dup2\n      eq\n        /* \"#utility.yul\":68:139   */\n      tag_211\n      jumpi\n        /* \"#utility.yul\":135:136   */\n      0x00\n        /* \"#utility.yul\":132:133   */\n      dup1\n        /* \"#utility.yul\":125:137   */\n      revert\n        /* \"#utility.yul\":150:395   */\n    tag_31:\n        /* \"#utility.yul\":208:214   */\n      0x00\n        /* \"#utility.yul\":261:263   */\n      0x20\n        /* \"#utility.yul\":249:258   */\n      dup3\n        /* \"#utility.yul\":240:247   */\n      dup5\n        /* \"#utility.yul\":236:259   */\n      sub\n        /* \"#utility.yul\":232:264   */\n      slt\n        /* \"#utility.yul\":229:281   */\n      iszero\n      tag_441\n      jumpi\n        /* \"#utility.yul\":277:278   */\n      0x00\n        /* \"#utility.yul\":274:275   */\n      dup1\n        /* \"#utility.yul\":267:279   */\n      revert\n        /* \"#utility.yul\":229:281   */\n    tag_441:\n        /* \"#utility.yul\":316:325   */\n      dup2\n        /* \"#utility.yul\":303:326   */\n      calldataload\n        /* \"#utility.yul\":335:365   */\n      tag_254\n        /* \"#utility.yul\":359:364   */\n      dup2\n        /* \"#utility.yul\":335:365   */\n      tag_432\n      jump\t// in\n        /* \"#utility.yul\":592:842   */\n    tag_433:\n        /* \"#utility.yul\":677:678   */\n      0x00\n        /* \"#utility.yul\":687:800   */\n    tag_445:\n        /* \"#utility.yul\":701:707   */\n      dup4\n        /* \"#utility.yul\":698:699   */\n      dup2\n        /* \"#utility.yul\":695:708   */\n      lt\n        /* \"#utility.yul\":687:800   */\n      iszero\n      tag_447\n      jumpi\n        /* \"#utility.yul\":777:788   */\n      dup2\n      dup2\n      add\n        /* \"#utility.yul\":771:789   */\n      mload\n        /* \"#utility.yul\":758:769   */\n      dup4\n      dup3\n      add\n        /* \"#utility.yul\":751:790   */\n      mstore\n        /* \"#utility.yul\":723:725   */\n      0x20\n        /* \"#utility.yul\":716:726   */\n      add\n        /* \"#utility.yul\":687:800   */\n      jump(tag_445)\n    tag_447:\n      pop\n      pop\n        /* \"#utility.yul\":834:835   */\n      0x00\n        /* \"#utility.yul\":816:832   */\n      swap2\n      add\n        /* \"#utility.yul\":809:836   */\n      mstore\n        /* \"#utility.yul\":592:842   */\n      jump\t// out\n        /* \"#utility.yul\":847:1118   */\n    tag_434:\n        /* \"#utility.yul\":889:892   */\n      0x00\n        /* \"#utility.yul\":927:932   */\n      dup2\n        /* \"#utility.yul\":921:933   */\n      mload\n        /* \"#utility.yul\":954:960   */\n      dup1\n        /* \"#utility.yul\":949:952   */\n      dup5\n        /* \"#utility.yul\":942:961   */\n      mstore\n        /* \"#utility.yul\":970:1046   */\n      tag_449\n        /* \"#utility.yul\":1039:1045   */\n      dup2\n        /* \"#utility.yul\":1032:1036   */\n      0x20\n        /* \"#utility.yul\":1027:1030   */\n      dup7\n        /* \"#utility.yul\":1023:1037   */\n      add\n        /* \"#utility.yul\":1016:1020   */\n      0x20\n        /* \"#utility.yul\":1009:1014   */\n      dup7\n        /* \"#utility.yul\":1005:1021   */\n      add\n        /* \"#utility.yul\":970:1046   */\n      tag_433\n      jump\t// in\n    tag_449:\n        /* \"#utility.yul\":1100:1102   */\n      0x1f\n        /* \"#utility.yul\":1079:1094   */\n      add\n      not(0x1f)\n        /* \"#utility.yul\":1075:1104   */\n      and\n        /* \"#utility.yul\":1066:1105   */\n      swap3\n      swap1\n      swap3\n      add\n        /* \"#utility.yul\":1107:1111   */\n      0x20\n        /* \"#utility.yul\":1062:1112   */\n      add\n      swap3\n        /* \"#utility.yul\":847:1118   */\n      swap2\n      pop\n      pop\n      jump\t// out\n        /* \"#utility.yul\":1123:1343   */\n    tag_39:\n        /* \"#utility.yul\":1272:1274   */\n      0x20\n        /* \"#utility.yul\":1261:1270   */\n      dup2\n        /* \"#utility.yul\":1254:1275   */\n      mstore\n        /* \"#utility.yul\":1235:1239   */\n      0x00\n        /* \"#utility.yul\":1292:1337   */\n      tag_254\n        /* \"#utility.yul\":1333:1335   */\n      0x20\n        /* \"#utility.yul\":1322:1331   */\n      dup4\n        /* \"#utility.yul\":1318:1336   */\n      add\n        /* \"#utility.yul\":1310:1316   */\n      dup5\n        /* \"#utility.yul\":1292:1337   */\n      tag_434\n      jump\t// in\n        /* \"#utility.yul\":1348:1528   */\n    tag_43:\n        /* \"#utility.yul\":1407:1413   */\n      0x00\n        /* \"#utility.yul\":1460:1462   */\n      0x20\n        /* \"#utility.yul\":1448:1457   */\n      dup3\n        /* \"#utility.yul\":1439:1446   */\n      dup5\n        /* \"#utility.yul\":1435:1458   */\n      sub\n        /* \"#utility.yul\":1431:1463   */\n      slt\n        /* \"#utility.yul\":1428:1480   */\n      iszero\n      tag_453\n      jumpi\n        /* \"#utility.yul\":1476:1477   */\n      0x00\n        /* \"#utility.yul\":1473:1474   */\n      dup1\n        /* \"#utility.yul\":1466:1478   */\n      revert\n        /* \"#utility.yul\":1428:1480   */\n    tag_453:\n      pop\n        /* \"#utility.yul\":1499:1522   */\n      calldataload\n      swap2\n        /* \"#utility.yul\":1348:1528   */\n      swap1\n      pop\n      jump\t// out\n        /* \"#utility.yul\":1741:1914   */\n    tag_435:\n        /* \"#utility.yul\":1809:1829   */\n      dup1\n      calldataload\n      sub(shl(0xa0, 0x01), 0x01)\n        /* \"#utility.yul\":1858:1889   */\n      dup2\n      and\n        /* \"#utility.yul\":1848:1890   */\n      dup2\n      eq\n        /* \"#utility.yul\":1838:1908   */\n      tag_456\n      jumpi\n        /* \"#utility.yul\":1904:1905   */\n      0x00\n        /* \"#utility.yul\":1901:1902   */\n      dup1\n        /* \"#utility.yul\":1894:1906   */\n      revert\n        /* \"#utility.yul\":1838:1908   */\n    tag_456:\n        /* \"#utility.yul\":1741:1914   */\n      swap2\n      swap1\n      pop\n      jump\t// out\n        /* \"#utility.yul\":1919:2173   */\n    tag_50:\n        /* \"#utility.yul\":1987:1993   */\n      0x00\n        /* \"#utility.yul\":1995:2001   */\n      dup1\n        /* \"#utility.yul\":2048:2050   */\n      0x40\n        /* \"#utility.yul\":2036:2045   */\n      dup4\n        /* \"#utility.yul\":2027:2034   */\n      dup6\n        /* \"#utility.yul\":2023:2046   */\n      sub\n        /* \"#utility.yul\":2019:2051   */\n      slt\n        /* \"#utility.yul\":2016:2068   */\n      iszero\n      tag_458\n      jumpi\n        /* \"#utility.yul\":2064:2065   */\n      0x00\n        /* \"#utility.yul\":2061:2062   */\n      dup1\n        /* \"#utility.yul\":2054:2066   */\n      revert\n        /* \"#utility.yul\":2016:2068   */\n    tag_458:\n        /* \"#utility.yul\":2087:2116   */\n      tag_459\n        /* \"#utility.yul\":2106:2115   */\n      dup4\n        /* \"#utility.yul\":2087:2116   */\n      tag_435\n      jump\t// in\n    tag_459:\n        /* \"#utility.yul\":2077:2116   */\n      swap5\n        /* \"#utility.yul\":2163:2165   */\n      0x20\n        /* \"#utility.yul\":2148:2166   */\n      swap4\n      swap1\n      swap4\n      add\n        /* \"#utility.yul\":2135:2167   */\n      calldataload\n      swap4\n      pop\n      pop\n      pop\n        /* \"#utility.yul\":1919:2173   */\n      jump\t// out\n        /* \"#utility.yul\":2360:2688   */\n    tag_63:\n        /* \"#utility.yul\":2437:2443   */\n      0x00\n        /* \"#utility.yul\":2445:2451   */\n      dup1\n        /* \"#utility.yul\":2453:2459   */\n      0x00\n        /* \"#utility.yul\":2506:2508   */\n      0x60\n        /* \"#utility.yul\":2494:2503   */\n      dup5\n        /* \"#utility.yul\":2485:2492   */\n      dup7\n        /* \"#utility.yul\":2481:2504   */\n      sub\n        /* \"#utility.yul\":2477:2509   */\n      slt\n        /* \"#utility.yul\":2474:2526   */\n      iszero\n      tag_462\n      jumpi\n        /* \"#utility.yul\":2522:2523   */\n      0x00\n        /* \"#utility.yul\":2519:2520   */\n      dup1\n        /* \"#utility.yul\":2512:2524   */\n      revert\n        /* \"#utility.yul\":2474:2526   */\n    tag_462:\n        /* \"#utility.yul\":2545:2574   */\n      tag_463\n        /* \"#utility.yul\":2564:2573   */\n      dup5\n        /* \"#utility.yul\":2545:2574   */\n      tag_435\n      jump\t// in\n    tag_463:\n        /* \"#utility.yul\":2535:2574   */\n      swap3\n      pop\n        /* \"#utility.yul\":2593:2631   */\n      tag_464\n        /* \"#utility.yul\":2627:2629   */\n      0x20\n        /* \"#utility.yul\":2616:2625   */\n      dup6\n        /* \"#utility.yul\":2612:2630   */\n      add\n        /* \"#utility.yul\":2593:2631   */\n      tag_435\n      jump\t// in\n    tag_464:\n        /* \"#utility.yul\":2583:2631   */\n      swap2\n      pop\n        /* \"#utility.yul\":2678:2680   */\n      0x40\n        /* \"#utility.yul\":2667:2676   */\n      dup5\n        /* \"#utility.yul\":2663:2681   */\n      add\n        /* \"#utility.yul\":2650:2682   */\n      calldataload\n        /* \"#utility.yul\":2640:2682   */\n      swap1\n      pop\n        /* \"#utility.yul\":2360:2688   */\n      swap3\n      pop\n      swap3\n      pop\n      swap3\n      jump\t// out\n        /* \"#utility.yul\":2693:2879   */\n    tag_85:\n        /* \"#utility.yul\":2752:2758   */\n      0x00\n        /* \"#utility.yul\":2805:2807   */\n      0x20\n        /* \"#utility.yul\":2793:2802   */\n      dup3\n        /* \"#utility.yul\":2784:2791   */\n      dup5\n        /* \"#utility.yul\":2780:2803   */\n      sub\n        /* \"#utility.yul\":2776:2808   */\n      slt\n        /* \"#utility.yul\":2773:2825   */\n      iszero\n      tag_466\n      jumpi\n        /* \"#utility.yul\":2821:2822   */\n      0x00\n        /* \"#utility.yul\":2818:2819   */\n      dup1\n        /* \"#utility.yul\":2811:2823   */\n      revert\n        /* \"#utility.yul\":2773:2825   */\n    tag_466:\n        /* \"#utility.yul\":2844:2873   */\n      tag_254\n        /* \"#utility.yul\":2863:2872   */\n      dup3\n        /* \"#utility.yul\":2844:2873   */\n      tag_435\n      jump\t// in\n        /* \"#utility.yul\":2884:3231   */\n    tag_102:\n        /* \"#utility.yul\":2949:2955   */\n      0x00\n        /* \"#utility.yul\":2957:2963   */\n      dup1\n        /* \"#utility.yul\":3010:3012   */\n      0x40\n        /* \"#utility.yul\":2998:3007   */\n      dup4\n        /* \"#utility.yul\":2989:2996   */\n      dup6\n        /* \"#utility.yul\":2985:3008   */\n      sub\n        /* \"#utility.yul\":2981:3013   */\n      slt\n        /* \"#utility.yul\":2978:3030   */\n      iszero\n      tag_469\n      jumpi\n        /* \"#utility.yul\":3026:3027   */\n      0x00\n        /* \"#utility.yul\":3023:3024   */\n      dup1\n        /* \"#utility.yul\":3016:3028   */\n      revert\n        /* \"#utility.yul\":2978:3030   */\n    tag_469:\n        /* \"#utility.yul\":3049:3078   */\n      tag_470\n        /* \"#utility.yul\":3068:3077   */\n      dup4\n        /* \"#utility.yul\":3049:3078   */\n      tag_435\n      jump\t// in\n    tag_470:\n        /* \"#utility.yul\":3039:3078   */\n      swap2\n      pop\n        /* \"#utility.yul\":3128:3130   */\n      0x20\n        /* \"#utility.yul\":3117:3126   */\n      dup4\n        /* \"#utility.yul\":3113:3131   */\n      add\n        /* \"#utility.yul\":3100:3132   */\n      calldataload\n        /* \"#utility.yul\":3175:3180   */\n      dup1\n        /* \"#utility.yul\":3168:3181   */\n      iszero\n        /* \"#utility.yul\":3161:3182   */\n      iszero\n        /* \"#utility.yul\":3154:3159   */\n      dup2\n        /* \"#utility.yul\":3151:3183   */\n      eq\n        /* \"#utility.yul\":3141:3201   */\n      tag_471\n      jumpi\n        /* \"#utility.yul\":3197:3198   */\n      0x00\n        /* \"#utility.yul\":3194:3195   */\n      dup1\n        /* \"#utility.yul\":3187:3199   */\n      revert\n        /* \"#utility.yul\":3141:3201   */\n    tag_471:\n        /* \"#utility.yul\":3220:3225   */\n      dup1\n        /* \"#utility.yul\":3210:3225   */\n      swap2\n      pop\n      pop\n        /* \"#utility.yul\":2884:3231   */\n      swap3\n      pop\n      swap3\n      swap1\n      pop\n      jump\t// out\n        /* \"#utility.yul\":3236:3363   */\n    tag_366:\n        /* \"#utility.yul\":3297:3307   */\n      0x4e487b71\n        /* \"#utility.yul\":3292:3295   */\n      0xe0\n        /* \"#utility.yul\":3288:3308   */\n      shl\n        /* \"#utility.yul\":3285:3286   */\n      0x00\n        /* \"#utility.yul\":3278:3309   */\n      mstore\n        /* \"#utility.yul\":3328:3332   */\n      0x41\n        /* \"#utility.yul\":3325:3326   */\n      0x04\n        /* \"#utility.yul\":3318:3333   */\n      mstore\n        /* \"#utility.yul\":3352:3356   */\n      0x24\n        /* \"#utility.yul\":3349:3350   */\n      0x00\n        /* \"#utility.yul\":3342:3357   */\n      revert\n        /* \"#utility.yul\":3368:4506   */\n    tag_107:\n        /* \"#utility.yul\":3463:3469   */\n      0x00\n        /* \"#utility.yul\":3471:3477   */\n      dup1\n        /* \"#utility.yul\":3479:3485   */\n      0x00\n        /* \"#utility.yul\":3487:3493   */\n      dup1\n        /* \"#utility.yul\":3540:3543   */\n      0x80\n        /* \"#utility.yul\":3528:3537   */\n      dup6\n        /* \"#utility.yul\":3519:3526   */\n      dup8\n        /* \"#utility.yul\":3515:3538   */\n      sub\n        /* \"#utility.yul\":3511:3544   */\n      slt\n        /* \"#utility.yul\":3508:3561   */\n      iszero\n      tag_474\n      jumpi\n        /* \"#utility.yul\":3557:3558   */\n      0x00\n        /* \"#utility.yul\":3554:3555   */\n      dup1\n        /* \"#utility.yul\":3547:3559   */\n      revert\n        /* \"#utility.yul\":3508:3561   */\n    tag_474:\n        /* \"#utility.yul\":3580:3609   */\n      tag_475\n        /* \"#utility.yul\":3599:3608   */\n      dup6\n        /* \"#utility.yul\":3580:3609   */\n      tag_435\n      jump\t// in\n    tag_475:\n        /* \"#utility.yul\":3570:3609   */\n      swap4\n      pop\n        /* \"#utility.yul\":3628:3666   */\n      tag_476\n        /* \"#utility.yul\":3662:3664   */\n      0x20\n        /* \"#utility.yul\":3651:3660   */\n      dup7\n        /* \"#utility.yul\":3647:3665   */\n      add\n        /* \"#utility.yul\":3628:3666   */\n      tag_435\n      jump\t// in\n    tag_476:\n        /* \"#utility.yul\":3618:3666   */\n      swap3\n      pop\n        /* \"#utility.yul\":3713:3715   */\n      0x40\n        /* \"#utility.yul\":3702:3711   */\n      dup6\n        /* \"#utility.yul\":3698:3716   */\n      add\n        /* \"#utility.yul\":3685:3717   */\n      calldataload\n        /* \"#utility.yul\":3675:3717   */\n      swap2\n      pop\n        /* \"#utility.yul\":3768:3770   */\n      0x60\n        /* \"#utility.yul\":3757:3766   */\n      dup6\n        /* \"#utility.yul\":3753:3771   */\n      add\n        /* \"#utility.yul\":3740:3772   */\n      calldataload\n        /* \"#utility.yul\":3791:3809   */\n      0xffffffffffffffff\n        /* \"#utility.yul\":3832:3834   */\n      dup1\n        /* \"#utility.yul\":3824:3830   */\n      dup3\n        /* \"#utility.yul\":3821:3835   */\n      gt\n        /* \"#utility.yul\":3818:3852   */\n      iszero\n      tag_477\n      jumpi\n        /* \"#utility.yul\":3848:3849   */\n      0x00\n        /* \"#utility.yul\":3845:3846   */\n      dup1\n        /* \"#utility.yul\":3838:3850   */\n      revert\n        /* \"#utility.yul\":3818:3852   */\n    tag_477:\n        /* \"#utility.yul\":3886:3892   */\n      dup2\n        /* \"#utility.yul\":3875:3884   */\n      dup8\n        /* \"#utility.yul\":3871:3893   */\n      add\n        /* \"#utility.yul\":3861:3893   */\n      swap2\n      pop\n        /* \"#utility.yul\":3931:3938   */\n      dup8\n        /* \"#utility.yul\":3924:3928   */\n      0x1f\n        /* \"#utility.yul\":3920:3922   */\n      dup4\n        /* \"#utility.yul\":3916:3929   */\n      add\n        /* \"#utility.yul\":3912:3939   */\n      slt\n        /* \"#utility.yul\":3902:3957   */\n      tag_478\n      jumpi\n        /* \"#utility.yul\":3953:3954   */\n      0x00\n        /* \"#utility.yul\":3950:3951   */\n      dup1\n        /* \"#utility.yul\":3943:3955   */\n      revert\n        /* \"#utility.yul\":3902:3957   */\n    tag_478:\n        /* \"#utility.yul\":3989:3991   */\n      dup2\n        /* \"#utility.yul\":3976:3992   */\n      calldataload\n        /* \"#utility.yul\":4011:4013   */\n      dup2\n        /* \"#utility.yul\":4007:4009   */\n      dup2\n        /* \"#utility.yul\":4004:4014   */\n      gt\n        /* \"#utility.yul\":4001:4037   */\n      iszero\n      tag_480\n      jumpi\n        /* \"#utility.yul\":4017:4035   */\n      tag_480\n      tag_366\n      jump\t// in\n    tag_480:\n        /* \"#utility.yul\":4092:4094   */\n      0x40\n        /* \"#utility.yul\":4086:4095   */\n      mload\n        /* \"#utility.yul\":4060:4062   */\n      0x1f\n        /* \"#utility.yul\":4146:4159   */\n      dup3\n      add\n      not(0x1f)\n        /* \"#utility.yul\":4142:4164   */\n      swap1\n      dup2\n      and\n        /* \"#utility.yul\":4166:4168   */\n      0x3f\n        /* \"#utility.yul\":4138:4169   */\n      add\n        /* \"#utility.yul\":4134:4174   */\n      and\n        /* \"#utility.yul\":4122:4175   */\n      dup2\n      add\n      swap1\n        /* \"#utility.yul\":4190:4208   */\n      dup4\n      dup3\n      gt\n        /* \"#utility.yul\":4210:4232   */\n      dup2\n      dup4\n      lt\n        /* \"#utility.yul\":4187:4233   */\n      or\n        /* \"#utility.yul\":4184:4256   */\n      iszero\n      tag_482\n      jumpi\n        /* \"#utility.yul\":4236:4254   */\n      tag_482\n      tag_366\n      jump\t// in\n    tag_482:\n        /* \"#utility.yul\":4276:4286   */\n      dup2\n        /* \"#utility.yul\":4272:4274   */\n      0x40\n        /* \"#utility.yul\":4265:4287   */\n      mstore\n        /* \"#utility.yul\":4311:4313   */\n      dup3\n        /* \"#utility.yul\":4303:4309   */\n      dup2\n        /* \"#utility.yul\":4296:4314   */\n      mstore\n        /* \"#utility.yul\":4351:4358   */\n      dup11\n        /* \"#utility.yul\":4346:4348   */\n      0x20\n        /* \"#utility.yul\":4341:4343   */\n      dup5\n        /* \"#utility.yul\":4337:4339   */\n      dup8\n        /* \"#utility.yul\":4333:4344   */\n      add\n        /* \"#utility.yul\":4329:4349   */\n      add\n        /* \"#utility.yul\":4326:4359   */\n      gt\n        /* \"#utility.yul\":4323:4376   */\n      iszero\n      tag_483\n      jumpi\n        /* \"#utility.yul\":4372:4373   */\n      0x00\n        /* \"#utility.yul\":4369:4370   */\n      dup1\n        /* \"#utility.yul\":4362:4374   */\n      revert\n        /* \"#utility.yul\":4323:4376   */\n    tag_483:\n        /* \"#utility.yul\":4428:4430   */\n      dup3\n        /* \"#utility.yul\":4423:4425   */\n      0x20\n        /* \"#utility.yul\":4419:4421   */\n      dup7\n        /* \"#utility.yul\":4415:4426   */\n      add\n        /* \"#utility.yul\":4410:4412   */\n      0x20\n        /* \"#utility.yul\":4402:4408   */\n      dup4\n        /* \"#utility.yul\":4398:4413   */\n      add\n        /* \"#utility.yul\":4385:4431   */\n      calldatacopy\n        /* \"#utility.yul\":4473:4474   */\n      0x00\n        /* \"#utility.yul\":4468:4470   */\n      0x20\n        /* \"#utility.yul\":4463:4465   */\n      dup5\n        /* \"#utility.yul\":4455:4461   */\n      dup4\n        /* \"#utility.yul\":4451:4466   */\n      add\n        /* \"#utility.yul\":4447:4471   */\n      add\n        /* \"#utility.yul\":4440:4475   */\n      mstore\n        /* \"#utility.yul\":4494:4500   */\n      dup1\n        /* \"#utility.yul\":4484:4500   */\n      swap6\n      pop\n      pop\n      pop\n      pop\n      pop\n      pop\n        /* \"#utility.yul\":3368:4506   */\n      swap3\n      swap6\n      swap2\n      swap5\n      pop\n      swap3\n      pop\n      jump\t// out\n        /* \"#utility.yul\":4511:5143   */\n    tag_118:\n        /* \"#utility.yul\":4682:4684   */\n      0x20\n        /* \"#utility.yul\":4734:4755   */\n      dup1\n      dup3\n      mstore\n        /* \"#utility.yul\":4804:4817   */\n      dup3\n      mload\n        /* \"#utility.yul\":4707:4725   */\n      dup3\n      dup3\n      add\n        /* \"#utility.yul\":4826:4848   */\n      dup2\n      swap1\n      mstore\n        /* \"#utility.yul\":4653:4657   */\n      0x00\n      swap2\n        /* \"#utility.yul\":4682:4684   */\n      swap1\n        /* \"#utility.yul\":4905:4920   */\n      dup5\n      dup3\n      add\n      swap1\n        /* \"#utility.yul\":4879:4881   */\n      0x40\n        /* \"#utility.yul\":4864:4882   */\n      dup6\n      add\n      swap1\n        /* \"#utility.yul\":4653:4657   */\n      dup5\n        /* \"#utility.yul\":4948:5117   */\n    tag_485:\n        /* \"#utility.yul\":4962:4968   */\n      dup2\n        /* \"#utility.yul\":4959:4960   */\n      dup2\n        /* \"#utility.yul\":4956:4969   */\n      lt\n        /* \"#utility.yul\":4948:5117   */\n      iszero\n      tag_487\n      jumpi\n        /* \"#utility.yul\":5023:5036   */\n      dup4\n      mload\n        /* \"#utility.yul\":5011:5037   */\n      dup4\n      mstore\n        /* \"#utility.yul\":5092:5107   */\n      swap3\n      dup5\n      add\n      swap3\n        /* \"#utility.yul\":5057:5069   */\n      swap2\n      dup5\n      add\n      swap2\n        /* \"#utility.yul\":4984:4985   */\n      0x01\n        /* \"#utility.yul\":4977:4986   */\n      add\n        /* \"#utility.yul\":4948:5117   */\n      jump(tag_485)\n    tag_487:\n      pop\n        /* \"#utility.yul\":5134:5137   */\n      swap1\n      swap7\n        /* \"#utility.yul\":4511:5143   */\n      swap6\n      pop\n      pop\n      pop\n      pop\n      pop\n      pop\n      jump\t// out\n        /* \"#utility.yul\":5148:5408   */\n    tag_127:\n        /* \"#utility.yul\":5216:5222   */\n      0x00\n        /* \"#utility.yul\":5224:5230   */\n      dup1\n        /* \"#utility.yul\":5277:5279   */\n      0x40\n        /* \"#utility.yul\":5265:5274   */\n      dup4\n        /* \"#utility.yul\":5256:5263   */\n      dup6\n        /* \"#utility.yul\":5252:5275   */\n      sub\n        /* \"#utility.yul\":5248:5280   */\n      slt\n        /* \"#utility.yul\":5245:5297   */\n      iszero\n      tag_489\n      jumpi\n        /* \"#utility.yul\":5293:5294   */\n      0x00\n        /* \"#utility.yul\":5290:5291   */\n      dup1\n        /* \"#utility.yul\":5283:5295   */\n      revert\n        /* \"#utility.yul\":5245:5297   */\n    tag_489:\n        /* \"#utility.yul\":5316:5345   */\n      tag_490\n        /* \"#utility.yul\":5335:5344   */\n      dup4\n        /* \"#utility.yul\":5316:5345   */\n      tag_435\n      jump\t// in\n    tag_490:\n        /* \"#utility.yul\":5306:5345   */\n      swap2\n      pop\n        /* \"#utility.yul\":5364:5402   */\n      tag_491\n        /* \"#utility.yul\":5398:5400   */\n      0x20\n        /* \"#utility.yul\":5387:5396   */\n      dup5\n        /* \"#utility.yul\":5383:5401   */\n      add\n        /* \"#utility.yul\":5364:5402   */\n      tag_435\n      jump\t// in\n    tag_491:\n        /* \"#utility.yul\":5354:5402   */\n      swap1\n      pop\n        /* \"#utility.yul\":5148:5408   */\n      swap3\n      pop\n      swap3\n      swap1\n      pop\n      jump\t// out\n        /* \"#utility.yul\":5413:5793   */\n    tag_143:\n        /* \"#utility.yul\":5492:5493   */\n      0x01\n        /* \"#utility.yul\":5488:5500   */\n      dup2\n      dup2\n      shr\n      swap1\n        /* \"#utility.yul\":5535:5547   */\n      dup3\n      and\n      dup1\n        /* \"#utility.yul\":5556:5617   */\n      tag_493\n      jumpi\n        /* \"#utility.yul\":5610:5614   */\n      0x7f\n        /* \"#utility.yul\":5602:5608   */\n      dup3\n        /* \"#utility.yul\":5598:5615   */\n      and\n        /* \"#utility.yul\":5588:5615   */\n      swap2\n      pop\n        /* \"#utility.yul\":5556:5617   */\n    tag_493:\n        /* \"#utility.yul\":5663:5665   */\n      0x20\n        /* \"#utility.yul\":5655:5661   */\n      dup3\n        /* \"#utility.yul\":5652:5666   */\n      lt\n        /* \"#utility.yul\":5632:5650   */\n      dup2\n        /* \"#utility.yul\":5629:5667   */\n      sub\n        /* \"#utility.yul\":5626:5787   */\n      tag_214\n      jumpi\n        /* \"#utility.yul\":5709:5719   */\n      0x4e487b71\n        /* \"#utility.yul\":5704:5707   */\n      0xe0\n        /* \"#utility.yul\":5700:5720   */\n      shl\n        /* \"#utility.yul\":5697:5698   */\n      0x00\n        /* \"#utility.yul\":5690:5721   */\n      mstore\n        /* \"#utility.yul\":5744:5748   */\n      0x22\n        /* \"#utility.yul\":5741:5742   */\n      0x04\n        /* \"#utility.yul\":5734:5749   */\n      mstore\n        /* \"#utility.yul\":5772:5776   */\n      0x24\n        /* \"#utility.yul\":5769:5770   */\n      0x00\n        /* \"#utility.yul\":5762:5777   */\n      revert\n        /* \"#utility.yul\":6201:6328   */\n    tag_436:\n        /* \"#utility.yul\":6262:6272   */\n      0x4e487b71\n        /* \"#utility.yul\":6257:6260   */\n      0xe0\n        /* \"#utility.yul\":6253:6273   */\n      shl\n        /* \"#utility.yul\":6250:6251   */\n      0x00\n        /* \"#utility.yul\":6243:6274   */\n      mstore\n        /* \"#utility.yul\":6293:6297   */\n      0x11\n        /* \"#utility.yul\":6290:6291   */\n      0x04\n        /* \"#utility.yul\":6283:6298   */\n      mstore\n        /* \"#utility.yul\":6317:6321   */\n      0x24\n        /* \"#utility.yul\":6314:6315   */\n      0x00\n        /* \"#utility.yul\":6307:6322   */\n      revert\n        /* \"#utility.yul\":6333:6468   */\n    tag_166:\n        /* \"#utility.yul\":6372:6375   */\n      0x00\n        /* \"#utility.yul\":6393:6410   */\n      0x01\n      dup3\n      add\n        /* \"#utility.yul\":6390:6433   */\n      tag_499\n      jumpi\n        /* \"#utility.yul\":6413:6431   */\n      tag_499\n      tag_436\n      jump\t// in\n    tag_499:\n      pop\n        /* \"#utility.yul\":6460:6461   */\n      0x01\n        /* \"#utility.yul\":6449:6462   */\n      add\n      swap1\n        /* \"#utility.yul\":6333:6468   */\n      jump\t// out\n        /* \"#utility.yul\":8486:8611   */\n    tag_217:\n        /* \"#utility.yul\":8551:8560   */\n      dup1\n      dup3\n      add\n        /* \"#utility.yul\":8572:8582   */\n      dup1\n      dup3\n      gt\n        /* \"#utility.yul\":8569:8605   */\n      iszero\n      tag_139\n      jumpi\n        /* \"#utility.yul\":8585:8603   */\n      tag_139\n      tag_436\n      jump\t// in\n        /* \"#utility.yul\":8616:9112   */\n    tag_258:\n        /* \"#utility.yul\":8795:8798   */\n      0x00\n        /* \"#utility.yul\":8833:8839   */\n      dup4\n        /* \"#utility.yul\":8827:8840   */\n      mload\n        /* \"#utility.yul\":8849:8915   */\n      tag_510\n        /* \"#utility.yul\":8908:8914   */\n      dup2\n        /* \"#utility.yul\":8903:8906   */\n      dup5\n        /* \"#utility.yul\":8896:8900   */\n      0x20\n        /* \"#utility.yul\":8888:8894   */\n      dup9\n        /* \"#utility.yul\":8884:8901   */\n      add\n        /* \"#utility.yul\":8849:8915   */\n      tag_433\n      jump\t// in\n    tag_510:\n        /* \"#utility.yul\":8978:8991   */\n      dup4\n      mload\n        /* \"#utility.yul\":8937:8953   */\n      swap1\n      dup4\n      add\n      swap1\n        /* \"#utility.yul\":9000:9070   */\n      tag_511\n        /* \"#utility.yul\":8978:8991   */\n      dup2\n        /* \"#utility.yul\":8937:8953   */\n      dup4\n        /* \"#utility.yul\":9047:9051   */\n      0x20\n        /* \"#utility.yul\":9035:9052   */\n      dup9\n      add\n        /* \"#utility.yul\":9000:9070   */\n      tag_433\n      jump\t// in\n    tag_511:\n        /* \"#utility.yul\":9086:9106   */\n      add\n      swap5\n        /* \"#utility.yul\":8616:9112   */\n      swap4\n      pop\n      pop\n      pop\n      pop\n      jump\t// out\n        /* \"#utility.yul\":9879:10006   */\n    tag_310:\n        /* \"#utility.yul\":9940:9950   */\n      0x4e487b71\n        /* \"#utility.yul\":9935:9938   */\n      0xe0\n        /* \"#utility.yul\":9931:9951   */\n      shl\n        /* \"#utility.yul\":9928:9929   */\n      0x00\n        /* \"#utility.yul\":9921:9952   */\n      mstore\n        /* \"#utility.yul\":9971:9975   */\n      0x32\n        /* \"#utility.yul\":9968:9969   */\n      0x04\n        /* \"#utility.yul\":9961:9976   */\n      mstore\n        /* \"#utility.yul\":9995:9999   */\n      0x24\n        /* \"#utility.yul\":9992:9993   */\n      0x00\n        /* \"#utility.yul\":9985:10000   */\n      revert\n        /* \"#utility.yul\":10011:10139   */\n    tag_314:\n        /* \"#utility.yul\":10078:10087   */\n      dup2\n      dup2\n      sub\n        /* \"#utility.yul\":10099:10110   */\n      dup2\n      dup2\n      gt\n        /* \"#utility.yul\":10096:10133   */\n      iszero\n      tag_139\n      jumpi\n        /* \"#utility.yul\":10113:10131   */\n      tag_139\n      tag_436\n      jump\t// in\n        /* \"#utility.yul\":10144:10271   */\n    tag_323:\n        /* \"#utility.yul\":10205:10215   */\n      0x4e487b71\n        /* \"#utility.yul\":10200:10203   */\n      0xe0\n        /* \"#utility.yul\":10196:10216   */\n      shl\n        /* \"#utility.yul\":10193:10194   */\n      0x00\n        /* \"#utility.yul\":10186:10217   */\n      mstore\n        /* \"#utility.yul\":10236:10240   */\n      0x31\n        /* \"#utility.yul\":10233:10234   */\n      0x04\n        /* \"#utility.yul\":10226:10241   */\n      mstore\n        /* \"#utility.yul\":10260:10264   */\n      0x24\n        /* \"#utility.yul\":10257:10258   */\n      0x00\n        /* \"#utility.yul\":10250:10265   */\n      revert\n        /* \"#utility.yul\":10276:10765   */\n    tag_344:\n      sub(shl(0xa0, 0x01), 0x01)\n        /* \"#utility.yul\":10545:10560   */\n      dup6\n      dup2\n      and\n        /* \"#utility.yul\":10527:10561   */\n      dup3\n      mstore\n        /* \"#utility.yul\":10597:10612   */\n      dup5\n      and\n        /* \"#utility.yul\":10592:10594   */\n      0x20\n        /* \"#utility.yul\":10577:10595   */\n      dup3\n      add\n        /* \"#utility.yul\":10570:10613   */\n      mstore\n        /* \"#utility.yul\":10644:10646   */\n      0x40\n        /* \"#utility.yul\":10629:10647   */\n      dup2\n      add\n        /* \"#utility.yul\":10622:10656   */\n      dup4\n      swap1\n      mstore\n        /* \"#utility.yul\":10692:10695   */\n      0x80\n        /* \"#utility.yul\":10687:10689   */\n      0x60\n        /* \"#utility.yul\":10672:10690   */\n      dup3\n      add\n        /* \"#utility.yul\":10665:10696   */\n      dup2\n      swap1\n      mstore\n        /* \"#utility.yul\":10470:10474   */\n      0x00\n      swap1\n        /* \"#utility.yul\":10713:10759   */\n      tag_520\n      swap1\n        /* \"#utility.yul\":10739:10758   */\n      dup4\n      add\n        /* \"#utility.yul\":10731:10737   */\n      dup5\n        /* \"#utility.yul\":10713:10759   */\n      tag_434\n      jump\t// in\n    tag_520:\n        /* \"#utility.yul\":10705:10759   */\n      swap7\n        /* \"#utility.yul\":10276:10765   */\n      swap6\n      pop\n      pop\n      pop\n      pop\n      pop\n      pop\n      jump\t// out\n        /* \"#utility.yul\":10770:11019   */\n    tag_347:\n        /* \"#utility.yul\":10839:10845   */\n      0x00\n        /* \"#utility.yul\":10892:10894   */\n      0x20\n        /* \"#utility.yul\":10880:10889   */\n      dup3\n        /* \"#utility.yul\":10871:10878   */\n      dup5\n        /* \"#utility.yul\":10867:10890   */\n      sub\n        /* \"#utility.yul\":10863:10895   */\n      slt\n        /* \"#utility.yul\":10860:10912   */\n      iszero\n      tag_522\n      jumpi\n        /* \"#utility.yul\":10908:10909   */\n      0x00\n        /* \"#utility.yul\":10905:10906   */\n      dup1\n        /* \"#utility.yul\":10898:10910   */\n      revert\n        /* \"#utility.yul\":10860:10912   */\n    tag_522:\n        /* \"#utility.yul\":10940:10949   */\n      dup2\n        /* \"#utility.yul\":10934:10950   */\n      mload\n        /* \"#utility.yul\":10959:10989   */\n      tag_254\n        /* \"#utility.yul\":10983:10988   */\n      dup2\n        /* \"#utility.yul\":10959:10989   */\n      tag_432\n      jump\t// in\n\n    auxdata: 0xa2646970667358221220851ce50ae27668ab0633eef464b7dfd0187ff4b331b8f25f5a02c54aae5ea17f64736f6c63430008140033\n}\n",
				"bytecode": {
					"linkReferences": {},
					"object": "608060405234801562000010575f80fd5b5060405162001b3b38038062001b3b833981016040819052620000339162000130565b336040518060400160405280600b81526020016a131bd8dad8589b1953919560aa1b815250604051806040016040528060048152602001631313919560e21b815250815f9081620000859190620001e8565b506001620000948282620001e8565b5050506001600160a01b038116620000c557604051631e4fbdf760e01b81525f600482015260240160405180910390fd5b620000d081620000df565b506001600755600955620002b0565b600680546001600160a01b038381166001600160a01b0319831681179093556040519116919082907f8be0079c531659141344cd1fd0a4f28419497f9722a3daafe3b4186f6b6457e0905f90a35050565b5f6020828403121562000141575f80fd5b5051919050565b634e487b7160e01b5f52604160045260245ffd5b600181811c908216806200017157607f821691505b6020821081036200019057634e487b7160e01b5f52602260045260245ffd5b50919050565b601f821115620001e3575f81815260208120601f850160051c81016020861015620001be5750805b601f850160051c820191505b81811015620001df57828155600101620001ca565b5050505b505050565b81516001600160401b0381111562000204576200020462000148565b6200021c816200021584546200015c565b8462000196565b602080601f83116001811462000252575f84156200023a5750858301515b5f19600386901b1c1916600185901b178555620001df565b5f85815260208120601f198616915b82811015620002825788860151825594840194600190910190840162000261565b5085821015620002a057878501515f19600388901b60f8161c191681555b5050505050600190811b01905550565b61187d80620002be5f395ff3fe60806040526004361061013c575f3560e01c806370a08231116100b3578063c002d23d1161006d578063c002d23d14610360578063c3641e9f14610375578063c87b56dd146103a1578063e985e9c5146103c0578063f2fde38b146103df578063f4a0a528146103fe575f80fd5b806370a08231146102be578063715018a6146102dd5780638da5cb5b146102f157806395d89b411461030e578063a22cb46514610322578063b88d4fde14610341575f80fd5b8063235ac0f111610104578063235ac0f1146101f557806323b872dd1461022e57806342842e0e1461024d57806342966c681461026c5780635915c0dd1461028b5780636352211e1461029f575f80fd5b806301ffc9a71461014057806306fdde0314610174578063081812fc14610195578063095ea7b3146101cc5780631249c58b146101ed575b5f80fd5b34801561014b575f80fd5b5061015f61015a36600461145a565b61041d565b60405190151581526020015b60405180910390f35b34801561017f575f80fd5b5061018861042d565b60405161016b91906114c2565b3480156101a0575f80fd5b506101b46101af3660046114d4565b6104bc565b6040516001600160a01b03909116815260200161016b565b3480156101d7575f80fd5b506101eb6101e6366004611506565b6104e3565b005b6101eb6104f2565b348015610200575f80fd5b5061022061020f3660046114d4565b5f908152600a602052604090205490565b60405190815260200161016b565b348015610239575f80fd5b506101eb61024836600461152e565b610652565b348015610258575f80fd5b506101eb61026736600461152e565b6106db565b348015610277575f80fd5b506101eb6102863660046114d4565b6106fa565b348015610296575f80fd5b506102206108af565b3480156102aa575f80fd5b506101b46102b93660046114d4565b6108ef565b3480156102c9575f80fd5b506102206102d8366004611567565b6108f9565b3480156102e8575f80fd5b506101eb61093e565b3480156102fc575f80fd5b506006546001600160a01b03166101b4565b348015610319575f80fd5b5061018861094f565b34801561032d575f80fd5b506101eb61033c366004611580565b61095e565b34801561034c575f80fd5b506101eb61035b3660046115cd565b610969565b34801561036b575f80fd5b5061022060095481565b348015610380575f80fd5b5061039461038f366004611567565b610981565b60405161016b91906116a2565b3480156103ac575f80fd5b506101886103bb3660046114d4565b6109ea565b3480156103cb575f80fd5b5061015f6103da3660046116e5565b610a5b565b3480156103ea575f80fd5b506101eb6103f9366004611567565b610a88565b348015610409575f80fd5b506101eb6104183660046114d4565b610ac2565b5f61042782610b5e565b92915050565b60605f805461043b90611716565b80601f016020809104026020016040519081016040528092919081815260200182805461046790611716565b80156104b25780601f10610489576101008083540402835291602001916104b2565b820191905f5260205f20905b81548152906001019060200180831161049557829003601f168201915b5050505050905090565b5f6104c682610bad565b505f828152600460205260409020546001600160a01b0316610427565b6104ee828233610be5565b5050565b6104fa610bf2565b600954341461055b5760405162461bcd60e51b815260206004820152602260248201527f4d696e74207072696365206d7573742062652065786163746c7920302e3120456044820152610a8960f31b60648201526084015b60405180910390fd5b600880549081905f61056c8361175c565b90915550505f818152600a6020526040902054156105cc5760405162461bcd60e51b815260206004820152601f60248201527f546f6b656e20494420616c726561647920686173206c6f636b656420455448006044820152606401610552565b5f818152600a602052604090203490556105e63382610c4b565b335f818152600b6020908152604080832080546001810182559084529190922001839055518291907f25b428dfde728ccfaddad7e29e4ac23c24ed7fd1a6e3e3f91894a9a073f5dfff9061063d9034815260200190565b60405180910390a3506106506001600755565b565b6001600160a01b03821661067b57604051633250574960e11b81525f6004820152602401610552565b5f610687838333610c64565b9050836001600160a01b0316816001600160a01b0316146106d5576040516364283d7b60e01b81526001600160a01b0380861660048301526024820184905282166044820152606401610552565b50505050565b6106f583838360405180602001604052805f815250610969565b505050565b610702610bf2565b3361070c826108ef565b6001600160a01b0316146107625760405162461bcd60e51b815260206004820152601f60248201527f596f75206d757374206f776e20746865204e465420746f206275726e206974006044820152606401610552565b5f818152600a6020526040902054806107bd5760405162461bcd60e51b815260206004820152601a60248201527f4e6f20455448206c6f636b656420666f722074686973204e46540000000000006044820152606401610552565b5f828152600a60205260408120556107d53383610d56565b6107de82610e1f565b6040515f90339083908381818185875af1925050503d805f811461081d576040519150601f19603f3d011682016040523d82523d5f602084013e610822565b606091505b50509050806108695760405162461bcd60e51b8152602060048201526013602482015272115512081d1c985b9cd9995c8819985a5b1959606a1b6044820152606401610552565b604051828152839033907f23ff0e75edf108e3d0392d92e13e8c8a868ef19001bd49f9e94876dc46dff87f9060200160405180910390a350506108ac6001600755565b50565b5f80805b6008548110156108e9575f818152600a60205260409020546108d59083611774565b9150806108e18161175c565b9150506108b3565b50919050565b5f61042782610bad565b5f6001600160a01b038216610923576040516322718ad960e21b81525f6004820152602401610552565b506001600160a01b03165f9081526003602052604090205490565b610946610e57565b6106505f610e84565b60606001805461043b90611716565b6104ee338383610ed5565b610974848484610652565b6106d53385858585610f73565b6001600160a01b0381165f908152600b60209081526040918290208054835181840281018401909452808452606093928301828280156109de57602002820191905f5260205f20905b8154815260200190600101908083116109ca575b50505050509050919050565b60606109f582610bad565b505f610a0b60408051602081019091525f815290565b90505f815111610a295760405180602001604052805f815250610a54565b80610a338461109a565b604051602001610a44929190611787565b6040516020818303038152906040525b9392505050565b6001600160a01b039182165f90815260056020908152604080832093909416825291909152205460ff1690565b610a90610e57565b6001600160a01b038116610ab957604051631e4fbdf760e01b81525f6004820152602401610552565b6108ac81610e84565b610aca610e57565b5f8111610b235760405162461bcd60e51b815260206004820152602160248201527f4d696e74207072696365206d7573742062652067726561746572207468616e206044820152600360fc1b6064820152608401610552565b60098190556040518181527f525b762709cc2a983aec5ccdfd807a061f993c91090b5bcd7da92ca254976aaa9060200160405180910390a150565b5f6001600160e01b031982166380ac58cd60e01b1480610b8e57506001600160e01b03198216635b5e139f60e01b145b8061042757506301ffc9a760e01b6001600160e01b0319831614610427565b5f818152600260205260408120546001600160a01b03168061042757604051637e27328960e01b815260048101849052602401610552565b6106f5838383600161112a565b600260075403610c445760405162461bcd60e51b815260206004820152601f60248201527f5265656e7472616e637947756172643a207265656e7472616e742063616c6c006044820152606401610552565b6002600755565b6104ee828260405180602001604052805f81525061122e565b5f828152600260205260408120546001600160a01b0390811690831615610c9057610c90818486611245565b6001600160a01b03811615610cca57610cab5f855f8061112a565b6001600160a01b0381165f90815260036020526040902080545f190190555b6001600160a01b03851615610cf8576001600160a01b0385165f908152600360205260409020805460010190555b5f8481526002602052604080822080546001600160a01b0319166001600160a01b0389811691821790925591518793918516917fddf252ad1be2c89b69c2b068fc378daa952ba7f163c4a11628f55a4df523b3ef91a4949350505050565b6001600160a01b0382165f908152600b60205260408120805490915b81811015610e185783838281548110610d8d57610d8d6117b5565b905f5260205f20015403610e065782610da76001846117c9565b81548110610db757610db76117b5565b905f5260205f200154838281548110610dd257610dd26117b5565b905f5260205f20018190555082805480610dee57610dee6117dc565b600190038181905f5260205f20015f90559055610e18565b80610e108161175c565b915050610d72565b5050505050565b5f610e2b5f835f610c64565b90506001600160a01b0381166104ee57604051637e27328960e01b815260048101839052602401610552565b6006546001600160a01b031633146106505760405163118cdaa760e01b8152336004820152602401610552565b600680546001600160a01b038381166001600160a01b0319831681179093556040519116919082907f8be0079c531659141344cd1fd0a4f28419497f9722a3daafe3b4186f6b6457e0905f90a35050565b6001600160a01b038216610f0757604051630b61174360e31b81526001600160a01b0383166004820152602401610552565b6001600160a01b038381165f81815260056020908152604080832094871680845294825291829020805460ff191686151590811790915591519182527f17307eab39ab6107e8899845ad3d59bd9653f200f220920489ca2b5937696c31910160405180910390a3505050565b6001600160a01b0383163b15610e1857604051630a85bd0160e11b81526001600160a01b0384169063150b7a0290610fb59088908890879087906004016117f0565b6020604051808303815f875af1925050508015610fef575060408051601f3d908101601f19168201909252610fec9181019061182c565b60015b611056573d80801561101c576040519150601f19603f3d011682016040523d82523d5f602084013e611021565b606091505b5080515f0361104e57604051633250574960e11b81526001600160a01b0385166004820152602401610552565b805181602001fd5b6001600160e01b03198116630a85bd0160e11b1461109257604051633250574960e11b81526001600160a01b0385166004820152602401610552565b505050505050565b60605f6110a6836112a9565b60010190505f8167ffffffffffffffff8111156110c5576110c56115b9565b6040519080825280601f01601f1916602001820160405280156110ef576020820181803683370190505b5090508181016020015b5f19016f181899199a1a9b1b9c1cb0b131b232b360811b600a86061a8153600a85049450846110f957509392505050565b808061113e57506001600160a01b03821615155b156111ff575f61114d84610bad565b90506001600160a01b038316158015906111795750826001600160a01b0316816001600160a01b031614155b801561118c575061118a8184610a5b565b155b156111b55760405163a9fbf51f60e01b81526001600160a01b0384166004820152602401610552565b81156111fd5783856001600160a01b0316826001600160a01b03167f8c5be1e5ebec7d5bd14f71427d1e84f3dd0314c0f7b2291e5b200ac8c7c3b92560405160405180910390a45b505b50505f90815260046020526040902080546001600160a01b0319166001600160a01b0392909216919091179055565b6112388383611380565b6106f5335f858585610f73565b6112508383836113e1565b6106f5576001600160a01b03831661127e57604051637e27328960e01b815260048101829052602401610552565b60405163177e802f60e01b81526001600160a01b038316600482015260248101829052604401610552565b5f8072184f03e93ff9f4daa797ed6e38ed64bf6a1f0160401b83106112e75772184f03e93ff9f4daa797ed6e38ed64bf6a1f0160401b830492506040015b6d04ee2d6d415b85acef81000000008310611313576d04ee2d6d415b85acef8100000000830492506020015b662386f26fc10000831061133157662386f26fc10000830492506010015b6305f5e1008310611349576305f5e100830492506008015b612710831061135d57612710830492506004015b6064831061136f576064830492506002015b600a83106104275760010192915050565b6001600160a01b0382166113a957604051633250574960e11b81525f6004820152602401610552565b5f6113b583835f610c64565b90506001600160a01b038116156106f5576040516339e3563760e11b81525f6004820152602401610552565b5f6001600160a01b0383161580159061143d5750826001600160a01b0316846001600160a01b0316148061141a575061141a8484610a5b565b8061143d57505f828152600460205260409020546001600160a01b038481169116145b949350505050565b6001600160e01b0319811681146108ac575f80fd5b5f6020828403121561146a575f80fd5b8135610a5481611445565b5f5b8381101561148f578181015183820152602001611477565b50505f910152565b5f81518084526114ae816020860160208601611475565b601f01601f19169290920160200192915050565b602081525f610a546020830184611497565b5f602082840312156114e4575f80fd5b5035919050565b80356001600160a01b0381168114611501575f80fd5b919050565b5f8060408385031215611517575f80fd5b611520836114eb565b946020939093013593505050565b5f805f60608486031215611540575f80fd5b611549846114eb565b9250611557602085016114eb565b9150604084013590509250925092565b5f60208284031215611577575f80fd5b610a54826114eb565b5f8060408385031215611591575f80fd5b61159a836114eb565b9150602083013580151581146115ae575f80fd5b809150509250929050565b634e487b7160e01b5f52604160045260245ffd5b5f805f80608085870312156115e0575f80fd5b6115e9856114eb565b93506115f7602086016114eb565b925060408501359150606085013567ffffffffffffffff8082111561161a575f80fd5b818701915087601f83011261162d575f80fd5b81358181111561163f5761163f6115b9565b604051601f8201601f19908116603f01168101908382118183101715611667576116676115b9565b816040528281528a602084870101111561167f575f80fd5b826020860160208301375f60208483010152809550505050505092959194509250565b602080825282518282018190525f9190848201906040850190845b818110156116d9578351835292840192918401916001016116bd565b50909695505050505050565b5f80604083850312156116f6575f80fd5b6116ff836114eb565b915061170d602084016114eb565b90509250929050565b600181811c9082168061172a57607f821691505b6020821081036108e957634e487b7160e01b5f52602260045260245ffd5b634e487b7160e01b5f52601160045260245ffd5b5f6001820161176d5761176d611748565b5060010190565b8082018082111561042757610427611748565b5f8351611798818460208801611475565b8351908301906117ac818360208801611475565b01949350505050565b634e487b7160e01b5f52603260045260245ffd5b8181038181111561042757610427611748565b634e487b7160e01b5f52603160045260245ffd5b6001600160a01b03858116825284166020820152604081018390526080606082018190525f9061182290830184611497565b9695505050505050565b5f6020828403121561183c575f80fd5b8151610a548161144556fea2646970667358221220851ce50ae27668ab0633eef464b7dfd0187ff4b331b8f25f5a02c54aae5ea17f64736f6c63430008140033",
					"opcodes": "PUSH1 0x80 PUSH1 0x40 MSTORE CALLVALUE DUP1 ISZERO PUSH3 0x10 JUMPI PUSH0 DUP1 REVERT JUMPDEST POP PUSH1 0x40 MLOAD PUSH3 0x1B3B CODESIZE SUB DUP1 PUSH3 0x1B3B DUP4 CODECOPY DUP2 ADD PUSH1 0x40 DUP2 SWAP1 MSTORE PUSH3 0x33 SWAP2 PUSH3 0x130 JUMP JUMPDEST CALLER PUSH1 0x40 MLOAD DUP1 PUSH1 0x40 ADD PUSH1 0x40 MSTORE DUP1 PUSH1 0xB DUP2 MSTORE PUSH1 0x20 ADD PUSH11 0x131BD8DAD8589B19539195 PUSH1 0xAA SHL DUP2 MSTORE POP PUSH1 0x40 MLOAD DUP1 PUSH1 0x40 ADD PUSH1 0x40 MSTORE DUP1 PUSH1 0x4 DUP2 MSTORE PUSH1 0x20 ADD PUSH4 0x13139195 PUSH1 0xE2 SHL DUP2 MSTORE POP DUP2 PUSH0 SWAP1 DUP2 PUSH3 0x85 SWAP2 SWAP1 PUSH3 0x1E8 JUMP JUMPDEST POP PUSH1 0x1 PUSH3 0x94 DUP3 DUP3 PUSH3 0x1E8 JUMP JUMPDEST POP POP POP PUSH1 0x1 PUSH1 0x1 PUSH1 0xA0 SHL SUB DUP2 AND PUSH3 0xC5 JUMPI PUSH1 0x40 MLOAD PUSH4 0x1E4FBDF7 PUSH1 0xE0 SHL DUP2 MSTORE PUSH0 PUSH1 0x4 DUP3 ADD MSTORE PUSH1 0x24 ADD PUSH1 0x40 MLOAD DUP1 SWAP2 SUB SWAP1 REVERT JUMPDEST PUSH3 0xD0 DUP2 PUSH3 0xDF JUMP JUMPDEST POP PUSH1 0x1 PUSH1 0x7 SSTORE PUSH1 0x9 SSTORE PUSH3 0x2B0 JUMP JUMPDEST PUSH1 0x6 DUP1 SLOAD PUSH1 0x1 PUSH1 0x1 PUSH1 0xA0 SHL SUB DUP4 DUP2 AND PUSH1 0x1 PUSH1 0x1 PUSH1 0xA0 SHL SUB NOT DUP4 AND DUP2 OR SWAP1 SWAP4 SSTORE PUSH1 0x40 MLOAD SWAP2 AND SWAP2 SWAP1 DUP3 SWAP1 PUSH32 0x8BE0079C531659141344CD1FD0A4F28419497F9722A3DAAFE3B4186F6B6457E0 SWAP1 PUSH0 SWAP1 LOG3 POP POP JUMP JUMPDEST PUSH0 PUSH1 0x20 DUP3 DUP5 SUB SLT ISZERO PUSH3 0x141 JUMPI PUSH0 DUP1 REVERT JUMPDEST POP MLOAD SWAP2 SWAP1 POP JUMP JUMPDEST PUSH4 0x4E487B71 PUSH1 0xE0 SHL PUSH0 MSTORE PUSH1 0x41 PUSH1 0x4 MSTORE PUSH1 0x24 PUSH0 REVERT JUMPDEST PUSH1 0x1 DUP2 DUP2 SHR SWAP1 DUP3 AND DUP1 PUSH3 0x171 JUMPI PUSH1 0x7F DUP3 AND SWAP2 POP JUMPDEST PUSH1 0x20 DUP3 LT DUP2 SUB PUSH3 0x190 JUMPI PUSH4 0x4E487B71 PUSH1 0xE0 SHL PUSH0 MSTORE PUSH1 0x22 PUSH1 0x4 MSTORE PUSH1 0x24 PUSH0 REVERT JUMPDEST POP SWAP2 SWAP1 POP JUMP JUMPDEST PUSH1 0x1F DUP3 GT ISZERO PUSH3 0x1E3 JUMPI PUSH0 DUP2 DUP2 MSTORE PUSH1 0x20 DUP2 KECCAK256 PUSH1 0x1F DUP6 ADD PUSH1 0x5 SHR DUP2 ADD PUSH1 0x20 DUP7 LT ISZERO PUSH3 0x1BE JUMPI POP DUP1 JUMPDEST PUSH1 0x1F DUP6 ADD PUSH1 0x5 SHR DUP3 ADD SWAP2 POP JUMPDEST DUP2 DUP2 LT ISZERO PUSH3 0x1DF JUMPI DUP3 DUP2 SSTORE PUSH1 0x1 ADD PUSH3 0x1CA JUMP JUMPDEST POP POP POP JUMPDEST POP POP POP JUMP JUMPDEST DUP2 MLOAD PUSH1 0x1 PUSH1 0x1 PUSH1 0x40 SHL SUB DUP2 GT ISZERO PUSH3 0x204 JUMPI PUSH3 0x204 PUSH3 0x148 JUMP JUMPDEST PUSH3 0x21C DUP2 PUSH3 0x215 DUP5 SLOAD PUSH3 0x15C JUMP JUMPDEST DUP5 PUSH3 0x196 JUMP JUMPDEST PUSH1 0x20 DUP1 PUSH1 0x1F DUP4 GT PUSH1 0x1 DUP2 EQ PUSH3 0x252 JUMPI PUSH0 DUP5 ISZERO PUSH3 0x23A JUMPI POP DUP6 DUP4 ADD MLOAD JUMPDEST PUSH0 NOT PUSH1 0x3 DUP7 SWAP1 SHL SHR NOT AND PUSH1 0x1 DUP6 SWAP1 SHL OR DUP6 SSTORE PUSH3 0x1DF JUMP JUMPDEST PUSH0 DUP6 DUP2 MSTORE PUSH1 0x20 DUP2 KECCAK256 PUSH1 0x1F NOT DUP7 AND SWAP2 JUMPDEST DUP3 DUP2 LT ISZERO PUSH3 0x282 JUMPI DUP9 DUP7 ADD MLOAD DUP3 SSTORE SWAP5 DUP5 ADD SWAP5 PUSH1 0x1 SWAP1 SWAP2 ADD SWAP1 DUP5 ADD PUSH3 0x261 JUMP JUMPDEST POP DUP6 DUP3 LT ISZERO PUSH3 0x2A0 JUMPI DUP8 DUP6 ADD MLOAD PUSH0 NOT PUSH1 0x3 DUP9 SWAP1 SHL PUSH1 0xF8 AND SHR NOT AND DUP2 SSTORE JUMPDEST POP POP POP POP POP PUSH1 0x1 SWAP1 DUP2 SHL ADD SWAP1 SSTORE POP JUMP JUMPDEST PUSH2 0x187D DUP1 PUSH3 0x2BE PUSH0 CODECOPY PUSH0 RETURN INVALID PUSH1 0x80 PUSH1 0x40 MSTORE PUSH1 0x4 CALLDATASIZE LT PUSH2 0x13C JUMPI PUSH0 CALLDATALOAD PUSH1 0xE0 SHR DUP1 PUSH4 0x70A08231 GT PUSH2 0xB3 JUMPI DUP1 PUSH4 0xC002D23D GT PUSH2 0x6D JUMPI DUP1 PUSH4 0xC002D23D EQ PUSH2 0x360 JUMPI DUP1 PUSH4 0xC3641E9F EQ PUSH2 0x375 JUMPI DUP1 PUSH4 0xC87B56DD EQ PUSH2 0x3A1 JUMPI DUP1 PUSH4 0xE985E9C5 EQ PUSH2 0x3C0 JUMPI DUP1 PUSH4 0xF2FDE38B EQ PUSH2 0x3DF JUMPI DUP1 PUSH4 0xF4A0A528 EQ PUSH2 0x3FE JUMPI PUSH0 DUP1 REVERT JUMPDEST DUP1 PUSH4 0x70A08231 EQ PUSH2 0x2BE JUMPI DUP1 PUSH4 0x715018A6 EQ PUSH2 0x2DD JUMPI DUP1 PUSH4 0x8DA5CB5B EQ PUSH2 0x2F1 JUMPI DUP1 PUSH4 0x95D89B41 EQ PUSH2 0x30E JUMPI DUP1 PUSH4 0xA22CB465 EQ PUSH2 0x322 JUMPI DUP1 PUSH4 0xB88D4FDE EQ PUSH2 0x341 JUMPI PUSH0 DUP1 REVERT JUMPDEST DUP1 PUSH4 0x235AC0F1 GT PUSH2 0x104 JUMPI DUP1 PUSH4 0x235AC0F1 EQ PUSH2 0x1F5 JUMPI DUP1 PUSH4 0x23B872DD EQ PUSH2 0x22E JUMPI DUP1 PUSH4 0x42842E0E EQ PUSH2 0x24D JUMPI DUP1 PUSH4 0x42966C68 EQ PUSH2 0x26C JUMPI DUP1 PUSH4 0x5915C0DD EQ PUSH2 0x28B JUMPI DUP1 PUSH4 0x6352211E EQ PUSH2 0x29F JUMPI PUSH0 DUP1 REVERT JUMPDEST DUP1 PUSH4 0x1FFC9A7 EQ PUSH2 0x140 JUMPI DUP1 PUSH4 0x6FDDE03 EQ PUSH2 0x174 JUMPI DUP1 PUSH4 0x81812FC EQ PUSH2 0x195 JUMPI DUP1 PUSH4 0x95EA7B3 EQ PUSH2 0x1CC JUMPI DUP1 PUSH4 0x1249C58B EQ PUSH2 0x1ED JUMPI JUMPDEST PUSH0 DUP1 REVERT JUMPDEST CALLVALUE DUP1 ISZERO PUSH2 0x14B JUMPI PUSH0 DUP1 REVERT JUMPDEST POP PUSH2 0x15F PUSH2 0x15A CALLDATASIZE PUSH1 0x4 PUSH2 0x145A JUMP JUMPDEST PUSH2 0x41D JUMP JUMPDEST PUSH1 0x40 MLOAD SWAP1 ISZERO ISZERO DUP2 MSTORE PUSH1 0x20 ADD JUMPDEST PUSH1 0x40 MLOAD DUP1 SWAP2 SUB SWAP1 RETURN JUMPDEST CALLVALUE DUP1 ISZERO PUSH2 0x17F JUMPI PUSH0 DUP1 REVERT JUMPDEST POP PUSH2 0x188 PUSH2 0x42D JUMP JUMPDEST PUSH1 0x40 MLOAD PUSH2 0x16B SWAP2 SWAP1 PUSH2 0x14C2 JUMP JUMPDEST CALLVALUE DUP1 ISZERO PUSH2 0x1A0 JUMPI PUSH0 DUP1 REVERT JUMPDEST POP PUSH2 0x1B4 PUSH2 0x1AF CALLDATASIZE PUSH1 0x4 PUSH2 0x14D4 JUMP JUMPDEST PUSH2 0x4BC JUMP JUMPDEST PUSH1 0x40 MLOAD PUSH1 0x1 PUSH1 0x1 PUSH1 0xA0 SHL SUB SWAP1 SWAP2 AND DUP2 MSTORE PUSH1 0x20 ADD PUSH2 0x16B JUMP JUMPDEST CALLVALUE DUP1 ISZERO PUSH2 0x1D7 JUMPI PUSH0 DUP1 REVERT JUMPDEST POP PUSH2 0x1EB PUSH2 0x1E6 CALLDATASIZE PUSH1 0x4 PUSH2 0x1506 JUMP JUMPDEST PUSH2 0x4E3 JUMP JUMPDEST STOP JUMPDEST PUSH2 0x1EB PUSH2 0x4F2 JUMP JUMPDEST CALLVALUE DUP1 ISZERO PUSH2 0x200 JUMPI PUSH0 DUP1 REVERT JUMPDEST POP PUSH2 0x220 PUSH2 0x20F CALLDATASIZE PUSH1 0x4 PUSH2 0x14D4 JUMP JUMPDEST PUSH0 SWAP1 DUP2 MSTORE PUSH1 0xA PUSH1 0x20 MSTORE PUSH1 0x40 SWAP1 KECCAK256 SLOAD SWAP1 JUMP JUMPDEST PUSH1 0x40 MLOAD SWAP1 DUP2 MSTORE PUSH1 0x20 ADD PUSH2 0x16B JUMP JUMPDEST CALLVALUE DUP1 ISZERO PUSH2 0x239 JUMPI PUSH0 DUP1 REVERT JUMPDEST POP PUSH2 0x1EB PUSH2 0x248 CALLDATASIZE PUSH1 0x4 PUSH2 0x152E JUMP JUMPDEST PUSH2 0x652 JUMP JUMPDEST CALLVALUE DUP1 ISZERO PUSH2 0x258 JUMPI PUSH0 DUP1 REVERT JUMPDEST POP PUSH2 0x1EB PUSH2 0x267 CALLDATASIZE PUSH1 0x4 PUSH2 0x152E JUMP JUMPDEST PUSH2 0x6DB JUMP JUMPDEST CALLVALUE DUP1 ISZERO PUSH2 0x277 JUMPI PUSH0 DUP1 REVERT JUMPDEST POP PUSH2 0x1EB PUSH2 0x286 CALLDATASIZE PUSH1 0x4 PUSH2 0x14D4 JUMP JUMPDEST PUSH2 0x6FA JUMP JUMPDEST CALLVALUE DUP1 ISZERO PUSH2 0x296 JUMPI PUSH0 DUP1 REVERT JUMPDEST POP PUSH2 0x220 PUSH2 0x8AF JUMP JUMPDEST CALLVALUE DUP1 ISZERO PUSH2 0x2AA JUMPI PUSH0 DUP1 REVERT JUMPDEST POP PUSH2 0x1B4 PUSH2 0x2B9 CALLDATASIZE PUSH1 0x4 PUSH2 0x14D4 JUMP JUMPDEST PUSH2 0x8EF JUMP JUMPDEST CALLVALUE DUP1 ISZERO PUSH2 0x2C9 JUMPI PUSH0 DUP1 REVERT JUMPDEST POP PUSH2 0x220 PUSH2 0x2D8 CALLDATASIZE PUSH1 0x4 PUSH2 0x1567 JUMP JUMPDEST PUSH2 0x8F9 JUMP JUMPDEST CALLVALUE DUP1 ISZERO PUSH2 0x2E8 JUMPI PUSH0 DUP1 REVERT JUMPDEST POP PUSH2 0x1EB PUSH2 0x93E JUMP JUMPDEST CALLVALUE DUP1 ISZERO PUSH2 0x2FC JUMPI PUSH0 DUP1 REVERT JUMPDEST POP PUSH1 0x6 SLOAD PUSH1 0x1 PUSH1 0x1 PUSH1 0xA0 SHL SUB AND PUSH2 0x1B4 JUMP JUMPDEST CALLVALUE DUP1 ISZERO PUSH2 0x319 JUMPI PUSH0 DUP1 REVERT JUMPDEST POP PUSH2 0x188 PUSH2 0x94F JUMP JUMPDEST CALLVALUE DUP1 ISZERO PUSH2 0x32D JUMPI PUSH0 DUP1 REVERT JUMPDEST POP PUSH2 0x1EB PUSH2 0x33C CALLDATASIZE PUSH1 0x4 PUSH2 0x1580 JUMP JUMPDEST PUSH2 0x95E JUMP JUMPDEST CALLVALUE DUP1 ISZERO PUSH2 0x34C JUMPI PUSH0 DUP1 REVERT JUMPDEST POP PUSH2 0x1EB PUSH2 0x35B CALLDATASIZE PUSH1 0x4 PUSH2 0x15CD JUMP JUMPDEST PUSH2 0x969 JUMP JUMPDEST CALLVALUE DUP1 ISZERO PUSH2 0x36B JUMPI PUSH0 DUP1 REVERT JUMPDEST POP PUSH2 0x220 PUSH1 0x9 SLOAD DUP2 JUMP JUMPDEST CALLVALUE DUP1 ISZERO PUSH2 0x380 JUMPI PUSH0 DUP1 REVERT JUMPDEST POP PUSH2 0x394 PUSH2 0x38F CALLDATASIZE PUSH1 0x4 PUSH2 0x1567 JUMP JUMPDEST PUSH2 0x981 JUMP JUMPDEST PUSH1 0x40 MLOAD PUSH2 0x16B SWAP2 SWAP1 PUSH2 0x16A2 JUMP JUMPDEST CALLVALUE DUP1 ISZERO PUSH2 0x3AC JUMPI PUSH0 DUP1 REVERT JUMPDEST POP PUSH2 0x188 PUSH2 0x3BB CALLDATASIZE PUSH1 0x4 PUSH2 0x14D4 JUMP JUMPDEST PUSH2 0x9EA JUMP JUMPDEST CALLVALUE DUP1 ISZERO PUSH2 0x3CB JUMPI PUSH0 DUP1 REVERT JUMPDEST POP PUSH2 0x15F PUSH2 0x3DA CALLDATASIZE PUSH1 0x4 PUSH2 0x16E5 JUMP JUMPDEST PUSH2 0xA5B JUMP JUMPDEST CALLVALUE DUP1 ISZERO PUSH2 0x3EA JUMPI PUSH0 DUP1 REVERT JUMPDEST POP PUSH2 0x1EB PUSH2 0x3F9 CALLDATASIZE PUSH1 0x4 PUSH2 0x1567 JUMP JUMPDEST PUSH2 0xA88 JUMP JUMPDEST CALLVALUE DUP1 ISZERO PUSH2 0x409 JUMPI PUSH0 DUP1 REVERT JUMPDEST POP PUSH2 0x1EB PUSH2 0x418 CALLDATASIZE PUSH1 0x4 PUSH2 0x14D4 JUMP JUMPDEST PUSH2 0xAC2 JUMP JUMPDEST PUSH0 PUSH2 0x427 DUP3 PUSH2 0xB5E JUMP JUMPDEST SWAP3 SWAP2 POP POP JUMP JUMPDEST PUSH1 0x60 PUSH0 DUP1 SLOAD PUSH2 0x43B SWAP1 PUSH2 0x1716 JUMP JUMPDEST DUP1 PUSH1 0x1F ADD PUSH1 0x20 DUP1 SWAP2 DIV MUL PUSH1 0x20 ADD PUSH1 0x40 MLOAD SWAP1 DUP2 ADD PUSH1 0x40 MSTORE DUP1 SWAP3 SWAP2 SWAP1 DUP2 DUP2 MSTORE PUSH1 0x20 ADD DUP3 DUP1 SLOAD PUSH2 0x467 SWAP1 PUSH2 0x1716 JUMP JUMPDEST DUP1 ISZERO PUSH2 0x4B2 JUMPI DUP1 PUSH1 0x1F LT PUSH2 0x489 JUMPI PUSH2 0x100 DUP1 DUP4 SLOAD DIV MUL DUP4 MSTORE SWAP2 PUSH1 0x20 ADD SWAP2 PUSH2 0x4B2 JUMP JUMPDEST DUP3 ADD SWAP2 SWAP1 PUSH0 MSTORE PUSH1 0x20 PUSH0 KECCAK256 SWAP1 JUMPDEST DUP2 SLOAD DUP2 MSTORE SWAP1 PUSH1 0x1 ADD SWAP1 PUSH1 0x20 ADD DUP1 DUP4 GT PUSH2 0x495 JUMPI DUP3 SWAP1 SUB PUSH1 0x1F AND DUP3 ADD SWAP2 JUMPDEST POP POP POP POP POP SWAP1 POP SWAP1 JUMP JUMPDEST PUSH0 PUSH2 0x4C6 DUP3 PUSH2 0xBAD JUMP JUMPDEST POP PUSH0 DUP3 DUP2 MSTORE PUSH1 0x4 PUSH1 0x20 MSTORE PUSH1 0x40 SWAP1 KECCAK256 SLOAD PUSH1 0x1 PUSH1 0x1 PUSH1 0xA0 SHL SUB AND PUSH2 0x427 JUMP JUMPDEST PUSH2 0x4EE DUP3 DUP3 CALLER PUSH2 0xBE5 JUMP JUMPDEST POP POP JUMP JUMPDEST PUSH2 0x4FA PUSH2 0xBF2 JUMP JUMPDEST PUSH1 0x9 SLOAD CALLVALUE EQ PUSH2 0x55B JUMPI PUSH1 0x40 MLOAD PUSH3 0x461BCD PUSH1 0xE5 SHL DUP2 MSTORE PUSH1 0x20 PUSH1 0x4 DUP3 ADD MSTORE PUSH1 0x22 PUSH1 0x24 DUP3 ADD MSTORE PUSH32 0x4D696E74207072696365206D7573742062652065786163746C7920302E312045 PUSH1 0x44 DUP3 ADD MSTORE PUSH2 0xA89 PUSH1 0xF3 SHL PUSH1 0x64 DUP3 ADD MSTORE PUSH1 0x84 ADD JUMPDEST PUSH1 0x40 MLOAD DUP1 SWAP2 SUB SWAP1 REVERT JUMPDEST PUSH1 0x8 DUP1 SLOAD SWAP1 DUP2 SWAP1 PUSH0 PUSH2 0x56C DUP4 PUSH2 0x175C JUMP JUMPDEST SWAP1 SWAP2 SSTORE POP POP PUSH0 DUP2 DUP2 MSTORE PUSH1 0xA PUSH1 0x20 MSTORE PUSH1 0x40 SWAP1 KECCAK256 SLOAD ISZERO PUSH2 0x5CC JUMPI PUSH1 0x40 MLOAD PUSH3 0x461BCD PUSH1 0xE5 SHL DUP2 MSTORE PUSH1 0x20 PUSH1 0x4 DUP3 ADD MSTORE PUSH1 0x1F PUSH1 0x24 DUP3 ADD MSTORE PUSH32 0x546F6B656E20494420616C726561647920686173206C6F636B65642045544800 PUSH1 0x44 DUP3 ADD MSTORE PUSH1 0x64 ADD PUSH2 0x552 JUMP JUMPDEST PUSH0 DUP2 DUP2 MSTORE PUSH1 0xA PUSH1 0x20 MSTORE PUSH1 0x40 SWAP1 KECCAK256 CALLVALUE SWAP1 SSTORE PUSH2 0x5E6 CALLER DUP3 PUSH2 0xC4B JUMP JUMPDEST CALLER PUSH0 DUP2 DUP2 MSTORE PUSH1 0xB PUSH1 0x20 SWAP1 DUP2 MSTORE PUSH1 0x40 DUP1 DUP4 KECCAK256 DUP1 SLOAD PUSH1 0x1 DUP2 ADD DUP3 SSTORE SWAP1 DUP5 MSTORE SWAP2 SWAP1 SWAP3 KECCAK256 ADD DUP4 SWAP1 SSTORE MLOAD DUP3 SWAP2 SWAP1 PUSH32 0x25B428DFDE728CCFADDAD7E29E4AC23C24ED7FD1A6E3E3F91894A9A073F5DFFF SWAP1 PUSH2 0x63D SWAP1 CALLVALUE DUP2 MSTORE PUSH1 0x20 ADD SWAP1 JUMP JUMPDEST PUSH1 0x40 MLOAD DUP1 SWAP2 SUB SWAP1 LOG3 POP PUSH2 0x650 PUSH1 0x1 PUSH1 0x7 SSTORE JUMP JUMPDEST JUMP JUMPDEST PUSH1 0x1 PUSH1 0x1 PUSH1 0xA0 SHL SUB DUP3 AND PUSH2 0x67B JUMPI PUSH1 0x40 MLOAD PUSH4 0x32505749 PUSH1 0xE1 SHL DUP2 MSTORE PUSH0 PUSH1 0x4 DUP3 ADD MSTORE PUSH1 0x24 ADD PUSH2 0x552 JUMP JUMPDEST PUSH0 PUSH2 0x687 DUP4 DUP4 CALLER PUSH2 0xC64 JUMP JUMPDEST SWAP1 POP DUP4 PUSH1 0x1 PUSH1 0x1 PUSH1 0xA0 SHL SUB AND DUP2 PUSH1 0x1 PUSH1 0x1 PUSH1 0xA0 SHL SUB AND EQ PUSH2 0x6D5 JUMPI PUSH1 0x40 MLOAD PUSH4 0x64283D7B PUSH1 0xE0 SHL DUP2 MSTORE PUSH1 0x1 PUSH1 0x1 PUSH1 0xA0 SHL SUB DUP1 DUP7 AND PUSH1 0x4 DUP4 ADD MSTORE PUSH1 0x24 DUP3 ADD DUP5 SWAP1 MSTORE DUP3 AND PUSH1 0x44 DUP3 ADD MSTORE PUSH1 0x64 ADD PUSH2 0x552 JUMP JUMPDEST POP POP POP POP JUMP JUMPDEST PUSH2 0x6F5 DUP4 DUP4 DUP4 PUSH1 0x40 MLOAD DUP1 PUSH1 0x20 ADD PUSH1 0x40 MSTORE DUP1 PUSH0 DUP2 MSTORE POP PUSH2 0x969 JUMP JUMPDEST POP POP POP JUMP JUMPDEST PUSH2 0x702 PUSH2 0xBF2 JUMP JUMPDEST CALLER PUSH2 0x70C DUP3 PUSH2 0x8EF JUMP JUMPDEST PUSH1 0x1 PUSH1 0x1 PUSH1 0xA0 SHL SUB AND EQ PUSH2 0x762 JUMPI PUSH1 0x40 MLOAD PUSH3 0x461BCD PUSH1 0xE5 SHL DUP2 MSTORE PUSH1 0x20 PUSH1 0x4 DUP3 ADD MSTORE PUSH1 0x1F PUSH1 0x24 DUP3 ADD MSTORE PUSH32 0x596F75206D757374206F776E20746865204E465420746F206275726E20697400 PUSH1 0x44 DUP3 ADD MSTORE PUSH1 0x64 ADD PUSH2 0x552 JUMP JUMPDEST PUSH0 DUP2 DUP2 MSTORE PUSH1 0xA PUSH1 0x20 MSTORE PUSH1 0x40 SWAP1 KECCAK256 SLOAD DUP1 PUSH2 0x7BD JUMPI PUSH1 0x40 MLOAD PUSH3 0x461BCD PUSH1 0xE5 SHL DUP2 MSTORE PUSH1 0x20 PUSH1 0x4 DUP3 ADD MSTORE PUSH1 0x1A PUSH1 0x24 DUP3 ADD MSTORE PUSH32 0x4E6F20455448206C6F636B656420666F722074686973204E4654000000000000 PUSH1 0x44 DUP3 ADD MSTORE PUSH1 0x64 ADD PUSH2 0x552 JUMP JUMPDEST PUSH0 DUP3 DUP2 MSTORE PUSH1 0xA PUSH1 0x20 MSTORE PUSH1 0x40 DUP2 KECCAK256 SSTORE PUSH2 0x7D5 CALLER DUP4 PUSH2 0xD56 JUMP JUMPDEST PUSH2 0x7DE DUP3 PUSH2 0xE1F JUMP JUMPDEST PUSH1 0x40 MLOAD PUSH0 SWAP1 CALLER SWAP1 DUP4 SWAP1 DUP4 DUP2 DUP2 DUP2 DUP6 DUP8 GAS CALL SWAP3 POP POP POP RETURNDATASIZE DUP1 PUSH0 DUP2 EQ PUSH2 0x81D JUMPI PUSH1 0x40 MLOAD SWAP2 POP PUSH1 0x1F NOT PUSH1 0x3F RETURNDATASIZE ADD AND DUP3 ADD PUSH1 0x40 MSTORE RETURNDATASIZE DUP3 MSTORE RETURNDATASIZE PUSH0 PUSH1 0x20 DUP5 ADD RETURNDATACOPY PUSH2 0x822 JUMP JUMPDEST PUSH1 0x60 SWAP2 POP JUMPDEST POP POP SWAP1 POP DUP1 PUSH2 0x869 JUMPI PUSH1 0x40 MLOAD PUSH3 0x461BCD PUSH1 0xE5 SHL DUP2 MSTORE PUSH1 0x20 PUSH1 0x4 DUP3 ADD MSTORE PUSH1 0x13 PUSH1 0x24 DUP3 ADD MSTORE PUSH19 0x115512081D1C985B9CD9995C8819985A5B1959 PUSH1 0x6A SHL PUSH1 0x44 DUP3 ADD MSTORE PUSH1 0x64 ADD PUSH2 0x552 JUMP JUMPDEST PUSH1 0x40 MLOAD DUP3 DUP2 MSTORE DUP4 SWAP1 CALLER SWAP1 PUSH32 0x23FF0E75EDF108E3D0392D92E13E8C8A868EF19001BD49F9E94876DC46DFF87F SWAP1 PUSH1 0x20 ADD PUSH1 0x40 MLOAD DUP1 SWAP2 SUB SWAP1 LOG3 POP POP PUSH2 0x8AC PUSH1 0x1 PUSH1 0x7 SSTORE JUMP JUMPDEST POP JUMP JUMPDEST PUSH0 DUP1 DUP1 JUMPDEST PUSH1 0x8 SLOAD DUP2 LT ISZERO PUSH2 0x8E9 JUMPI PUSH0 DUP2 DUP2 MSTORE PUSH1 0xA PUSH1 0x20 MSTORE PUSH1 0x40 SWAP1 KECCAK256 SLOAD PUSH2 0x8D5 SWAP1 DUP4 PUSH2 0x1774 JUMP JUMPDEST SWAP2 POP DUP1 PUSH2 0x8E1 DUP2 PUSH2 0x175C JUMP JUMPDEST SWAP2 POP POP PUSH2 0x8B3 JUMP JUMPDEST POP SWAP2 SWAP1 POP JUMP JUMPDEST PUSH0 PUSH2 0x427 DUP3 PUSH2 0xBAD JUMP JUMPDEST PUSH0 PUSH1 0x1 PUSH1 0x1 PUSH1 0xA0 SHL SUB DUP3 AND PUSH2 0x923 JUMPI PUSH1 0x40 MLOAD PUSH4 0x22718AD9 PUSH1 0xE2 SHL DUP2 MSTORE PUSH0 PUSH1 0x4 DUP3 ADD MSTORE PUSH1 0x24 ADD PUSH2 0x552 JUMP JUMPDEST POP PUSH1 0x1 PUSH1 0x1 PUSH1 0xA0 SHL SUB AND PUSH0 SWAP1 DUP2 MSTORE PUSH1 0x3 PUSH1 0x20 MSTORE PUSH1 0x40 SWAP1 KECCAK256 SLOAD SWAP1 JUMP JUMPDEST PUSH2 0x946 PUSH2 0xE57 JUMP JUMPDEST PUSH2 0x650 PUSH0 PUSH2 0xE84 JUMP JUMPDEST PUSH1 0x60 PUSH1 0x1 DUP1 SLOAD PUSH2 0x43B SWAP1 PUSH2 0x1716 JUMP JUMPDEST PUSH2 0x4EE CALLER DUP4 DUP4 PUSH2 0xED5 JUMP JUMPDEST PUSH2 0x974 DUP5 DUP5 DUP5 PUSH2 0x652 JUMP JUMPDEST PUSH2 0x6D5 CALLER DUP6 DUP6 DUP6 DUP6 PUSH2 0xF73 JUMP JUMPDEST PUSH1 0x1 PUSH1 0x1 PUSH1 0xA0 SHL SUB DUP2 AND PUSH0 SWAP1 DUP2 MSTORE PUSH1 0xB PUSH1 0x20 SWAP1 DUP2 MSTORE PUSH1 0x40 SWAP2 DUP3 SWAP1 KECCAK256 DUP1 SLOAD DUP4 MLOAD DUP2 DUP5 MUL DUP2 ADD DUP5 ADD SWAP1 SWAP5 MSTORE DUP1 DUP5 MSTORE PUSH1 0x60 SWAP4 SWAP3 DUP4 ADD DUP3 DUP3 DUP1 ISZERO PUSH2 0x9DE JUMPI PUSH1 0x20 MUL DUP3 ADD SWAP2 SWAP1 PUSH0 MSTORE PUSH1 0x20 PUSH0 KECCAK256 SWAP1 JUMPDEST DUP2 SLOAD DUP2 MSTORE PUSH1 0x20 ADD SWAP1 PUSH1 0x1 ADD SWAP1 DUP1 DUP4 GT PUSH2 0x9CA JUMPI JUMPDEST POP POP POP POP POP SWAP1 POP SWAP2 SWAP1 POP JUMP JUMPDEST PUSH1 0x60 PUSH2 0x9F5 DUP3 PUSH2 0xBAD JUMP JUMPDEST POP PUSH0 PUSH2 0xA0B PUSH1 0x40 DUP1 MLOAD PUSH1 0x20 DUP2 ADD SWAP1 SWAP2 MSTORE PUSH0 DUP2 MSTORE SWAP1 JUMP JUMPDEST SWAP1 POP PUSH0 DUP2 MLOAD GT PUSH2 0xA29 JUMPI PUSH1 0x40 MLOAD DUP1 PUSH1 0x20 ADD PUSH1 0x40 MSTORE DUP1 PUSH0 DUP2 MSTORE POP PUSH2 0xA54 JUMP JUMPDEST DUP1 PUSH2 0xA33 DUP5 PUSH2 0x109A JUMP JUMPDEST PUSH1 0x40 MLOAD PUSH1 0x20 ADD PUSH2 0xA44 SWAP3 SWAP2 SWAP1 PUSH2 0x1787 JUMP JUMPDEST PUSH1 0x40 MLOAD PUSH1 0x20 DUP2 DUP4 SUB SUB DUP2 MSTORE SWAP1 PUSH1 0x40 MSTORE JUMPDEST SWAP4 SWAP3 POP POP POP JUMP JUMPDEST PUSH1 0x1 PUSH1 0x1 PUSH1 0xA0 SHL SUB SWAP2 DUP3 AND PUSH0 SWAP1 DUP2 MSTORE PUSH1 0x5 PUSH1 0x20 SWAP1 DUP2 MSTORE PUSH1 0x40 DUP1 DUP4 KECCAK256 SWAP4 SWAP1 SWAP5 AND DUP3 MSTORE SWAP2 SWAP1 SWAP2 MSTORE KECCAK256 SLOAD PUSH1 0xFF AND SWAP1 JUMP JUMPDEST PUSH2 0xA90 PUSH2 0xE57 JUMP JUMPDEST PUSH1 0x1 PUSH1 0x1 PUSH1 0xA0 SHL SUB DUP2 AND PUSH2 0xAB9 JUMPI PUSH1 0x40 MLOAD PUSH4 0x1E4FBDF7 PUSH1 0xE0 SHL DUP2 MSTORE PUSH0 PUSH1 0x4 DUP3 ADD MSTORE PUSH1 0x24 ADD PUSH2 0x552 JUMP JUMPDEST PUSH2 0x8AC DUP2 PUSH2 0xE84 JUMP JUMPDEST PUSH2 0xACA PUSH2 0xE57 JUMP JUMPDEST PUSH0 DUP2 GT PUSH2 0xB23 JUMPI PUSH1 0x40 MLOAD PUSH3 0x461BCD PUSH1 0xE5 SHL DUP2 MSTORE PUSH1 0x20 PUSH1 0x4 DUP3 ADD MSTORE PUSH1 0x21 PUSH1 0x24 DUP3 ADD MSTORE PUSH32 0x4D696E74207072696365206D7573742062652067726561746572207468616E20 PUSH1 0x44 DUP3 ADD MSTORE PUSH1 0x3 PUSH1 0xFC SHL PUSH1 0x64 DUP3 ADD MSTORE PUSH1 0x84 ADD PUSH2 0x552 JUMP JUMPDEST PUSH1 0x9 DUP2 SWAP1 SSTORE PUSH1 0x40 MLOAD DUP2 DUP2 MSTORE PUSH32 0x525B762709CC2A983AEC5CCDFD807A061F993C91090B5BCD7DA92CA254976AAA SWAP1 PUSH1 0x20 ADD PUSH1 0x40 MLOAD DUP1 SWAP2 SUB SWAP1 LOG1 POP JUMP JUMPDEST PUSH0 PUSH1 0x1 PUSH1 0x1 PUSH1 0xE0 SHL SUB NOT DUP3 AND PUSH4 0x80AC58CD PUSH1 0xE0 SHL EQ DUP1 PUSH2 0xB8E JUMPI POP PUSH1 0x1 PUSH1 0x1 PUSH1 0xE0 SHL SUB NOT DUP3 AND PUSH4 0x5B5E139F PUSH1 0xE0 SHL EQ JUMPDEST DUP1 PUSH2 0x427 JUMPI POP PUSH4 0x1FFC9A7 PUSH1 0xE0 SHL PUSH1 0x1 PUSH1 0x1 PUSH1 0xE0 SHL SUB NOT DUP4 AND EQ PUSH2 0x427 JUMP JUMPDEST PUSH0 DUP2 DUP2 MSTORE PUSH1 0x2 PUSH1 0x20 MSTORE PUSH1 0x40 DUP2 KECCAK256 SLOAD PUSH1 0x1 PUSH1 0x1 PUSH1 0xA0 SHL SUB AND DUP1 PUSH2 0x427 JUMPI PUSH1 0x40 MLOAD PUSH4 0x7E273289 PUSH1 0xE0 SHL DUP2 MSTORE PUSH1 0x4 DUP2 ADD DUP5 SWAP1 MSTORE PUSH1 0x24 ADD PUSH2 0x552 JUMP JUMPDEST PUSH2 0x6F5 DUP4 DUP4 DUP4 PUSH1 0x1 PUSH2 0x112A JUMP JUMPDEST PUSH1 0x2 PUSH1 0x7 SLOAD SUB PUSH2 0xC44 JUMPI PUSH1 0x40 MLOAD PUSH3 0x461BCD PUSH1 0xE5 SHL DUP2 MSTORE PUSH1 0x20 PUSH1 0x4 DUP3 ADD MSTORE PUSH1 0x1F PUSH1 0x24 DUP3 ADD MSTORE PUSH32 0x5265656E7472616E637947756172643A207265656E7472616E742063616C6C00 PUSH1 0x44 DUP3 ADD MSTORE PUSH1 0x64 ADD PUSH2 0x552 JUMP JUMPDEST PUSH1 0x2 PUSH1 0x7 SSTORE JUMP JUMPDEST PUSH2 0x4EE DUP3 DUP3 PUSH1 0x40 MLOAD DUP1 PUSH1 0x20 ADD PUSH1 0x40 MSTORE DUP1 PUSH0 DUP2 MSTORE POP PUSH2 0x122E JUMP JUMPDEST PUSH0 DUP3 DUP2 MSTORE PUSH1 0x2 PUSH1 0x20 MSTORE PUSH1 0x40 DUP2 KECCAK256 SLOAD PUSH1 0x1 PUSH1 0x1 PUSH1 0xA0 SHL SUB SWAP1 DUP2 AND SWAP1 DUP4 AND ISZERO PUSH2 0xC90 JUMPI PUSH2 0xC90 DUP2 DUP5 DUP7 PUSH2 0x1245 JUMP JUMPDEST PUSH1 0x1 PUSH1 0x1 PUSH1 0xA0 SHL SUB DUP2 AND ISZERO PUSH2 0xCCA JUMPI PUSH2 0xCAB PUSH0 DUP6 PUSH0 DUP1 PUSH2 0x112A JUMP JUMPDEST PUSH1 0x1 PUSH1 0x1 PUSH1 0xA0 SHL SUB DUP2 AND PUSH0 SWAP1 DUP2 MSTORE PUSH1 0x3 PUSH1 0x20 MSTORE PUSH1 0x40 SWAP1 KECCAK256 DUP1 SLOAD PUSH0 NOT ADD SWAP1 SSTORE JUMPDEST PUSH1 0x1 PUSH1 0x1 PUSH1 0xA0 SHL SUB DUP6 AND ISZERO PUSH2 0xCF8 JUMPI PUSH1 0x1 PUSH1 0x1 PUSH1 0xA0 SHL SUB DUP6 AND PUSH0 SWAP1 DUP2 MSTORE PUSH1 0x3 PUSH1 0x20 MSTORE PUSH1 0x40 SWAP1 KECCAK256 DUP1 SLOAD PUSH1 0x1 ADD SWAP1 SSTORE JUMPDEST PUSH0 DUP5 DUP2 MSTORE PUSH1 0x2 PUSH1 0x20 MSTORE PUSH1 0x40 DUP1 DUP3 KECCAK256 DUP1 SLOAD PUSH1 0x1 PUSH1 0x1 PUSH1 0xA0 SHL SUB NOT AND PUSH1 0x1 PUSH1 0x1 PUSH1 0xA0 SHL SUB DUP10 DUP2 AND SWAP2 DUP3 OR SWAP1 SWAP3 SSTORE SWAP2 MLOAD DUP8 SWAP4 SWAP2 DUP6 AND SWAP2 PUSH32 0xDDF252AD1BE2C89B69C2B068FC378DAA952BA7F163C4A11628F55A4DF523B3EF SWAP2 LOG4 SWAP5 SWAP4 POP POP POP POP JUMP JUMPDEST PUSH1 0x1 PUSH1 0x1 PUSH1 0xA0 SHL SUB DUP3 AND PUSH0 SWAP1 DUP2 MSTORE PUSH1 0xB PUSH1 0x20 MSTORE PUSH1 0x40 DUP2 KECCAK256 DUP1 SLOAD SWAP1 SWAP2 JUMPDEST DUP2 DUP2 LT ISZERO PUSH2 0xE18 JUMPI DUP4 DUP4 DUP3 DUP2 SLOAD DUP2 LT PUSH2 0xD8D JUMPI PUSH2 0xD8D PUSH2 0x17B5 JUMP JUMPDEST SWAP1 PUSH0 MSTORE PUSH1 0x20 PUSH0 KECCAK256 ADD SLOAD SUB PUSH2 0xE06 JUMPI DUP3 PUSH2 0xDA7 PUSH1 0x1 DUP5 PUSH2 0x17C9 JUMP JUMPDEST DUP2 SLOAD DUP2 LT PUSH2 0xDB7 JUMPI PUSH2 0xDB7 PUSH2 0x17B5 JUMP JUMPDEST SWAP1 PUSH0 MSTORE PUSH1 0x20 PUSH0 KECCAK256 ADD SLOAD DUP4 DUP3 DUP2 SLOAD DUP2 LT PUSH2 0xDD2 JUMPI PUSH2 0xDD2 PUSH2 0x17B5 JUMP JUMPDEST SWAP1 PUSH0 MSTORE PUSH1 0x20 PUSH0 KECCAK256 ADD DUP2 SWAP1 SSTORE POP DUP3 DUP1 SLOAD DUP1 PUSH2 0xDEE JUMPI PUSH2 0xDEE PUSH2 0x17DC JUMP JUMPDEST PUSH1 0x1 SWAP1 SUB DUP2 DUP2 SWAP1 PUSH0 MSTORE PUSH1 0x20 PUSH0 KECCAK256 ADD PUSH0 SWAP1 SSTORE SWAP1 SSTORE PUSH2 0xE18 JUMP JUMPDEST DUP1 PUSH2 0xE10 DUP2 PUSH2 0x175C JUMP JUMPDEST SWAP2 POP POP PUSH2 0xD72 JUMP JUMPDEST POP POP POP POP POP JUMP JUMPDEST PUSH0 PUSH2 0xE2B PUSH0 DUP4 PUSH0 PUSH2 0xC64 JUMP JUMPDEST SWAP1 POP PUSH1 0x1 PUSH1 0x1 PUSH1 0xA0 SHL SUB DUP2 AND PUSH2 0x4EE JUMPI PUSH1 0x40 MLOAD PUSH4 0x7E273289 PUSH1 0xE0 SHL DUP2 MSTORE PUSH1 0x4 DUP2 ADD DUP4 SWAP1 MSTORE PUSH1 0x24 ADD PUSH2 0x552 JUMP JUMPDEST PUSH1 0x6 SLOAD PUSH1 0x1 PUSH1 0x1 PUSH1 0xA0 SHL SUB AND CALLER EQ PUSH2 0x650 JUMPI PUSH1 0x40 MLOAD PUSH4 0x118CDAA7 PUSH1 0xE0 SHL DUP2 MSTORE CALLER PUSH1 0x4 DUP3 ADD MSTORE PUSH1 0x24 ADD PUSH2 0x552 JUMP JUMPDEST PUSH1 0x6 DUP1 SLOAD PUSH1 0x1 PUSH1 0x1 PUSH1 0xA0 SHL SUB DUP4 DUP2 AND PUSH1 0x1 PUSH1 0x1 PUSH1 0xA0 SHL SUB NOT DUP4 AND DUP2 OR SWAP1 SWAP4 SSTORE PUSH1 0x40 MLOAD SWAP2 AND SWAP2 SWAP1 DUP3 SWAP1 PUSH32 0x8BE0079C531659141344CD1FD0A4F28419497F9722A3DAAFE3B4186F6B6457E0 SWAP1 PUSH0 SWAP1 LOG3 POP POP JUMP JUMPDEST PUSH1 0x1 PUSH1 0x1 PUSH1 0xA0 SHL SUB DUP3 AND PUSH2 0xF07 JUMPI PUSH1 0x40 MLOAD PUSH4 0xB611743 PUSH1 0xE3 SHL DUP2 MSTORE PUSH1 0x1 PUSH1 0x1 PUSH1 0xA0 SHL SUB DUP4 AND PUSH1 0x4 DUP3 ADD MSTORE PUSH1 0x24 ADD PUSH2 0x552 JUMP JUMPDEST PUSH1 0x1 PUSH1 0x1 PUSH1 0xA0 SHL SUB DUP4 DUP2 AND PUSH0 DUP2 DUP2 MSTORE PUSH1 0x5 PUSH1 0x20 SWAP1 DUP2 MSTORE PUSH1 0x40 DUP1 DUP4 KECCAK256 SWAP5 DUP8 AND DUP1 DUP5 MSTORE SWAP5 DUP3 MSTORE SWAP2 DUP3 SWAP1 KECCAK256 DUP1 SLOAD PUSH1 0xFF NOT AND DUP7 ISZERO ISZERO SWAP1 DUP2 OR SWAP1 SWAP2 SSTORE SWAP2 MLOAD SWAP2 DUP3 MSTORE PUSH32 0x17307EAB39AB6107E8899845AD3D59BD9653F200F220920489CA2B5937696C31 SWAP2 ADD PUSH1 0x40 MLOAD DUP1 SWAP2 SUB SWAP1 LOG3 POP POP POP JUMP JUMPDEST PUSH1 0x1 PUSH1 0x1 PUSH1 0xA0 SHL SUB DUP4 AND EXTCODESIZE ISZERO PUSH2 0xE18 JUMPI PUSH1 0x40 MLOAD PUSH4 0xA85BD01 PUSH1 0xE1 SHL DUP2 MSTORE PUSH1 0x1 PUSH1 0x1 PUSH1 0xA0 SHL SUB DUP5 AND SWAP1 PUSH4 0x150B7A02 SWAP1 PUSH2 0xFB5 SWAP1 DUP9 SWAP1 DUP9 SWAP1 DUP8 SWAP1 DUP8 SWAP1 PUSH1 0x4 ADD PUSH2 0x17F0 JUMP JUMPDEST PUSH1 0x20 PUSH1 0x40 MLOAD DUP1 DUP4 SUB DUP2 PUSH0 DUP8 GAS CALL SWAP3 POP POP POP DUP1 ISZERO PUSH2 0xFEF JUMPI POP PUSH1 0x40 DUP1 MLOAD PUSH1 0x1F RETURNDATASIZE SWAP1 DUP2 ADD PUSH1 0x1F NOT AND DUP3 ADD SWAP1 SWAP3 MSTORE PUSH2 0xFEC SWAP2 DUP2 ADD SWAP1 PUSH2 0x182C JUMP JUMPDEST PUSH1 0x1 JUMPDEST PUSH2 0x1056 JUMPI RETURNDATASIZE DUP1 DUP1 ISZERO PUSH2 0x101C JUMPI PUSH1 0x40 MLOAD SWAP2 POP PUSH1 0x1F NOT PUSH1 0x3F RETURNDATASIZE ADD AND DUP3 ADD PUSH1 0x40 MSTORE RETURNDATASIZE DUP3 MSTORE RETURNDATASIZE PUSH0 PUSH1 0x20 DUP5 ADD RETURNDATACOPY PUSH2 0x1021 JUMP JUMPDEST PUSH1 0x60 SWAP2 POP JUMPDEST POP DUP1 MLOAD PUSH0 SUB PUSH2 0x104E JUMPI PUSH1 0x40 MLOAD PUSH4 0x32505749 PUSH1 0xE1 SHL DUP2 MSTORE PUSH1 0x1 PUSH1 0x1 PUSH1 0xA0 SHL SUB DUP6 AND PUSH1 0x4 DUP3 ADD MSTORE PUSH1 0x24 ADD PUSH2 0x552 JUMP JUMPDEST DUP1 MLOAD DUP2 PUSH1 0x20 ADD REVERT JUMPDEST PUSH1 0x1 PUSH1 0x1 PUSH1 0xE0 SHL SUB NOT DUP2 AND PUSH4 0xA85BD01 PUSH1 0xE1 SHL EQ PUSH2 0x1092 JUMPI PUSH1 0x40 MLOAD PUSH4 0x32505749 PUSH1 0xE1 SHL DUP2 MSTORE PUSH1 0x1 PUSH1 0x1 PUSH1 0xA0 SHL SUB DUP6 AND PUSH1 0x4 DUP3 ADD MSTORE PUSH1 0x24 ADD PUSH2 0x552 JUMP JUMPDEST POP POP POP POP POP POP JUMP JUMPDEST PUSH1 0x60 PUSH0 PUSH2 0x10A6 DUP4 PUSH2 0x12A9 JUMP JUMPDEST PUSH1 0x1 ADD SWAP1 POP PUSH0 DUP2 PUSH8 0xFFFFFFFFFFFFFFFF DUP2 GT ISZERO PUSH2 0x10C5 JUMPI PUSH2 0x10C5 PUSH2 0x15B9 JUMP JUMPDEST PUSH1 0x40 MLOAD SWAP1 DUP1 DUP3 MSTORE DUP1 PUSH1 0x1F ADD PUSH1 0x1F NOT AND PUSH1 0x20 ADD DUP3 ADD PUSH1 0x40 MSTORE DUP1 ISZERO PUSH2 0x10EF JUMPI PUSH1 0x20 DUP3 ADD DUP2 DUP1 CALLDATASIZE DUP4 CALLDATACOPY ADD SWAP1 POP JUMPDEST POP SWAP1 POP DUP2 DUP2 ADD PUSH1 0x20 ADD JUMPDEST PUSH0 NOT ADD PUSH16 0x181899199A1A9B1B9C1CB0B131B232B3 PUSH1 0x81 SHL PUSH1 0xA DUP7 MOD BYTE DUP2 MSTORE8 PUSH1 0xA DUP6 DIV SWAP5 POP DUP5 PUSH2 0x10F9 JUMPI POP SWAP4 SWAP3 POP POP POP JUMP JUMPDEST DUP1 DUP1 PUSH2 0x113E JUMPI POP PUSH1 0x1 PUSH1 0x1 PUSH1 0xA0 SHL SUB DUP3 AND ISZERO ISZERO JUMPDEST ISZERO PUSH2 0x11FF JUMPI PUSH0 PUSH2 0x114D DUP5 PUSH2 0xBAD JUMP JUMPDEST SWAP1 POP PUSH1 0x1 PUSH1 0x1 PUSH1 0xA0 SHL SUB DUP4 AND ISZERO DUP1 ISZERO SWAP1 PUSH2 0x1179 JUMPI POP DUP3 PUSH1 0x1 PUSH1 0x1 PUSH1 0xA0 SHL SUB AND DUP2 PUSH1 0x1 PUSH1 0x1 PUSH1 0xA0 SHL SUB AND EQ ISZERO JUMPDEST DUP1 ISZERO PUSH2 0x118C JUMPI POP PUSH2 0x118A DUP2 DUP5 PUSH2 0xA5B JUMP JUMPDEST ISZERO JUMPDEST ISZERO PUSH2 0x11B5 JUMPI PUSH1 0x40 MLOAD PUSH4 0xA9FBF51F PUSH1 0xE0 SHL DUP2 MSTORE PUSH1 0x1 PUSH1 0x1 PUSH1 0xA0 SHL SUB DUP5 AND PUSH1 0x4 DUP3 ADD MSTORE PUSH1 0x24 ADD PUSH2 0x552 JUMP JUMPDEST DUP2 ISZERO PUSH2 0x11FD JUMPI DUP4 DUP6 PUSH1 0x1 PUSH1 0x1 PUSH1 0xA0 SHL SUB AND DUP3 PUSH1 0x1 PUSH1 0x1 PUSH1 0xA0 SHL SUB AND PUSH32 0x8C5BE1E5EBEC7D5BD14F71427D1E84F3DD0314C0F7B2291E5B200AC8C7C3B925 PUSH1 0x40 MLOAD PUSH1 0x40 MLOAD DUP1 SWAP2 SUB SWAP1 LOG4 JUMPDEST POP JUMPDEST POP POP PUSH0 SWAP1 DUP2 MSTORE PUSH1 0x4 PUSH1 0x20 MSTORE PUSH1 0x40 SWAP1 KECCAK256 DUP1 SLOAD PUSH1 0x1 PUSH1 0x1 PUSH1 0xA0 SHL SUB NOT AND PUSH1 0x1 PUSH1 0x1 PUSH1 0xA0 SHL SUB SWAP3 SWAP1 SWAP3 AND SWAP2 SWAP1 SWAP2 OR SWAP1 SSTORE JUMP JUMPDEST PUSH2 0x1238 DUP4 DUP4 PUSH2 0x1380 JUMP JUMPDEST PUSH2 0x6F5 CALLER PUSH0 DUP6 DUP6 DUP6 PUSH2 0xF73 JUMP JUMPDEST PUSH2 0x1250 DUP4 DUP4 DUP4 PUSH2 0x13E1 JUMP JUMPDEST PUSH2 0x6F5 JUMPI PUSH1 0x1 PUSH1 0x1 PUSH1 0xA0 SHL SUB DUP4 AND PUSH2 0x127E JUMPI PUSH1 0x40 MLOAD PUSH4 0x7E273289 PUSH1 0xE0 SHL DUP2 MSTORE PUSH1 0x4 DUP2 ADD DUP3 SWAP1 MSTORE PUSH1 0x24 ADD PUSH2 0x552 JUMP JUMPDEST PUSH1 0x40 MLOAD PUSH4 0x177E802F PUSH1 0xE0 SHL DUP2 MSTORE PUSH1 0x1 PUSH1 0x1 PUSH1 0xA0 SHL SUB DUP4 AND PUSH1 0x4 DUP3 ADD MSTORE PUSH1 0x24 DUP2 ADD DUP3 SWAP1 MSTORE PUSH1 0x44 ADD PUSH2 0x552 JUMP JUMPDEST PUSH0 DUP1 PUSH19 0x184F03E93FF9F4DAA797ED6E38ED64BF6A1F01 PUSH1 0x40 SHL DUP4 LT PUSH2 0x12E7 JUMPI PUSH19 0x184F03E93FF9F4DAA797ED6E38ED64BF6A1F01 PUSH1 0x40 SHL DUP4 DIV SWAP3 POP PUSH1 0x40 ADD JUMPDEST PUSH14 0x4EE2D6D415B85ACEF8100000000 DUP4 LT PUSH2 0x1313 JUMPI PUSH14 0x4EE2D6D415B85ACEF8100000000 DUP4 DIV SWAP3 POP PUSH1 0x20 ADD JUMPDEST PUSH7 0x2386F26FC10000 DUP4 LT PUSH2 0x1331 JUMPI PUSH7 0x2386F26FC10000 DUP4 DIV SWAP3 POP PUSH1 0x10 ADD JUMPDEST PUSH4 0x5F5E100 DUP4 LT PUSH2 0x1349 JUMPI PUSH4 0x5F5E100 DUP4 DIV SWAP3 POP PUSH1 0x8 ADD JUMPDEST PUSH2 0x2710 DUP4 LT PUSH2 0x135D JUMPI PUSH2 0x2710 DUP4 DIV SWAP3 POP PUSH1 0x4 ADD JUMPDEST PUSH1 0x64 DUP4 LT PUSH2 0x136F JUMPI PUSH1 0x64 DUP4 DIV SWAP3 POP PUSH1 0x2 ADD JUMPDEST PUSH1 0xA DUP4 LT PUSH2 0x427 JUMPI PUSH1 0x1 ADD SWAP3 SWAP2 POP POP JUMP JUMPDEST PUSH1 0x1 PUSH1 0x1 PUSH1 0xA0 SHL SUB DUP3 AND PUSH2 0x13A9 JUMPI PUSH1 0x40 MLOAD PUSH4 0x32505749 PUSH1 0xE1 SHL DUP2 MSTORE PUSH0 PUSH1 0x4 DUP3 ADD MSTORE PUSH1 0x24 ADD PUSH2 0x552 JUMP JUMPDEST PUSH0 PUSH2 0x13B5 DUP4 DUP4 PUSH0 PUSH2 0xC64 JUMP JUMPDEST SWAP1 POP PUSH1 0x1 PUSH1 0x1 PUSH1 0xA0 SHL SUB DUP2 AND ISZERO PUSH2 0x6F5 JUMPI PUSH1 0x40 MLOAD PUSH4 0x39E35637 PUSH1 0xE1 SHL DUP2 MSTORE PUSH0 PUSH1 0x4 DUP3 ADD MSTORE PUSH1 0x24 ADD PUSH2 0x552 JUMP JUMPDEST PUSH0 PUSH1 0x1 PUSH1 0x1 PUSH1 0xA0 SHL SUB DUP4 AND ISZERO DUP1 ISZERO SWAP1 PUSH2 0x143D JUMPI POP DUP3 PUSH1 0x1 PUSH1 0x1 PUSH1 0xA0 SHL SUB AND DUP5 PUSH1 0x1 PUSH1 0x1 PUSH1 0xA0 SHL SUB AND EQ DUP1 PUSH2 0x141A JUMPI POP PUSH2 0x141A DUP5 DUP5 PUSH2 0xA5B JUMP JUMPDEST DUP1 PUSH2 0x143D JUMPI POP PUSH0 DUP3 DUP2 MSTORE PUSH1 0x4 PUSH1 0x20 MSTORE PUSH1 0x40 SWAP1 KECCAK256 SLOAD PUSH1 0x1 PUSH1 0x1 PUSH1 0xA0 SHL SUB DUP5 DUP2 AND SWAP2 AND EQ JUMPDEST SWAP5 SWAP4 POP POP POP POP JUMP JUMPDEST PUSH1 0x1 PUSH1 0x1 PUSH1 0xE0 SHL SUB NOT DUP2 AND DUP2 EQ PUSH2 0x8AC JUMPI PUSH0 DUP1 REVERT JUMPDEST PUSH0 PUSH1 0x20 DUP3 DUP5 SUB SLT ISZERO PUSH2 0x146A JUMPI PUSH0 DUP1 REVERT JUMPDEST DUP2 CALLDATALOAD PUSH2 0xA54 DUP2 PUSH2 0x1445 JUMP JUMPDEST PUSH0 JUMPDEST DUP4 DUP2 LT ISZERO PUSH2 0x148F JUMPI DUP2 DUP2 ADD MLOAD DUP4 DUP3 ADD MSTORE PUSH1 0x20 ADD PUSH2 0x1477 JUMP JUMPDEST POP POP PUSH0 SWAP2 ADD MSTORE JUMP JUMPDEST PUSH0 DUP2 MLOAD DUP1 DUP5 MSTORE PUSH2 0x14AE DUP2 PUSH1 0x20 DUP7 ADD PUSH1 0x20 DUP7 ADD PUSH2 0x1475 JUMP JUMPDEST PUSH1 0x1F ADD PUSH1 0x1F NOT AND SWAP3 SWAP1 SWAP3 ADD PUSH1 0x20 ADD SWAP3 SWAP2 POP POP JUMP JUMPDEST PUSH1 0x20 DUP2 MSTORE PUSH0 PUSH2 0xA54 PUSH1 0x20 DUP4 ADD DUP5 PUSH2 0x1497 JUMP JUMPDEST PUSH0 PUSH1 0x20 DUP3 DUP5 SUB SLT ISZERO PUSH2 0x14E4 JUMPI PUSH0 DUP1 REVERT JUMPDEST POP CALLDATALOAD SWAP2 SWAP1 POP JUMP JUMPDEST DUP1 CALLDATALOAD PUSH1 0x1 PUSH1 0x1 PUSH1 0xA0 SHL SUB DUP2 AND DUP2 EQ PUSH2 0x1501 JUMPI PUSH0 DUP1 REVERT JUMPDEST SWAP2 SWAP1 POP JUMP JUMPDEST PUSH0 DUP1 PUSH1 0x40 DUP4 DUP6 SUB SLT ISZERO PUSH2 0x1517 JUMPI PUSH0 DUP1 REVERT JUMPDEST PUSH2 0x1520 DUP4 PUSH2 0x14EB JUMP JUMPDEST SWAP5 PUSH1 0x20 SWAP4 SWAP1 SWAP4 ADD CALLDATALOAD SWAP4 POP POP POP JUMP JUMPDEST PUSH0 DUP1 PUSH0 PUSH1 0x60 DUP5 DUP7 SUB SLT ISZERO PUSH2 0x1540 JUMPI PUSH0 DUP1 REVERT JUMPDEST PUSH2 0x1549 DUP5 PUSH2 0x14EB JUMP JUMPDEST SWAP3 POP PUSH2 0x1557 PUSH1 0x20 DUP6 ADD PUSH2 0x14EB JUMP JUMPDEST SWAP2 POP PUSH1 0x40 DUP5 ADD CALLDATALOAD SWAP1 POP SWAP3 POP SWAP3 POP SWAP3 JUMP JUMPDEST PUSH0 PUSH1 0x20 DUP3 DUP5 SUB SLT ISZERO PUSH2 0x1577 JUMPI PUSH0 DUP1 REVERT JUMPDEST PUSH2 0xA54 DUP3 PUSH2 0x14EB JUMP JUMPDEST PUSH0 DUP1 PUSH1 0x40 DUP4 DUP6 SUB SLT ISZERO PUSH2 0x1591 JUMPI PUSH0 DUP1 REVERT JUMPDEST PUSH2 0x159A DUP4 PUSH2 0x14EB JUMP JUMPDEST SWAP2 POP PUSH1 0x20 DUP4 ADD CALLDATALOAD DUP1 ISZERO ISZERO DUP2 EQ PUSH2 0x15AE JUMPI PUSH0 DUP1 REVERT JUMPDEST DUP1 SWAP2 POP POP SWAP3 POP SWAP3 SWAP1 POP JUMP JUMPDEST PUSH4 0x4E487B71 PUSH1 0xE0 SHL PUSH0 MSTORE PUSH1 0x41 PUSH1 0x4 MSTORE PUSH1 0x24 PUSH0 REVERT JUMPDEST PUSH0 DUP1 PUSH0 DUP1 PUSH1 0x80 DUP6 DUP8 SUB SLT ISZERO PUSH2 0x15E0 JUMPI PUSH0 DUP1 REVERT JUMPDEST PUSH2 0x15E9 DUP6 PUSH2 0x14EB JUMP JUMPDEST SWAP4 POP PUSH2 0x15F7 PUSH1 0x20 DUP7 ADD PUSH2 0x14EB JUMP JUMPDEST SWAP3 POP PUSH1 0x40 DUP6 ADD CALLDATALOAD SWAP2 POP PUSH1 0x60 DUP6 ADD CALLDATALOAD PUSH8 0xFFFFFFFFFFFFFFFF DUP1 DUP3 GT ISZERO PUSH2 0x161A JUMPI PUSH0 DUP1 REVERT JUMPDEST DUP2 DUP8 ADD SWAP2 POP DUP8 PUSH1 0x1F DUP4 ADD SLT PUSH2 0x162D JUMPI PUSH0 DUP1 REVERT JUMPDEST DUP2 CALLDATALOAD DUP2 DUP2 GT ISZERO PUSH2 0x163F JUMPI PUSH2 0x163F PUSH2 0x15B9 JUMP JUMPDEST PUSH1 0x40 MLOAD PUSH1 0x1F DUP3 ADD PUSH1 0x1F NOT SWAP1 DUP2 AND PUSH1 0x3F ADD AND DUP2 ADD SWAP1 DUP4 DUP3 GT DUP2 DUP4 LT OR ISZERO PUSH2 0x1667 JUMPI PUSH2 0x1667 PUSH2 0x15B9 JUMP JUMPDEST DUP2 PUSH1 0x40 MSTORE DUP3 DUP2 MSTORE DUP11 PUSH1 0x20 DUP5 DUP8 ADD ADD GT ISZERO PUSH2 0x167F JUMPI PUSH0 DUP1 REVERT JUMPDEST DUP3 PUSH1 0x20 DUP7 ADD PUSH1 0x20 DUP4 ADD CALLDATACOPY PUSH0 PUSH1 0x20 DUP5 DUP4 ADD ADD MSTORE DUP1 SWAP6 POP POP POP POP POP POP SWAP3 SWAP6 SWAP2 SWAP5 POP SWAP3 POP JUMP JUMPDEST PUSH1 0x20 DUP1 DUP3 MSTORE DUP3 MLOAD DUP3 DUP3 ADD DUP2 SWAP1 MSTORE PUSH0 SWAP2 SWAP1 DUP5 DUP3 ADD SWAP1 PUSH1 0x40 DUP6 ADD SWAP1 DUP5 JUMPDEST DUP2 DUP2 LT ISZERO PUSH2 0x16D9 JUMPI DUP4 MLOAD DUP4 MSTORE SWAP3 DUP5 ADD SWAP3 SWAP2 DUP5 ADD SWAP2 PUSH1 0x1 ADD PUSH2 0x16BD JUMP JUMPDEST POP SWAP1 SWAP7 SWAP6 POP POP POP POP POP POP JUMP JUMPDEST PUSH0 DUP1 PUSH1 0x40 DUP4 DUP6 SUB SLT ISZERO PUSH2 0x16F6 JUMPI PUSH0 DUP1 REVERT JUMPDEST PUSH2 0x16FF DUP4 PUSH2 0x14EB JUMP JUMPDEST SWAP2 POP PUSH2 0x170D PUSH1 0x20 DUP5 ADD PUSH2 0x14EB JUMP JUMPDEST SWAP1 POP SWAP3 POP SWAP3 SWAP1 POP JUMP JUMPDEST PUSH1 0x1 DUP2 DUP2 SHR SWAP1 DUP3 AND DUP1 PUSH2 0x172A JUMPI PUSH1 0x7F DUP3 AND SWAP2 POP JUMPDEST PUSH1 0x20 DUP3 LT DUP2 SUB PUSH2 0x8E9 JUMPI PUSH4 0x4E487B71 PUSH1 0xE0 SHL PUSH0 MSTORE PUSH1 0x22 PUSH1 0x4 MSTORE PUSH1 0x24 PUSH0 REVERT JUMPDEST PUSH4 0x4E487B71 PUSH1 0xE0 SHL PUSH0 MSTORE PUSH1 0x11 PUSH1 0x4 MSTORE PUSH1 0x24 PUSH0 REVERT JUMPDEST PUSH0 PUSH1 0x1 DUP3 ADD PUSH2 0x176D JUMPI PUSH2 0x176D PUSH2 0x1748 JUMP JUMPDEST POP PUSH1 0x1 ADD SWAP1 JUMP JUMPDEST DUP1 DUP3 ADD DUP1 DUP3 GT ISZERO PUSH2 0x427 JUMPI PUSH2 0x427 PUSH2 0x1748 JUMP JUMPDEST PUSH0 DUP4 MLOAD PUSH2 0x1798 DUP2 DUP5 PUSH1 0x20 DUP9 ADD PUSH2 0x1475 JUMP JUMPDEST DUP4 MLOAD SWAP1 DUP4 ADD SWAP1 PUSH2 0x17AC DUP2 DUP4 PUSH1 0x20 DUP9 ADD PUSH2 0x1475 JUMP JUMPDEST ADD SWAP5 SWAP4 POP POP POP POP JUMP JUMPDEST PUSH4 0x4E487B71 PUSH1 0xE0 SHL PUSH0 MSTORE PUSH1 0x32 PUSH1 0x4 MSTORE PUSH1 0x24 PUSH0 REVERT JUMPDEST DUP2 DUP2 SUB DUP2 DUP2 GT ISZERO PUSH2 0x427 JUMPI PUSH2 0x427 PUSH2 0x1748 JUMP JUMPDEST PUSH4 0x4E487B71 PUSH1 0xE0 SHL PUSH0 MSTORE PUSH1 0x31 PUSH1 0x4 MSTORE PUSH1 0x24 PUSH0 REVERT JUMPDEST PUSH1 0x1 PUSH1 0x1 PUSH1 0xA0 SHL SUB DUP6 DUP2 AND DUP3 MSTORE DUP5 AND PUSH1 0x20 DUP3 ADD MSTORE PUSH1 0x40 DUP2 ADD DUP4 SWAP1 MSTORE PUSH1 0x80 PUSH1 0x60 DUP3 ADD DUP2 SWAP1 MSTORE PUSH0 SWAP1 PUSH2 0x1822 SWAP1 DUP4 ADD DUP5 PUSH2 0x1497 JUMP JUMPDEST SWAP7 SWAP6 POP POP POP POP POP POP JUMP JUMPDEST PUSH0 PUSH1 0x20 DUP3 DUP5 SUB SLT ISZERO PUSH2 0x183C JUMPI PUSH0 DUP1 REVERT JUMPDEST DUP2 MLOAD PUSH2 0xA54 DUP2 PUSH2 0x1445 JUMP INVALID LOG2 PUSH5 0x6970667358 0x22 SLT KECCAK256 DUP6 SHR 0xE5 EXP 0xE2 PUSH23 0x68AB0633EEF464B7DFD0187FF4B331B8F25F5A02C54AAE 0x5E LOG1 PUSH32 0x64736F6C63430008140033000000000000000000000000000000000000000000 "
				},
				"gasEstimates": {
					"creation": {
						"codeDepositCost": "1253800",
						"executionCost": "infinite",
						"totalCost": "infinite"
					},
					"external": {
						"MINT_PRICE()": "2316",
						"approve(address,uint256)": "31531",
						"balanceOf(address)": "2608",
						"burn(uint256)": "infinite",
						"getApproved(uint256)": "infinite",
						"getLockedEthForNft(uint256)": "2458",
						"getMintedNftId(address)": "infinite",
						"getTotalLockedEth()": "infinite",
						"isApprovedForAll(address,address)": "infinite",
						"mint()": "infinite",
						"name()": "infinite",
						"owner()": "2397",
						"ownerOf(uint256)": "infinite",
						"renounceOwnership()": "infinite",
						"safeTransferFrom(address,address,uint256)": "infinite",
						"safeTransferFrom(address,address,uint256,bytes)": "infinite",
						"setApprovalForAll(address,bool)": "26767",
						"setMintPrice(uint256)": "25705",
						"supportsInterface(bytes4)": "infinite",
						"symbol()": "infinite",
						"tokenURI(uint256)": "infinite",
						"transferFrom(address,address,uint256)": "infinite",
						"transferOwnership(address)": "28443"
					},
					"internal": {
						"_removeMintedToken(address,uint256)": "infinite"
					}
				},
				"methodIdentifiers": {
					"MINT_PRICE()": "c002d23d",
					"approve(address,uint256)": "095ea7b3",
					"balanceOf(address)": "70a08231",
					"burn(uint256)": "42966c68",
					"getApproved(uint256)": "081812fc",
					"getLockedEthForNft(uint256)": "235ac0f1",
					"getMintedNftId(address)": "c3641e9f",
					"getTotalLockedEth()": "5915c0dd",
					"isApprovedForAll(address,address)": "e985e9c5",
					"mint()": "1249c58b",
					"name()": "06fdde03",
					"owner()": "8da5cb5b",
					"ownerOf(uint256)": "6352211e",
					"renounceOwnership()": "715018a6",
					"safeTransferFrom(address,address,uint256)": "42842e0e",
					"safeTransferFrom(address,address,uint256,bytes)": "b88d4fde",
					"setApprovalForAll(address,bool)": "a22cb465",
					"setMintPrice(uint256)": "f4a0a528",
					"supportsInterface(bytes4)": "01ffc9a7",
					"symbol()": "95d89b41",
					"tokenURI(uint256)": "c87b56dd",
					"transferFrom(address,address,uint256)": "23b872dd",
					"transferOwnership(address)": "f2fde38b"
				}
			},
			"storageLayout": {
				"storage": [
					{
						"astId": 382,
						"contract": "LockableNFT.sol:LockableNFT",
						"label": "_name",
						"offset": 0,
						"slot": "0",
						"type": "t_string_storage"
					},
					{
						"astId": 384,
						"contract": "LockableNFT.sol:LockableNFT",
						"label": "_symbol",
						"offset": 0,
						"slot": "1",
						"type": "t_string_storage"
					},
					{
						"astId": 388,
						"contract": "LockableNFT.sol:LockableNFT",
						"label": "_owners",
						"offset": 0,
						"slot": "2",
						"type": "t_mapping(t_uint256,t_address)"
					},
					{
						"astId": 392,
						"contract": "LockableNFT.sol:LockableNFT",
						"label": "_balances",
						"offset": 0,
						"slot": "3",
						"type": "t_mapping(t_address,t_uint256)"
					},
					{
						"astId": 396,
						"contract": "LockableNFT.sol:LockableNFT",
						"label": "_tokenApprovals",
						"offset": 0,
						"slot": "4",
						"type": "t_mapping(t_uint256,t_address)"
					},
					{
						"astId": 402,
						"contract": "LockableNFT.sol:LockableNFT",
						"label": "_operatorApprovals",
						"offset": 0,
						"slot": "5",
						"type": "t_mapping(t_address,t_mapping(t_address,t_bool))"
					},
					{
						"astId": 8,
						"contract": "LockableNFT.sol:LockableNFT",
						"label": "_owner",
						"offset": 0,
						"slot": "6",
						"type": "t_address"
					},
					{
						"astId": 295,
						"contract": "LockableNFT.sol:LockableNFT",
						"label": "_status",
						"offset": 0,
						"slot": "7",
						"type": "t_uint256"
					},
					{
						"astId": 5512,
						"contract": "LockableNFT.sol:LockableNFT",
						"label": "_tokenIdCounter",
						"offset": 0,
						"slot": "8",
						"type": "t_uint256"
					},
					{
						"astId": 5514,
						"contract": "LockableNFT.sol:LockableNFT",
						"label": "MINT_PRICE",
						"offset": 0,
						"slot": "9",
						"type": "t_uint256"
					},
					{
						"astId": 5518,
						"contract": "LockableNFT.sol:LockableNFT",
						"label": "_lockedEth",
						"offset": 0,
						"slot": "10",
						"type": "t_mapping(t_uint256,t_uint256)"
					},
					{
						"astId": 5523,
						"contract": "LockableNFT.sol:LockableNFT",
						"label": "_mintedTokens",
						"offset": 0,
						"slot": "11",
						"type": "t_mapping(t_address,t_array(t_uint256)dyn_storage)"
					}
				],
				"types": {
					"t_address": {
						"encoding": "inplace",
						"label": "address",
						"numberOfBytes": "20"
					},
					"t_array(t_uint256)dyn_storage": {
						"base": "t_uint256",
						"encoding": "dynamic_array",
						"label": "uint256[]",
						"numberOfBytes": "32"
					},
					"t_bool": {
						"encoding": "inplace",
						"label": "bool",
						"numberOfBytes": "1"
					},
					"t_mapping(t_address,t_array(t_uint256)dyn_storage)": {
						"encoding": "mapping",
						"key": "t_address",
						"label": "mapping(address => uint256[])",
						"numberOfBytes": "32",
						"value": "t_array(t_uint256)dyn_storage"
					},
					"t_mapping(t_address,t_bool)": {
						"encoding": "mapping",
						"key": "t_address",
						"label": "mapping(address => bool)",
						"numberOfBytes": "32",
						"value": "t_bool"
					},
					"t_mapping(t_address,t_mapping(t_address,t_bool))": {
						"encoding": "mapping",
						"key": "t_address",
						"label": "mapping(address => mapping(address => bool))",
						"numberOfBytes": "32",
						"value": "t_mapping(t_address,t_bool)"
					},
					"t_mapping(t_address,t_uint256)": {
						"encoding": "mapping",
						"key": "t_address",
						"label": "mapping(address => uint256)",
						"numberOfBytes": "32",
						"value": "t_uint256"
					},
					"t_mapping(t_uint256,t_address)": {
						"encoding": "mapping",
						"key": "t_uint256",
						"label": "mapping(uint256 => address)",
						"numberOfBytes": "32",
						"value": "t_address"
					},
					"t_mapping(t_uint256,t_uint256)": {
						"encoding": "mapping",
						"key": "t_uint256",
						"label": "mapping(uint256 => uint256)",
						"numberOfBytes": "32",
						"value": "t_uint256"
					},
					"t_string_storage": {
						"encoding": "bytes",
						"label": "string",
						"numberOfBytes": "32"
					},
					"t_uint256": {
						"encoding": "inplace",
						"label": "uint256",
						"numberOfBytes": "32"
					}
				}
			},
			"userdoc": {
				"kind": "user",
				"methods": {
					"mint()": {
						"notice": "The sender must send exactly 0.1 ETH to mint."
					}
				},
				"version": 1
			}
		}
	}
}